:020000040800F2
:10000000E80E0024E102000869690008915E00081A
:100010006169000879120008E97B0008000000000F
:10002000000000000000000000000000C16C00089B
:10003000C91300080000000071690008596D00082C
:10004000FB020008FB020008FB020008FB0200089C
:10005000FB020008FB020008FB020008FB0200088C
:10006000FB020008FB020008FB02000881120008E6
:1000700091120008FB020008FB020008FB020008C6
:10008000FB020008FB020008FB020008FB0200085C
:10009000FB020008FB020008FB020008FB0200084C
:1000A000FB020008FB020008FB020008FB0200083C
:1000B000FB020008FB020008FB020008FB0200082C
:1000C000FB020008FB020008FB020008FB0200081C
:1000D000C96B0008D97B0008FB020008FB0200087E
:1000E000FB020008FB02000800000000FB02000801
:1000F000FB020008FB020008FB020008FB020008EC
:10010000FB020008FB020008FB020008FB020008DB
:10011000FB020008FB020008FB020008FB020008CB
:10012000FB020008FB020008FB020008FB020008BB
:10013000FB020008FB020008FB020008FB020008AB
:1001400000000000000000000000000000000000AF
:10015000FB020008FB020008FB020008FB0200088B
:10016000FB020008FB020008FB020008FB0200087B
:10017000FB020008FB020008FB0200080000000070
:10018000FB020008FB020008FB020008FB0200085B
:10019000FB020008FB020008FB020008FB0200084B
:1001A000FB020008FB020008FB0200080000000040
:1001B000FB020008FB020008FB020008FB0200082B
:1001C000FB020008FB020008000000000000000025
:1001D0000000000000000000FB020008000000001A
:1001E000000000000000000000000000000000000F
:1001F0000000000000000000FB020008FB020008F5
:10020000FB020008FB02000800000000FB020008DF
:10021000FB020008FB020008FB020008FB020008CA
:10022000FB02000800000000FB02000800000000C4
:10023000FB020008FB02000800000000FB020008AF
:10024000FB020008FB020008FB020008FB0200089A
:10025000FB020008FB020008FB020008FB0200088A
:10026000FB020008FB020008FB020008FB0200087A
:10027000FB020008FB020008FB020008000000006F
:10028000FB020008FB020008FB020008FB0200085A
:1002900000000000FB020008FB0200080000000054
:1002A00000000000FB020008FB020008FB0200083F
:1002B000FB020008FB020008FB020008FB0200082A
:1002C000FB020008FB020008FB020008DFF80CD06C
:1002D00000F0AAF800480047E9800008E80E002472
:1002E0000648804706480047FEE7FEE7FEE7FEE7D0
:1002F000FEE7FEE7FEE7FEE7FEE7FEE7296E000801
:10030000CD0200082DE9F05F0546002092469B468D
:1003100088460646814640241BE02846414647461B
:10032000224600F070F853465A46C01A914110D345
:1003300011461846224600F057F82D1A67EB0108BF
:100340004F4622460120002100F04EF817EB00092D
:100350004E41201EA4F10104DFDC484631462A4606
:100360004346BDE8F09F40EA01039B0703D009E044
:1003700008C9121F08C0042AFAD203E011F8013B91
:1003800000F8013B521EF9D27047D2B201E000F8EA
:10039000012B491EFBD270470022F6E710B5134629
:1003A0000A4604461946FFF7F0FF204610BD421CDE
:1003B00010F8011B0029FBD1801A704730B50B469D
:1003C000014600202022012409E021FA02F59D4285
:1003D00005D303FA02F5491B04FA02F52844151E59
:1003E000A2F10102F1DC30BD202A04DB203A00FA40
:1003F00002F1002070479140C2F1200320FA03F37C
:10040000194390407047202A04DB203A21FA02F079
:100410000021704721FA02F3D040C2F1200291403E
:1004200008431946704700001CB509480090094868
:1004300001900546009C06E0E06840F0010394E866
:10044000070098471034AC42F6D3FFF743FF000093
:10045000C88B0008E88B000810B540F26C0400203F
:10046000C2F200442080C4E90D00C4E90F00C4E9D1
:100470001100E064A07002F0F7FBE06010BD000026
:10048000F0B581B02DED088B90B040F26C06C2F251
:1004900000463078032838D8DFE800F002863C5068
:1004A0000020C82106F024F8002005F061FF012893
:1004B00013D1B07843F234310130B0704143090CAC
:1004C00001EB8101411A71708AB248F6D821C0F659
:1004D000000151F8220007F097FB0120012405F0EC
:1004E00047FF012840F09080002006F051F8707816
:1004F00048F6D821C0F6000151F8200007F084FB2F
:100500004FF4487002F0B8FA347010B0BDEC088BAC
:1005100001B0F0BD05F0C0FC002800F0958004207B
:1005200030700FF2386007F06FFB10B0BDEC088B35
:1005300001B0BDE8F04006F06BB800BFB6F840006F
:100540006422B6F84210012301286C4602FB01F137
:1005500098BF1846B1FBF0F20FF2DC51204607F0CD
:1005600013FE204607F050FB4FF4FA6002F084FAC5
:1005700001204FF4FA7105F0BBFF40F2DC5002F0AD
:100580007BFA012005F0F4FF0020307006F040F8FF
:10059000002005F0EDFF012005F0EAFF10B0BDECF2
:1005A000088B01B0F0BD00BF48F65A30C0F600001D
:1005B00007F02AFB40F2DC5002F05EFA00F090FBFC
:1005C00048F63730C0F6000007F01EFB4FF47A7093
:1005D00002F052FA0220307070780024C6E90D440F
:1005E000C6E90F44C6E91144F46486F8340002F009
:1005F0003BFBB06302F038FBF060C6F8034010B07C
:10060000BDEC088B01B0F0BD022005F0B1FE012861
:100610007FF47BAFB07843F2343148F6D82204300F
:10062000C0F600024143090C01EB8101411A7170CF
:1006300088B2B17052F8200010B0BDEC088B01B048
:10064000BDE8F04007F0E0BA707804283FF65DAFEF
:10065000DFE800F004F0A0DC2E0000BF02F004FB95
:10066000F1680446471A05F0DBFF002005F090FF13
:1006700005F01EFCB1EE040A90ED061A0546B4EE34
:10068000401AF1EE10FA05DD48F64430C0F60000DD
:1006900007F0BAFA43F699208742FFF436AF05F027
:1006A000B7FF002005F064FFF463A869B064C6E1F9
:1006B00002F0DAFA317A0446002908BFB463F5691A
:1006C0002DBB01F0010070720FF2B84007F09CFAE8
:1006D000707A9621002500284FF0000008BF1E21E7
:1006E00006F016FB4FF4967002F0C6F905F098FF7D
:1006F0000FF2984007F088FAB6F84000B572254628
:10070000F4610130A6F84000307A013030720120E7
:1007100005F02EFEB17A012808BF00291ED1601B0A
:10072000B6F8421000EE100A96ED111A0120B072D0
:10073000481CA6F84200B8EE400A31EE000A86EDE9
:10074000110A05F065FF00205A21002506F0E0FAA5
:1007500040F2DC50F56102F08FF9B17AF06941F2B4
:100760008932201A904210D379B90FF2304007F045
:100770004BFA05F04DFF00205A21002506F0C8FA7B
:100780004FF47A70F56102F077F9307A0A28FFF4B5
:10079000BCAE53E102F068FAF1680446401A9FEDDE
:1007A000BD1A00EE100AB8EE400A80EE01AA05F06C
:1007B00037FFF078AB214143490A01EB4101411A6F
:1007C000C9B2022900F04081012940F06B81B7EEE7
:1007D000000AB3EE0E2A9FEDB03A2AEE033A30EE4D
:1007E0004A1A2AEE029A9FEDAD2AB4EE40AAA1EE73
:1007F000023A9FEDAB2AA1EE029AF1EE10FABCEE9E
:10080000C31A11EE102A80F25B815CE102F02CFA2F
:10081000B169044609B92146B4613079651AC00747
:100820004FF0000000F0F28005F0A2FE05F0F8FEA7
:10083000F0E000BF02F018FAB1790446002967D150
:10084000354640F20010C0F20230012145F8200F79
:1008500005F81A1C686002F007FA00F00700EA7950
:10086000295CE9712A5402F0FFF944F62511C2F21D
:100870009241A0FB0112811A02EB5101AA79890869
:10088000A1EBC1010844295CA9712A5402F0ECF9DA
:100890004AF6AB27CAF6AA27A0FB071291086A7985
:1008A00001EB4101A0EB4100295C69712A5402F07F
:1008B000DBF94CF6CD41CCF6CC41A0FB011222F085
:1008C000030101EB92012A79401A295C29712A540B
:1008D00002F0CAF900F00300EA78295CE9702A54B2
:1008E00002F0C2F9A0FB071222F0010101EB520154
:1008F000AA78401A295CA9702A5402F0B5F900F0D0
:1009000001006A78295C69702A54002005F81B0CE4
:10091000306998BBB079012840F090807079082840
:1009200080F08C80304448F22D72C8F22D7243F66C
:100930003C4390F82000C7F678035A250027C100F1
:1009400004284FF0000038BF22FA01F038BF23FA24
:1009500001F5C1B2002006F0DBF9E9B2012006F092
:10096000D7F9642002F088F805F05AFEB6F8400086
:10097000F771C6E904440130A6F84000012005F0F3
:10098000F7FCF179012808BF002921D17069B6F878
:100990004210201A96ED111A00EE100A0120F07193
:1009A000481CA6F84200B8EE400A31EE000A86ED77
:1009B000110A05F02DFE85A007F026F970790021B7
:1009C0003161013070714FF4FA7002F055F8F1792D
:1009D000306940F6B932201A9042FFF496AD0029F2
:1009E0007FF493AD05F014FE7AA007F00DF971794C
:1009F000002030614FF4FA700131717110B0BDEC1C
:100A0000088B01B0BDE8F04002F036B805F0C0FD3B
:100A100005F0FEFD41F28930854205D33079B4619D
:100A20000130307101E000BF3079C0B20A28FFF414
:100A30006CAD002005F09CFD05F0EAFDF46301209B
:100A400086F84C0070E000BF9FED5D0A2AEE008A38
:100A5000B0EE480A07F016FD9FED5BBAB0EE4B9A78
:100A60009FED581AA0EE019AB0EE480A07F0B2FDC9
:100A7000B3EE0E1AA0EE01BAB7EE000AB4EE40AA29
:100A8000F1EE10FABCEECB1A11EE102A1BDBF07857
:100A900016E000BF00409C450000F042000070429C
:100AA000000016439FED470A5A229FED479AAAEE8F
:100AB000009AB7EE000AB4EE40AAF1EE10FA02DB9B
:100AC0000130F070F460BCEEC90AB425002010EECD
:100AD000101AB42928BF2946B42A38BF154606F093
:100AE00017F90120294606F013F905F0E1F9807F96
:100AF00028B148F67F30C0F6000007F085F8B06BEB
:100B000047F23151201A8842FFF4FFAC05F080FD16
:100B100000205A2106F0FCF801205A21012506F098
:100B2000F7F8F46386F84C500320307010B0BDEC39
:100B3000088B01B0F0BD00BFE8AEADE7BB83E7BBFB
:100B400093E69D9FE38082E6ADA3E7A1AEE78E87A3
:100B5000E799BEE58886E4B98B256400E6A380E6C4
:100B6000B58BE588B0E5BC82E5B8B8E5A7BFE680FF
:100B700081EFBC8CE8AEADE7BB83E69A82E5819C51
:100B800000000000E58786E5A4870000E8AFB7E530
:100B9000AFBBE689BEE58589E782B900E8B685E6A0
:100BA00097B6EFBC8CE8AFB7E5A49AE6B3A8E684A5
:100BB0008FE8AFA5E4BEA7E7A9BAE997B4000000A3
:100BC000F90FC940000070420000B442E6ADA3E74F
:100BD000A1AE0000E8B685E697B600000000000070
:100BE00040F600000121C5F60200012202F034B8EF
:100BF00040F600000121C5F60200002202F02CB8E8
:100C0000704700000000000040F600000821C5F613
:100C10000200012202F020B840F600000821C5F6CB
:100C20000200002202F018B8704700000000000027
:100C3000002808BF704710B54EF2180145F2003C7D
:100C4000CEF20001C0F2070C03E000BF013802043D
:100C50001AD051F804EC0B68002208E01A449C42B8
:100C6000A2EB0402234628BF72446245EED20C6810
:100C70009C42F3D10C689C4204BF0C689C42EDD1AD
:100C80000C689C42F3D0E9E7BDE8104070470000D3
:100C900080B54EF21801C0EB0010CEF200014FEA11
:100CA000401E002351F804CC0A6808E01344904227
:100CB000A3EB0003024628BF634473450CD20868C7
:100CC0009042F3D10868904204BF08689042EDD189
:100CD00008689042F3D0E9E780BD00000000000002
:100CE0002DE9F04F81B02DED068B9FED4E8A40F23D
:100CF000BC00B0EE489AB0EE48AAC2F200404FF0F5
:100D0000000BC0E901BBC0F80CB080F800B007E0F0
:100D10000A20FFF78DFFBBF1630F0BF1010B49D2E6
:100D2000FFF77AFF802000F08FFA552000F08CFA50
:100D30000446552000F088FA552000F085FA8046D8
:100D4000552000F081FA0746552000F07DFA8146D3
:100D5000552000F079FA0646552000F075FA8246D3
:100D6000552000F071FA0546FFF74EFF0F2CCFD14A
:100D700048EA072000B249EA062109B200EE100A4B
:100D80004AEA052001EE101A00B240F2140103EE07
:100D9000100AB8EEC00AB8EEC11AC2F20041B8EEAD
:100DA000C33A91ED012AA0EE028AA1EE02AAA3EEB7
:100DB000029AADE740F2BC079FED1B0AC2F2004762
:100DC00088EE001A8AEE002A41F26F2189EE000AAD
:100DD00049F6A6324CF28F2387ED051A87ED062AD5
:100DE000012087ED070AC3F6832138700020C7E988
:100DF0000800C7E90A003863C3F644327863C3F6D3
:100E0000F543C7E90E12C7E91030C7E91200C7E978
:100E10001400C7E91601C7E91823BDEC068B01B021
:100E2000BDE8F08F000000000000C8420000000094
:100E300010B5FFF7E5FEFFF7F7FE06F019FF0446D1
:100E400007F042F8204310BD2DE9F04F81B02DEDA1
:100E50000C8B82B0CDE90010FFF7CAFE922000F0A3
:100E6000F3F9922000F0F0F9552000F0EDF98046FA
:100E7000552000F0E9F98246552000F0E5F90546D5
:100E8000552000F0E1F90746552000F0DDF906464F
:100E9000552000F0D9F90446FFF7A2FE45EA0720E5
:100EA00040F2140100B2C2F2004100EE100A46EA1C
:100EB000042000B291ED00BAB8EEC08A00EE100A2C
:100EC00048EA0A2005B2B8EEC09AFFF7A5FE8020D6
:100ED00000F0BAF9552000F0B7F90646552000F0A9
:100EE000B3F9552000F0B0F98246552000F0ACF976
:100EF0008146552000F0A8F98346552000F0A4F95A
:100F00000446552000F0A0F90746552000F09CF952
:100F100000EE105A2BEE088A2BEE099A8046B8EEA6
:100F2000C00A2BEE00AAFFF76FFE0F2E20D14AEA6F
:100F3000092000B24BEA042109B200EE100A47EA88
:100F4000082001EE101A00B240F2140103EE100A5C
:100F5000B8EEC00AB8EEC11AC2F20041B8EEC33A08
:100F600091ED012A22EE00DA22EE01CA22EE03BA46
:100F7000FFF73EFEA22000F067F9A22000F064F91E
:100F8000552000F061F946B20446552000F05CF9A6
:100F90000546FFF725FE29EE090AE0004FF600019D
:100FA00040EA5510CFF6FF71002EA8EE080AB4EE05
:100FB000001A48BF0843B3EE072A40F2BC04C2F24D
:100FC0000044F1EEC00A00EE100A0098B8EEC00A24
:100FD000A0EE012AB0EE4A0A80ED002A2069013015
:100FE000206107F0F9F8B0EE40AAB0EE480AF0EE42
:100FF000490A07F0F1F82078012840F0A98094ED23
:101000000B4A9FED8D7AB0EE441A94ED0D3AD4ED73
:10101000140A94ED052AF0EE603A3DEE422A93EE72
:10102000471A94ED0C5A94ED166AD4ED092AD6EEBF
:10103000473AD4ED0E1A32EE622ADFED7C5AD4ED37
:10104000127AD4ED176A31EE451AA3EE074AA3EEE1
:10105000075A71EE214A94ED081AD4ED151AA2EE42
:10106000251A33EEE12AD4ED0A3AE4EEA53AD4ED9E
:10107000064A7CEE644A72EE266A94ED0F2AA2EECE
:10108000253A94ED112A74EEE74AE6EE070AE6EEF9
:10109000071A94ED187AA4EEA52AD4ED134AE6EEC9
:1010A000A54ADFED636A2AEE268AA7EE256A9FED40
:1010B000617A20EE260AC8EE075A94ED108A33EEC4
:1010C000888A80EE070A75EEC15AC5EE086A83EE7B
:1010D000887A30EE420AE6EEA52AA6EEE35AA6EE9C
:1010E000C43AD4ED196A74EEA66AC4ED092AE7EE93
:1010F000633A84ED0C5AA7EE444A84ED0D3A81EE32
:10110000A68AC4EEA66AC4ED0A3AA7EE251A84EDB3
:101110000B4AE8EE007AE8EE641AA8EE606A84ED05
:10112000081AE6EEE44AC4ED127AE6EEE00AC4EDEF
:10113000151AA6EE802A94ED070AC4ED134A3BEE79
:1011400040BAC4ED140A84ED166A84ED112A09E050
:1011500094ED011A9FED350A94ED022AADEE001AC6
:10116000ACEE002A94ED030A9FED303AABEE030A91
:101170009FED2F3A84ED011A84ED022AB4EE430A62
:10118000F1EE10FA1EDD9FED2D4A00BF30EE040A8D
:10119000B4EE430AF1EE10FAC1BF30EE040AB4EE29
:1011A000430AF1EE10FA30EE040AC4BFB4EE430A6B
:1011B000F1EE10FA06DD30EE040AB4EE430AF1EE69
:1011C00010FAE3DC9FED1E3AB4EE430AF1EE10FA9A
:1011D0001DDA9FED1C4A30EE040AB4EE430AF1EE2C
:1011E00010FA14DA30EE040AB4EE430AF1EE10FA03
:1011F000BEBF30EE040AB4EE430AF1EE10FA06DA8E
:1012000030EE040AB4EE430AF1EE10FAE3DB019883
:1012100084ED030A80ED001A80ED012A80ED020AB8
:1012200002B0BDEC0C8B01B0BDE8F08F0AD7233CB7
:1012300000003443DB0F49400AD723BC0000B4C38D
:10124000000034C30000B44380B582B08DF80700BD
:1012500040F21420C2F200400DF107010DF1060228
:1012600001234FF47A7CCDF800C003F019FC9DF8FF
:10127000060002B080BD0000FEE700000000000094
:1012800040F22410C2F2004000F09ABC00000000BE
:1012900040F29C10C2F2004000F092BC000000003E
:1012A00040F20F42D0F800C0C4F20202944511DCB3
:1012B0006F22C4F20202944522DC3F22C4F20202F1
:1012C000944539DC1022C4F2020294455AD02822F7
:1012D00054E000BF40F26F42C4F2020294451BDCAE
:1012E00040F23F42C4F2020294452DDC40F210422B
:1012F000C4F20202944545D040F228423EE000BFCD
:101300009F22C4F20202944528DC7022C4F2020239
:10131000944537D0882231E040F29F42C4F2020265
:10132000944523DC40F27042C4F20202944529D075
:1013300040F2884222E000BF4022C4F202029445FB
:1013400020D058221AE000BF40F24042C4F202020C
:10135000944517D040F2584210E000BFA022C4F2DA
:10136000020294450ED0B82208E000BF40F2B84215
:10137000C4F20202944505D040F2A042C4F2020237
:10138000944517D10CF0F8024AF6AB23103ACAF68E
:10139000AA23A2FB03310AA35F2AC1F302115B5CFB
:1013A00040F2FF312CEA0101C36588BF0431816539
:1013B000084670472CF0FF0181650846704700BF62
:1013C000000610160006101670470000000000000E
:1013D000EFF3108072B600BFFEE7000000000000CF
:1013E0002DE9F041044601F03FFC1CB3054694F89A
:1013F0003500022822D140F20F472668C4F20207C6
:1014000040F26F48BE426FF00E00C4F202081DDCCD
:101410006F21C4F202018E422ADC3F21C4F2020194
:101420008E4241DC1021C4F202018E4263D0282199
:101430005CE000BF0120BDE8F08100BF8020606556
:101440000120002184F83410BDE8F08146451BDC02
:1014500040F23F41C4F202018E422DDC40F21041C5
:10146000C4F202018E4246D040F228413EE000BF65
:101470009F21C4F202018E4228DC7021C4F20201D5
:101480008E4238D0882131E040F29F41C4F20201FF
:101490008E4223DC40F27041C4F202018E422AD017
:1014A00040F2884122E000BF4021C4F202018E4296
:1014B00021D058211AE000BF40F24041C4F202019D
:1014C0008E4218D040F2584110E000BFA021C4F273
:1014D00002018E420FD0B82108E000BF40F2B841AF
:1014E000C4F202018E4206D040F2A041C4F20201D1
:1014F0008E42314607D13146306820F01E0041F857
:10150000140B6FF080000A68464500EA020008608C
:101510001ADC9F20C4F20200864233DC5720C4F25A
:10152000020086425ADC1020C4F20200864200F01B
:1015300097802820C4F20200864200F0918040206B
:10154000C4F202008AE000BF45F22F40C5F6020057
:1015500086422DDC40F2B740C4F2020086424BDCEA
:1015600040F27040C4F20200864279D040F28840D6
:10157000C4F20200864273D040F2A040C4F20200DE
:101580006CE000BF40F22740C4F20200864243DC18
:10159000A020C4F20200864262D0B820C4F2020049
:1015A00086425DD040F21040C4F2020056E000BF17
:1015B00045F26B40C5F6020086423FDC45F2304002
:1015C000C5F6020086424BD045F24440C5F6020003
:1015D000864245D045F258403EE000BF5820C4F254
:1015E000020086423CD07020C4F20200864237D00E
:1015F0008820C4F2020031E040F2B840C4F2020098
:1016000086422DD045F20840C5F60200864227D01A
:1016100045F21C4020E000BF40F22840C4F2020026
:1016200086421DD040F24040C4F20200864217D0EC
:1016300040F25840C4F2020010E000BF45F26C4096
:10164000C5F6020086420BD045F29440C5F6020072
:10165000864205D045F28040C5F60200864204D19C
:10166000206E016821F480710160306820F0010073
:10167000306000BF3068C00710D001F0F5FA401BA1
:101680000628F7D320206065032084F83500012068
:10169000002184F83410BDE8F08100BF20680821E3
:1016A000B8424FF03F0211DC6F23C4F202039842AC
:1016B0001EDC3F23C4F20203984235DC1023C4F23F
:1016C0000203984257D0282350E000BF40451BDC5E
:1016D00040F23F43C4F2020398422DDC40F2104333
:1016E000C4F20203984246D040F228433EE000BFD5
:1016F0009F23C4F20203984228DC7023C4F2020341
:10170000984238D0882331E040F29F43C4F202036C
:10171000984223DC40F27043C4F2020398422AD07C
:1017200040F2884322E000BF4023C4F20203984203
:1017300021D058231AE000BF40F24043C4F2020314
:10174000984218D040F2584310E000BFA023C4F2E2
:10175000020398420FD0B82308E000BF40F2A04334
:10176000C4F20203984206D040F2B843C4F2020326
:10177000984240F0C580D4E9163707F01F0740456E
:1017800002FA07F25A5019DC9F21C4F20201884282
:1017900032DC5721C4F20201884259DC1021C4F224
:1017A0000201884200F096802821C4F2020188429A
:1017B00000F090804021C4F2020189E045F22F41FF
:1017C000C5F6020188422DDC40F2B741C4F20201A5
:1017D00088424BDC40F27041C4F20201884279D069
:1017E00040F28841C4F20201884273D040F2A04125
:1017F000C4F202016CE000BF40F22741C4F20201D2
:10180000884243DCA021C4F20201884262D0B821A0
:10181000C4F2020188425DD040F21041C4F20201DC
:1018200056E000BF45F26B41C5F6020188423FDC3D
:1018300045F23041C5F6020188424BD045F24441A1
:10184000C5F60201884245D045F258413EE000BF4E
:101850005821C4F2020188423CD07021C4F2020136
:10186000884237D08821C4F2020131E040F2B84109
:10187000C4F2020188422DD045F20841C5F60201AA
:10188000884227D045F21C4120E000BF40F22841A9
:10189000C4F2020188421DD040F24041C4F202016C
:1018A000884217D040F25841C4F2020110E000BF54
:1018B00045F26C41C5F6020188420BD045F29441D5
:1018C000C5F60201884205D045F28041C5F6020105
:1018D00088420BD1616EA26EE06E4A6030B1016841
:1018E00021F480710160D4E91C014160012084F879
:1018F00035000020002184F83410BDE8F08100BFDD
:101900000421012237E70000F0B190F835100229D8
:1019100018D180B540F20F420168C4F20202914230
:1019200014DC6F23C4F20203994225DC3F23C4F286
:10193000020399423CDC1023C4F2020399425DD0B9
:10194000282357E0802141650120704740F26F4312
:10195000C4F2020399421BDC40F23F43C4F202038B
:1019600099422DDC40F21043C4F20203994245D063
:1019700040F228433EE000BF9F23C4F20203994295
:1019800028DC7023C4F20203994237D0882331E067
:1019900040F29F43C4F20203994223DC40F27043B9
:1019A000C4F20203994229D040F2884322E000BFEA
:1019B0004023C4F20203994220D058231AE000BF0A
:1019C00040F24043C4F20203994217D040F2584318
:1019D00010E000BFA023C4F2020399420ED0B82346
:1019E00008E000BF40F2B843C4F20203994205D0B8
:1019F00040F2A043C4F20203994275D191424FF0E4
:101A0000040280F8352011DC6F20C4F2020081420C
:101A100022DC3F20C4F20200814239DC1020C4F2F3
:101A20000200814259D0282054E000BF40F26F40AC
:101A3000C4F2020081421BDC40F23F40C4F20200CB
:101A400081422DDC40F21040C4F20200814244D0B9
:101A500040F228403EE000BF9F20C4F202008142D5
:101A600028DC7020C4F20200814236D0882031E0A8
:101A700040F29F40C4F20200814223DC40F27040F9
:101A8000C4F20200814228D040F2884022E000BF28
:101A90004020C4F2020081421FD058201AE000BF4B
:101AA00040F24040C4F20200814216D040F2584059
:101AB00010E000BFA020C4F2020081420DD0B82087
:101AC00008E000BF40F2B840C4F20200814204D0F6
:101AD00040F2A040C4F202008142086820F00100F8
:101AE0000860002080BD00BF0A6822F00E020A6074
:101AF00045F25742C5F6020291420A6822F00102FD
:101B00000A600FDC45F22F42C5F60202914219DC51
:101B100045F20842C5F60202914229D045F21C4224
:101B200022E000BF45F27F42C5F60202914213DC7B
:101B300045F25842C5F60202914219D045F26C4274
:101B400012E000BF45F23042C5F6020291420FD0CA
:101B500045F2444208E000BF45F29442C5F6020255
:101B6000914205D045F28042C5F6020291421AD157
:101B7000D0E9181CD0E916E30A6822F480720A60E2
:101B800003F01F01012202FA01F1CEF80410816E68
:101B9000CCF80410C16E31B10A6822F480720A6078
:101BA000D0E91C124A60012180F83510016D002235
:101BB000002980F8342094D08847002080BD0000A0
:101BC0002DE9F04782B00021019140F20C0148F26A
:101BD000B513C2F20041C1F64E33856D40F26F4934
:101BE0000A680168C4F202092E68A2FB032849456D
:101BF0002A6815DC9F22C4F2020291422CDC572293
:101C0000C4F20202914251DC1022C4F2020291425B
:101C10007BD02822C4F20202914276D040226FE0AB
:101C200045F22F43C5F60203994229DC40F2B7433F
:101C3000C4F20203994245DC40F27042C4F202024F
:101C4000914262D040F28842C4F2020291425CD0DA
:101C500040F2A04254E000BF40F22742C4F2020228
:101C600091423FDCA022C4F2020291424DD0B82240
:101C7000C4F20202914248D040F2104240E000BF5C
:101C800045F26B43C5F60203994275DC45F23043D9
:101C9000C5F60203994200F0828045F24443C5F63E
:101CA000020399427BD045F2584373E05822C4F2B4
:101CB0000202914229D07022C4F20202914224D041
:101CC00088221DE040F2B843C4F2020399421CD0BE
:101CD00045F20843C5F60203994260D045F21C4321
:101CE00058E000BF40F22842C4F2020291420CD0F8
:101CF00040F24042C4F20202914206D040F2584201
:101D0000C4F20202914240F05383C26D082302F0F4
:101D10001F0240F20F4A9340C4F2020A334200F01D
:101D2000DE8051454FF0040412DC6F27C4F2020735
:101D3000B9426DDC3F27C4F20207B94200F39C8030
:101D40001027C4F20207B94200F0BD802827B5E091
:101D5000494569DC40F23F47C4F20207B94200F34B
:101D6000938040F21047C4F20207B94200F0AB8002
:101D700040F22847A2E000BF45F26C43C5F60203DB
:101D800099420CD045F28043C5F60203994206D031
:101D900045F29443C5F60203994240F009830B686B
:101DA000C76D07F01F070426BE40164218BF13F088
:101DB000040423D10226BE40164218BF13F00204C9
:101DC00042D1FA40120740F1F38213F0080200F00A
:101DD000EF820A6822F00E020A60012101FA07F27E
:101DE0006A60416580F83510C16C00294FF000022F
:101DF00080F8342040F0D882DAE200BF1A046E6026
:101E000034D49A0636D40A6822F004020A6031E01B
:101E10009F27C4F20207B94240DC7027C4F20207D0
:101E2000B94250D0882749E040F29F47C4F20207E8
:101E3000B9423BDC40F27047C4F20207B94242D0DB
:101E400040F288473AE000BF1A046E6000F1B482A5
:101E50009A0600F1B5820A6822F00A020A6001219E
:101E600080F83510002180F83410A9E2D90301D49C
:101E7000816C98E2016C96E24027C4F20207B942F5
:101E800021D058271AE000BF40F24047C4F20207B1
:101E9000B94218D040F2584710E000BFA027C4F262
:101EA0000207B9420FD0B82708E000BF40F2A047B0
:101EB000C4F20207B94206D040F2B847C4F20207A2
:101EC000B94218BF08240F68274208D00F6827F0CE
:101ED00004070F60AB60436D43F0010343650123CA
:101EE000934033426FD0514510DC6F27C4F2020794
:101EF000B9421DDC3F27C4F20207B94234DC102787
:101F0000C4F20207B94256D028274FE049451BDCEE
:101F100040F23F47C4F20207B9422DDC40F21047BD
:101F2000C4F20207B94246D040F228473EE000BF63
:101F30009F27C4F20207B94228DC7027C4F20207C7
:101F4000B94238D0882731E040F29F47C4F20207F7
:101F5000B94223DC40F27047C4F20207B9422AD0EA
:101F600040F2884722E000BF4027C4F20207B9428E
:101F700021D058271AE000BF40F24047C4F20207C0
:101F8000B94218D040F2584710E000BFA027C4F271
:101F90000207B9420FD0B82708E000BF40F2A047BF
:101FA000C4F20207B94206D040F2B847C4F20207B1
:101FB000B94240F007824F693F0604D5AB60436DDC
:101FC00043F0020343650423934033426FD05145ED
:101FD00010DC6F27C4F20207B9421DDC3F27C4F2B0
:101FE0000207B94234DC1027C4F20207B94256D0C6
:101FF00028274FE049451BDC40F23F47C4F2020767
:10200000B9422DDC40F21047C4F20207B94246D073
:1020100040F228473EE000BF9F27C4F20207B942C2
:1020200028DC7027C4F20207B94238D0882731E093
:1020300040F29F47C4F20207B94223DC40F27047E6
:10204000C4F20207B9422AD040F2884722E000BF1A
:102050004027C4F20207B94221D058271AE000BF36
:1020600040F24047C4F20207B94218D040F2584744
:1020700010E000BFA027C4F20207B9420FD0B82772
:1020800008E000BF40F2A047C4F20207B94206D000
:1020900040F2B847C4F20207B94240F09B810F6892
:1020A000BF0704D5AB60436D43F0040343651023C1
:1020B00003FA02F2324200F0828051454FF00803E9
:1020C00010DC6F27C4F20207B9421DDC3F27C4F2BF
:1020D0000207B94234DC1027C4F20207B94256D0D5
:1020E00028274FE049451BDC40F23F47C4F2020776
:1020F000B9422DDC40F21047C4F20207B94246D083
:1021000040F228473EE000BF9F27C4F20207B942D1
:1021100028DC7027C4F20207B94238D0882731E0A2
:1021200040F29F47C4F20207B94223DC40F27047F5
:10213000C4F20207B9422AD040F2884722E000BF29
:102140004027C4F20207B94221D058271AE000BF45
:1021500040F24047C4F20207B94218D040F2584753
:1021600010E000BFA027C4F20207B9420FD0B82781
:1021700008E000BF40F2A047C4F20207B94206D00F
:1021800040F2B847C4F20207B94218BF04230F68EF
:102190001F4214D0AA600A6852030A6808D4D20504
:1021A00008D40A6822F008020A60016C21B906E02E
:1021B000110351D4016C11B1044688472046C16D0A
:1021C00001F01F02202101FA02F3334200F0AF8038
:1021D00001681027514511DC6F26C4F20206B14296
:1021E0001EDC3F26C4F20206B14239DC1026C4F2DE
:1021F0000206B1425BD0282654E000BF49451BDCF3
:1022000040F23F46C4F20206B14231DC40F21046D1
:10221000C4F20206B1424AD040F2284642E000BF72
:102220009F26C4F20206B1422CDC7026C4F20206DC
:10223000B1423CD0882635E040F29F46C4F2020607
:10224000B14227DC40F27046C4F20206B1422ED001
:1022500040F2884626E000BF816C0029ACD1AEE791
:102260004026C4F20206B14221D058261AE000BF2F
:1022700040F24046C4F20206B14218D040F258463D
:1022800010E000BFA026C4F20206B1420FD0B8266B
:1022900008E000BF40F2A046C4F20206B14206D0F8
:1022A00040F2B846C4F20206B14218BF02270E68D7
:1022B0003E423CD0AB6090F83530042B0B681DD10A
:1022C00023F016030B604B6923F080034B61036C12
:1022D0000BB9836C1BB10B6823F008030B603F2123
:1022E0009140A960012180F83510016D00294FF05F
:1022F000000280F8342057D15AE000BF5A030A6820
:102300000CD4D2050ED40A6822F010020A60012112
:1023100080F83510002180F8341003E0110301D457
:10232000416C00E0C16B11B1044688472046416D05
:1023300000293DD0416DC90734D0042180F8351003
:1023400001684FEA98220B6823F001030B60019BA0
:102350000133019393421AD80B68DB0717D0019B16
:1023600001330193934212D80B68DB070FD0019B16
:102370000133019393420AD80B68DB0707D0019B16
:1023800001330193934202D80B68DB07DFD1096860
:10239000C9074FF0030108BF012180F83510002163
:1023A00080F83410C16C19B102B0BDE8F04708479D
:1023B00002B0BDE8F08700BFD90301D4416CF2E759
:1023C000C16BF0E70B680423934033427FF4FFAD09
:1023D0006DE600BF0B686AE62DE9F041044600F0A7
:1023E00043FCFCB140F26F4805462068C4F2020885
:1023F00040451BDC9F21C4F20201884232DC572198
:10240000C4F20201884259DC1021C4F20201884260
:1024100000F083802821C4F20201884200F07D8010
:10242000402175E00120BDE8F08100BF45F22F4159
:10243000C5F60201884229DC40F2B741C4F202012C
:10244000884247DC40F27041C4F20201884264D005
:1024500040F28841C4F2020188425ED040F2A041BD
:1024600056E000BF40F22741C4F20201884241DC3D
:10247000A021C4F2020188424FD0B821C4F2020167
:1024800088424AD040F2104142E000BF45F26B4121
:10249000C5F60201884200F3D18045F23041C5F60D
:1024A0000201884200F0DD8045F24441C5F6020198
:1024B000884200F0D68045F25841CDE05821C4F260
:1024C0000201884229D07021C4F20201884224D03E
:1024D00088211DE040F2B841C4F2020188421CD0BC
:1024E00045F20841C5F60201884200F0BA8045F283
:1024F0001C41B1E040F22841C4F2020188420CD0F4
:1025000040F24041C4F20201884206D040F25841F4
:10251000C4F20201884240F03981022184F835106A
:10252000002184F83410016821F00101016000BF2E
:1025300020680168C9070DD000F096FB401B0628F3
:10254000F6D320206065032084F835000120BDE823
:10255000F08100BF48F23F0204F108060168CFF69F
:102560001062114065694CCE1143A2691943E369B9
:102570003143266A0D43616A2B43042943EA06036B
:1025800043EA020303D1D4E90B652E433343656864
:10259000A5F12906292E00F23182DFE816F02B0082
:1025A0002B002B002B002B002B002F022F022F02C1
:1025B0002F022F022F022F022F022F022F022F0293
:1025C0002F022F022F022F022F022B002B002B0095
:1025D0002B002F022F022F022F022B002B002F0285
:1025E0002F022F022F022F022F022B002B002B0075
:1025F0002B0000BF43F4801303600429436923F0D8
:10260000070341EA030140F0DD80D4E90A53002BBF
:1026100041EA050100F0D680B2F5005F00F0B88015
:10262000002A40F0C180022D00F0C180012D00F091
:10263000B580002D00F0BB80C4E000BF45F26C41C6
:10264000C5F6020188420CD045F28041C5F6020170
:10265000884206D045F29441C5F60201884240F016
:10266000958004F1080E022184F83510002184F8C9
:1026700034100168A3699EE80450A2F18005E7695F
:10268000B5FA85F566696D09402A4FEA853543EA52
:1026900007026FF3101142EA060208BF102541EA53
:1026A000DC0142EA0E02236A294341EAD20141EAEF
:1026B000131140F80819C0B2CD2148433C2101EA6A
:1026C0009020E0652046FEF7EBFDE16D012201F070
:1026D0001F0102FA01F141602068404500F381804A
:1026E0009F21C4F20201884214DC5721C4F2020186
:1026F000884227DC1021C4F20201884200F0C78022
:102700002821C4F20201884200F0C1804021C4F2B5
:102710000201B9E040F22741C4F20201884221DC03
:10272000A021C4F20201884200F0B180B821C4F2B5
:102730000201884200F0AB8040F21041C4F2020175
:10274000A2E000BF5821C4F20201884200F09F803D
:102750007021C4F20201884200F099808821C4F2FD
:10276000020191E040F22841C4F20201884200F0E7
:102770008E8040F24041C4F20201884200F087801E
:1027800040F25841C4F202017EE000BF4020D9E689
:10279000032D17D8DFE805F00E0B0E02A3F1C0726F
:1027A000B2FA82F2520904E0032D03D30AD1C3F333
:1027B00000623AB140206065012084F83500BDE830
:1027C000F08100BF41612046FEF76AFDE16D3F22C6
:1027D00001F01F0102FA01F18160206840457FF796
:1027E0007FAF45F22F41C5F60201884216DC40F268
:1027F000B741C4F20201884226DC40F27041C4F2C3
:102800000201884243D040F28841C4F2020188426A
:102810003DD040F2A041C4F2020135E045F26B41E7
:10282000C5F6020188421FDC45F23041C5F60201BF
:1028300088422CD045F24441C5F60201884226D098
:1028400045F258411EE000BF40F2B841C4F2020117
:1028500088421CD045F20841C5F60201884216D0D4
:1028600045F21C410EE000BF45F26C41C5F6020185
:1028700088420CD045F29441C5F60201884206D048
:1028800045F28041C5F60201884240F0E18045F200
:10289000574C45F6FC0EC5F6020CC5F6020E604517
:1028A0000EDC45F22F41C5F60201884218DC45F2E4
:1028B0000841C5F60201884228D045F21C4121E0BA
:1028C00045F27F41C5F60201884213DC45F25841CA
:1028D000C5F60201884219D045F26C4112E000BFF2
:1028E00045F23041C5F6020188420FD045F244411D
:1028F00008E000BF45F29441C5F60201884205D0C8
:1029000045F28041C5F60201884247D100F0FC0142
:102910004CF6CD420839CCF6CC42A1FB0212AEF106
:10292000FC05AEF17C061309A26803F01F01802AA2
:102930004FF0010205EB8305256602FA01F2666697
:10294000A26605D100206060286072601EE000BFB2
:102950006368D9B25F1E072F2960726016D84E1EB9
:10296000082E19D260450EF1440237DC45F22F41A2
:10297000C5F60201884249DC45F20841C5F602016C
:10298000884259D045F21C4152E000BF00206067E8
:10299000C4E91B005CE000BFE06E54E000F0F80109
:1029A0004AF6AB221039CAF6AA22A1FB021240F263
:1029B0000F43C4F2020308251109984203F1AA0645
:1029C0000B4688BF05EB121340F60005B042C4F277
:1029D000020505F1800628BF0B46A5E745F27F41B9
:1029E000C5F6020188421BDC45F25841C5F60201DA
:1029F000884221D045F26C411AE000BF25F0030760
:102A0000742F08BF43F48013F6E500BF45F2304150
:102A1000C5F6020188420FD045F2444108E000BFEC
:102A200045F28041C5F60201884205D045F2944145
:102A3000C5F60201884213D10EEB83000121E06646
:102A4000B1402267616700210160D4E91C01416047
:102A500000206065012184F83510BDE8F08100BFD9
:102A600040F60000C4F2020000F1FC0E00F5A07276
:102A7000E2E7000000000000B0B5044600F0F4F802
:102A800040F204010546C2F20041621C097818BFF9
:102A90000C4400BF00F0E8F8401BA042FAD3B0BDE0
:102AA0002DE9F04F83B00F68002F00F0C98000F1CE
:102AB000264642F2004506F1FF76C5F602050A22D7
:102AC000A8424FEAB62540F2040C08BF092200F1E3
:102AD00020030093082DC5F6000C38BF4FEAB6223C
:102AE000002400264FF0000801920AE008F10108D6
:102AF0000F6837FA08F206F1020604F1040400F048
:102B00009F80012202FA08FE17EA0E09EED0D1F8E2
:102B100004B003220BF00307B2407D1E6FEA020AE5
:102B2000012D11D88268CD6802EA0A02B5402A4315
:102B30008260CBF30015426822EA0E0205FA08F51E
:102B40002A43426004E000BF032F01D103271FE0A6
:102B5000C2688D6802EA0A02B540022F42EA050205
:102B6000C26015D16FF0030204F01C0502EA580B95
:102B7000009A0F2352F80BE0AB400F692EEA0303D3
:102B8000AF403B4342F80B30D1F804B00BF00307E1
:102B9000026807FA06F302EA0A021BF4403F42EA1F
:102BA00003020260A2D044F2F44340F2084EC5F69C
:102BB0000203C5F6000E0F251A6842F002021A60E1
:102BC0001A6802F00202029228F00302029B04F04B
:102BD0000C0352F80E709D40AF43019D05FA03F3BC
:102BE0003B4342F80E304FF0B04EDEF800204B6809
:102BF00042EA0907DD0258BF22EA09079D02CEF822
:102C00000070DCF8002042EA090758BF22EA0907F1
:102C10009D03CCF80070DCF8802042EA090758BF19
:102C200022EA0907DB03CCF88070DCF87C2042EA5A
:102C3000090758BF22EA0907CCF87C7056E700BFA5
:102C400003B0BDE8F08F00000069084018BF012004
:102C50007047000000000000002A08BF09048161DD
:102C6000704700000000000040F2E060C2F2004047
:102C7000006870470000000040F2040040F2E0618C
:102C8000C2F20040C2F2004100780A6810440860B5
:102C9000704700000000000080B5032000F0ACF891
:102CA00001F012F944F2184148F69C23C5F60201DE
:102CB000C0F600030A68C2F303229A5C096801F0B7
:102CC0000F0102F01F02595CD04040F21002C2F224
:102CD000004201F01F0120FA01F1116040F20C01E5
:102CE000C2F2004108600F2000F00AF800281CBF63
:102CF000012080BD00F02CF8002080BD0000000005
:102D0000B0B540F20405C2F200452978F1B104469D
:102D100040F20C00C2F200404FF47A72B2FBF1F1C3
:102D20000068B0FBF1F002F0C7F80F2C01464FF03D
:102D300001000AD8002918BFB0BD4FF0FF300022B3
:102D4000214600F029F800206C60B0BD0120B0BD24
:102D500081B044F2F440C5F60200016841F002017E
:102D60000160006800F002000090009801B0704718
:102D7000002848BF704700F01F01012202FA01F14C
:102D80004EF20012C0F34A10CEF2000242F82010B8
:102D9000704700000000000070B54EF60C5C4FF06C
:102DA000FF36CEF2000C00F1604505F56445DCF815
:102DB0000030C3F3022E8EF00703042B28BF042338
:102DC000BEF1030406FA03F321EA030100F00F0346
:102DD00038BF0024043B0028634406FA04F048BFCF
:102DE00003F10C05A14022EA00000843000128700D
:102DF00070BD0000000000004EF60C514FF6FF03BE
:102E0000CEF200010A681A4060F30A2242F08060A4
:102E100040F0FD7008607047B0B544F60C05C5F68B
:102E2000020529684907296806D401F00701081A34
:102E300018BF0120B0BD00BF21F007010843286082
:102E4000FFF712FF044600BF55F8080C800407D4B2
:102E5000FFF70AFF001BB0F57A7FF5D90120B0BD5E
:102E60000020B0BD0000000080B500F0A5FF44F2D6
:102E7000204148F69C22C5F60201C0F6000209680E
:102E8000C1F30211515C01F01F01C84080BD000078
:102E900080B544F2384EC5F6020E5EF8103C5EF87E
:102EA000101C5EF80C2CC1F3053CDEF80410BCF1DC
:102EB000000F19D0C9089FED3C1AD20601EAE27151
:102EC00003F003026FF35F3100EE101AB8EE400A10
:102ED000DFE802F0022210225EF8381C89060DD4C9
:102EE0009FED331A18E000BF00218160C0E9001196
:102EF00080BD00BF9FED2D1A0EE000BF5EF8381CAC
:102F000049F20002C0F2D032C1F3C10122FA01F14C
:102F100001EE101AB8EE411ADEF800109FED253AC6
:102F20006FF35F2102EE101ADEF80010C1F34621A4
:102F3000B8EE422A013100EE032A00EE10CAB7EEC5
:102F4000003AB8EE400A81EE000A32EE031A20EE93
:102F5000010A01EE101AB8EE411A80EE011ABCEE19
:102F6000C11A80ED001ADEF80010C1F306410131EC
:102F700001EE101AB8EE411A80EE011ABCEEC11A29
:102F800080ED011ADEF80010C1F30661013101EE97
:102F9000101AB8EE411A80EE010ABCEEC00A10EE1B
:102FA000101A816080BD00BF0024744A001BB74B1B
:102FB0000024744C0000003980B544F2404EC5F640
:102FC000020E5EF8183C5EF8181C5EF8142CC1F373
:102FD000055CDEF80410BCF1000F19D0C9089FEDA4
:102FE0003C1AD20501EAE27103F003026FF35F318C
:102FF00000EE101AB8EE400ADFE802F002221022BA
:103000005EF8401C89060DD49FED331A18E000BF0E
:1030100000218160C0E9001180BD00BF9FED2D1A25
:103020000EE000BF5EF8401C49F20002C0F2D03250
:10303000C1F3C10122FA01F101EE101AB8EE411AF2
:10304000DEF800109FED253A6FF35F2102EE101AB3
:10305000DEF80010C1F34621B8EE422A013100EE3D
:10306000032A00EE10CAB7EE003AB8EE400A81EE2D
:10307000000A32EE031A20EE010A01EE101AB8EE31
:10308000411A80EE011ABCEEC11A80ED001ADEF87A
:103090000010C1F30641013101EE101AB8EE411AD9
:1030A00080EE011ABCEEC11A80ED011ADEF80010A4
:1030B000C1F30661013101EE101AB8EE411A80EE3B
:1030C000010ABCEEC00A10EE101A816080BD00BF7C
:1030D0000024744A001BB74B0024744C00000039D4
:1030E0002DE9F0470446C07844F22C480007C5F6A5
:1030F000020828D5606E4FEA305103292AD8DFE84C
:1031000001F0030B131B00BFD8F8001041F400318D
:10311000C8F8001010E000BF04F10800022103F01D
:103120002BFC064680B906E004F12800022103F0DA
:10313000B7FC064640B9606ED8F8241021F440115F
:103140000843C8F8240000266078C00706D1354639
:103150002FE000BF01266078C007F8D0A06D0428DA
:103160003ED83546DFE800F004140E0B0B0000BF1C
:10317000D8F80000354640F40030C8F800002F466B
:10318000C5B90DE004F12800002103F089FC04E03A
:1031900004F10800002103F0EFFB05462F464DB96E
:1031A000D8F82400A16D20F0070000250843C8F8D6
:1031B00024003746607840073AD5D4F8A4004FEA97
:1031C0007050052818D8DFE800F0031D11232323D1
:1031D000D8F8000040F40030C8F8000018E000BF44
:1031E0000125012760784007E7D421E004F1280099
:1031F000002103F055FC0AE0012501266078000754
:103200001AD44FE004F10800002103F0B5FB054695
:103210002E461DB1607800070ED443E0D8F82C008C
:10322000D4F8A41020F4600000250843C8F82C004E
:103230003E466078000735D5D4F8A8004FEA3060E4
:10324000052813D8DFE800F004180C1E1E1E00BF6E
:10325000D8F8000040F40030C8F8000012E000BFC9
:1032600004F12800002103F01BFC0AE001250127DE
:10327000E07880071AD434E004F10800002103F05C
:103280007BFB05462F461DB1E07880070ED428E071
:10329000D8F82C00D4F8A81020F0E06000250843EE
:1032A000C8F82C003746E07880071AD5E06C4FEA62
:1032B0003010032838D8DFE800F009032D0900BFDB
:1032C000D8F8000040F40030C8F800002E464DB990
:1032D000D8F82000E16C20F0300000250843C8F841
:1032E00020003E466078C00639D5E06D4FEA3030A8
:1032F000042847D8DFE800F004221C0A0A0000BFB7
:10330000D8F8000040F40030C8F800002F463DBB5C
:103310001CE000BF04F10800022103F02DFB05466C
:10332000002D2E46DED1D3E701250126DAE700BFC6
:1033300004F12800002103F0B3FB04E004F10800CD
:10334000002103F019FB05462F464DB9D8F824009B
:10335000E16D20F4E04000250843C8F8240037461A
:103360006078800635D5206E4FEA3040052815D8A4
:10337000DFE800F0041A0E04040400BF2E46DDB995
:103380001EE000BF0125012760788006EBD420E015
:1033900004F12800012103F083FB0AE00125012646
:1033A0006078400619D449E004F10800012103F0D7
:1033B000E3FA05462E461DB1607840060DD43DE087
:1033C000D8F82400216E20F4E02000250843C8F836
:1033D00024003E466078400630D5D4F8AC004FEA71
:1033E000307005280ED8DFE800F00313070303034D
:1033F0002F46ADB918E000BF04F12800012103F009
:103400004FFB0AE001250127607800061AD43CE052
:1034100004F10800012103F0AFFA05462F461DB163
:10342000607800060ED430E0D8F82C00D4F8AC1048
:1034300020F0E04000250843C8F82C0037466078AB
:10344000000622D5E06E58B1B0F1005F0CD0B0F1AB
:10345000805F37D1D8F8000040F40030C8F8000091
:103460002E469DB908E000BF04F10800012103F0D9
:1034700083FA05462E464DB9D8F82400E16E20F0B7
:10348000405000250843C8F824003E46E078C007B5
:103490001DD0A06C032855D8DFE800F008024A08C8
:1034A000D8F8000040F40030C8F80000A9467DB903
:1034B000D8F82000A16C20F0030000250843C8F8CC
:1034C000200004E001250126E078C007E1D1B146E3
:1034D000A078400602D44F4618E000BFD8F8D403C5
:1034E00040F48070C8F8D403FFF7BEFB064600BF67
:1034F000D8F8D403C00507D4FFF7B6FB801B6428B7
:10350000F6D90325032701E02F46FDB12078C00737
:1035100000F06F80A06F4FEAF00005284ED8DFE87A
:1035200000F0035347030303002D2E4654D157E008
:1035300004F10800022103F01FFA0546002DA946F8
:10354000C6D1B5E701254FF00109C1E7D8F844100D
:10355000D4F8B000414011F4407F11D0D8F84410A5
:10356000D8F8442042F48032C8F84420D8F84420E7
:1035700021F4407122F48032C8F84420C8F8441085
:10358000B0F5807F40F0D082FFF76EFB064641F237
:10359000883A0325032700BFD8F84400800700F1CC
:1035A000C182FFF761FB801B5045F5D9AEE700BF34
:1035B00004F12800012103F073FA0AE00125012635
:1035C0002078800719D446E004F10800012103F0B7
:1035D000D3F905462E461DB1207880070DD43AE078
:1035E000D8F82800A16F20F0380000250843C8F85B
:1035F00028003E46207880072DD5606F05280FD81B
:10360000DFE800F004140804040400BF2F46ADB93D
:1036100018E000BF04F12800012103F041FA0AE09C
:10362000012501272078400719D447E004F108005C
:10363000012103F0A1F905462F461DB1207840076E
:103640000DD43BE0D8F82800616F20F0070000257A
:103650000843C8F828003746207840072ED5D4F80C
:10366000900005280ED8DFE800F0031307030303DA
:103670002E46ADB918E000BF04F12800012103F087
:103680000FFA0AE001250126207880061AD44BE0C3
:1036900004F10800012103F06FF905462E461DB123
:1036A000207880060ED43FE0D8F82C00D4F8901093
:1036B00020F0070000250843C8F82C003E4620787B
:1036C000800631D5D4F88C004FEA307005280FD829
:1036D000DFE800F004140804040400BF2F46ADB96D
:1036E00018E000BF04F12800022103F0D9F90AE034
:1036F00001250127207840061AD44BE004F1080088
:10370000002103F039F905462F461DB12078400607
:103710000ED43FE0D8F82800D4F88C1020F0E04018
:1037200000250843C8F8280037462078400631D5E0
:10373000D4F898004FEAB02005280FD8DFE800F051
:1037400004140804040400BF2E46ADB918E000BFFD
:1037500004F12800022103F0A3F90AE00125012663
:10376000207800061AD44EE004F10800002103F08E
:1037700003F905462E461DB1207800060ED442E01E
:10378000D8F82C00D4F8981020F4E0500025084315
:10379000C8F82C003E462078000634D5D4F89C00AA
:1037A0004FEA7030052815D8DFE800F0041A0E043F
:1037B000040400BF2F46E5B12068010727D4C106E5
:1037C0003ED4000355D477E004F12800022103F031
:1037D00067F90AE00125012720680107EFD516E007
:1037E00004F10800002103F0C7F80546002D2F461C
:1037F000E2D1D8F82C00D4F89C1020F460400025C9
:103800000843C8F82C00374620680107D7D5D4F8FC
:103810008000B0F5805F09D104F12800022103F097
:103820003FF9002818BF0127D4F88000D8F82810E5
:1038300021F440510843C8F828002068C106C0D5CB
:10384000D4F89400B0F5807F09D104F1280002215A
:1038500003F026F9002818BF0127D4F89400D8F8FF
:103860002C1021F440710843C8F82C002068000394
:1038700022D5D4F8A000B0F5003F11D0B0F5803FBC
:1038800008D0002844D104F10800002103F074F8A6
:1038900005E000BF04F12800022103F001F905460C
:1038A0002E4655B9D8F82C00D4F8A01020F440309A
:1038B00000250843C8F82C003E46A07840072CD5C8
:1038C000D4F88400B0F5401F0BD0B0F5001F0BD02A
:1038D000B0F5801F2AD1D8F8000040F40030C8F8B5
:1038E00000002F46D5B907E004F12800012103F0BC
:1038F000D7F805462F468DB9D8F82800D4F884109B
:1039000020F4401000250843C8F8280005E000BF57
:1039100001250126A0784007D2D43746A078C007F9
:1039200009D13E462168880015D532E001250127DE
:10393000A078C007F5D0206DB0F5803F10D018BB3F
:10394000D8F8000040F40030C8F800002E4685B1D9
:10395000216888001DD460688A0326D465E000BF12
:1039600004F10800022103F007F80546002D2E4659
:10397000EED1D8F82000216D20F4803000250843D6
:10398000C8F82000CDE700BF012501262168880086
:10399000E1D504F12800022103F082F8002818BFC5
:1039A0000126D4E900108A033FD5E26F6FF00103CE
:1039B00003EB3223022B0BD34FEA322343B1012B0B
:1039C00040F0AA80D8F8003043F40033C8F8003043
:1039D00025B3CA022CD48A0234D44A003CD4CA0F7C
:1039E00049D1090251D4C1075AD1810763D4410793
:1039F0006CD4010776D4C10600F18080800607D51B
:103A000004F12800022103F04BF8002818BF01251B
:103A1000002D18BF01252846BDE8F087D8F82830CA
:103A200023F440731A43C8F828203546CA02D2D579
:103A3000D8F82420236F22F000421A43C8F824202B
:103A40008A02CAD5D8F82420A36E22F080721A43C5
:103A5000C8F824204A00C2D558F81C2C22F4004291
:103A600048F81C2CD4F8B42058F81C3C1A4348F8E9
:103A70001C2CCA0FB5D0D8F82020636D22F040521C
:103A80001A43C8F820200902ADD5D8F82810D4F878
:103A9000882021F440011143C8F82810C107A4D0A0
:103AA00004F10800002102F067FF002818BF054656
:103AB000606881079BD504F10800012102F05CFFDA
:103AC000002818BF05466068410792D504F1080038
:103AD000022102F051FF002818BF05466068010767
:103AE0007FF589AF04F12800002102F0D9FF0028FA
:103AF00018BF05466068C1067FF580AF04F1280055
:103B0000012102F0CDFF002818BF0546606880063D
:103B10003FF576AF7CE700BF0125CA027FF55BAFBA
:103B200086E700BFD4F8B0004FF6CF7358F81C2CCE
:103B3000C0F2FF0300F4407122F47C5203EA101338
:103B40006FF31F30B1F5407F08BF1A43002548F8D6
:103B50001C2CD8F844100843C8F84400FFF7BBBC3D
:103B60002DE9F04381B0002800F0208142F20009E5
:103B70000446C5F20029D9F8000000F00F00814288
:103B80000DD9D9F8000020F00F000843C9F8000053
:103B9000D9F8000000F00F00884240F0078120684B
:103BA00044F218464207C5F602060AD52269336870
:103BB00003F070039A4204D9336823F070031A4368
:103BC000326002070AD56269736803F070039A4293
:103BD00004D9736823F070031A437260C2060AD5D1
:103BE000A269736803F4E0639A4204D9736823F40A
:103BF000E0631A43726082060AD5E269B36803F093
:103C000070039A4204D9B36823F070031A43B26078
:103C100010F002020AD0E368376807F00F07BB42D2
:103C200004D9376827F00F073B433360C3073FD001
:103C3000306820F47062D4E901031A43326001282D
:103C400056F8182C0AD0032804D002280AD192036F
:103C50000BD4ABE0920108D4A8E000BFD20504D495
:103C6000A4E000BF520740F1A180884656F8081C26
:103C700021F00701084346F8080CFEF7F5FF05465A
:103C800041F2883756F8080C616800F03800B0EB54
:103C9000C10F09D0FEF7E8FF401BB842F2D903205C
:103CA00001B0BDE8F08300BF2068414600F0020289
:103CB00052B1E268336803F00F039A4204D23368CA
:103CC00023F00F031A433260D9F8002002F00F02EC
:103CD00091420CD2D9F8002022F00F020A43C9F811
:103CE0000020D9F8002002F00F028A425ED141077D
:103CF0000AD52169326802F07002914204D232681A
:103D000022F070021143316001070AD561697268BF
:103D100002F07002914204D2726822F070021143E4
:103D20007160C1060AD5A169726802F4E06291422D
:103D300004D2726822F4E0621143716080060AD5F1
:103D4000E069B16801F07001884204D2B16821F0E5
:103D500070010843B06000F0B7F8316848F69C2263
:103D6000C0F60002C1F30321515C336803F00F0376
:103D700001F01F01D25C20FA01F102F01F0040F2B5
:103D80001002C2F2004221FA00F0106040F2080076
:103D900040F20C02C2F20040C2F200420068116020
:103DA00001B0BDE8F043FEF7ABBF00BF012001B09A
:103DB000BDE8F0830000000080B500F085F844F213
:103DC000184148F69C23C5F60201C0F600030A68B4
:103DD000C2F303229A5C096801F00F0102F01F028E
:103DE000595C20FA02F201F01F0040F21001C2F209
:103DF000004122FA00F0086040F20C01C2F20041DA
:103E00000A6080BD0000000080B500F05DF844F25B
:103E1000184C48F69C23C5F6020CC0F60003DCF8EB
:103E20000020C2F303229A5CDCF8001001F00F01BD
:103E300002F01F02595CD04040F21002C2F2004270
:103E400001F01F0120FA01F1116040F20C02C2F2F0
:103E500000421060DCF80400C0F30210185C00F0AF
:103E60001F0021FA00F080BD80B500F02DF844F26B
:103E7000184C48F69C23C5F6020CC0F60003DCF88B
:103E80000020C2F303229A5CDCF8001001F00F015D
:103E900002F01F02595CD04040F21002C2F2004210
:103EA00001F01F0120FA01F1116040F20C02C2F290
:103EB00000421060DCF80400C0F30220185C00F03F
:103EC0001F0021FA00F080BD44F20041C5F6020156
:103ED0000869C0F3C200032816D002280ED00028BB
:103EE00032D10868800649F20000C0F2D03058BFD5
:103EF00070470968C1F3C101C840704743F20060D0
:103F0000C0F26E10704700BF8B6A886AD1F82CC06F
:103F10004A6BC0F30510E8B1C2F3CC0203F003030F
:103F200000EE102A9FED2A1AB8EE400A20EE010A90
:103F30009FED281ADFE803F0022110210A6892069B
:103F40000ED49FED261A18E040F60010C0F23D0096
:103F5000704700BF002070479FED1F1A0DE000BFA3
:103F60000A6849F20003C0F2D033C2F3C10223FA57
:103F700002F201EE102AB8EE411A0A6B9FED183AD0
:103F80006FF35F2202EE102A5FEACC7203FE000A92
:103F900003EE100A086BB8EE422AC0F34620B8EED2
:103FA000433A013030EE020AB7EE002A81EE031ADE
:103FB00030EE020A21EE000A01EE100AB8EE411AB4
:103FC00080EE010ABCEEC00A10EE100A704700BF76
:103FD000000000390024744A001BB74B0024744CC5
:103FE000000000000000000070B3F0B581B004468E
:103FF000007844F20046C007C5F6020626D12078B4
:1040000080076AD5306910F03801B06A42D01829AB
:1040100008BF5FEA80703DD0E0683168002800F09A
:104020002D8121F0190108433060FEF71DFE054681
:10403000306840074AD4FEF717FE401B0228F7D924
:10404000032001B0F0BD00BF01207047306900F0CF
:104050003801B06A102905D018290BD100F00300EF
:10406000022807D130688003C9D560680028C6D10E
:10407000AAE000BF61683068002900F03981B1F51D
:10408000A02F00F02D81B1F5803F40F0478140F432
:10409000803049E130684007E06802D5002800F030
:1040A0009380316821F0190108433060FEF7DCFD90
:1040B000054600BF3068400708D4FEF7D5FD401B19
:1040C00002284FF00300F5D901B0F0BD70682169F6
:1040D00020F0FE4040EA016070602078C0061AD5EA
:1040E000306900F03801B06A082907D0182940F07B
:1040F000858000F00300012840F080803068C00512
:1041000002D5E06980285FD1F068216A20F07C50F8
:1041100040EA0160F060207800073FD420788006F4
:1041200056D42078400700F18180656A9DB33069DC
:1041300000F03800182840F01981012DB16A306B69
:1041400042D001F00302A36A9A423DD1C1F30511A6
:10415000E26A914238D10146226B6FF35F21013A46
:10416000914231D1C0F34622616B01398A422BD191
:10417000C0F30642A16B01398A4225D1C0F3066023
:10418000E16B013988421FD1706BA16CC0F3CC0088
:10419000814240F0A581002001B0F0BD6069002897
:1041A000706F59D040F001007067FEF75DFD054665
:1041B000706F8007B2D4FEF757FD401B0228F7D975
:1041C000032001B0F0BD00BF012001B0F0BD00BF71
:1041D000A0690028306871D040F480503060FEF74C
:1041E00043FD0546306880049BD4FEF73DFD401B2F
:1041F0000228F7D9032001B0F0BD00BFE069002814
:10420000306800F0A18040F080003060FEF72CFDA7
:10421000054600BF3068C0053FF576AFFEF724FDC8
:10422000401B02284FF00300F4D94DE7D6F80004F4
:1042300040F48070C6F80004FEF716FD054600BF86
:10424000D6F80004C0052BD4FEF70EFD401B6428F1
:10425000F6D9032001B0F0BD20F001007067FEF731
:1042600003FD0546706F80077FF558AFFEF7FCFC35
:10427000401B02284FF00300F4D925E721F001008C
:104280003060FEF7F1FC0546306840077FF525AF4A
:10429000FEF7EAFC401B02284FF00300F4D913E7B5
:1042A000A168306F002900F08B80052900F0808024
:1042B000012940F09D8040F001009FE020F48050F3
:1042C0003060FEF7D1FC0546306880047FF529AFE9
:1042D000FEF7CAFC401B02284FF00300F4D9F3E6B6
:1042E00040F480203060306840F480301CE000BF33
:1042F00020F480303060306820F480203060FEF799
:10430000B3FC0546306880037FF579AEFEF7ACFC60
:10431000401B64284FF00300F4D9D5E620F4803028
:104320003060306820F480203060FEF79DFC054648
:10433000306880033FF563AEFEF796FC401B6428AF
:10434000F6D9032001B0F0BD20F080003060FEF708
:104350008BFC05463068C0057FF5DDAEFEF784FCBA
:10436000401B02284FF00300F4D9ADE6306820F07E
:1043700080703060FEF778FC022D05460CD100BF3E
:10438000306880014CD5FEF76FFC401B02284FF0CF
:104390000300F5D998E600BF306880017FF5FBAED9
:1043A000FEF762FC401B02284FF00300F4D98BE6B5
:1043B00040F004003067306F40F001001EE000BFA5
:1043C00020F001003067306F20F004003067FEF706
:1043D0004BFC054641F28837306F80077FF5A5AE6C
:1043E000FEF742FC401BB8424FF00300F4D96BE6E5
:1043F00020F001003067306F20F004003067FEF7D6
:1044000033FC054641F28837306F80073FF58DAEAB
:10441000FEF72AFC401BB8424FF00300F4D953E6E4
:1044200004F12807B06A40F2F33188438ECF084385
:10443000591E40EA02104FF47E426FF35F21B062D2
:1044400002EB47204FF4FE0280B2E36B0844A16BFD
:1044500002EB01414FF0FE4201F4FE0102EB036268
:10446000084402F0FE4108443063F06A4FF6F871E8
:1044700020F00100F062706BA26C884340EAC20039
:104480007063F06A216C20F00C000843F062F06A5F
:10449000616C20F002000843F062F06A40F4803062
:1044A000F062F06A40F40030F062F06A40F480207C
:1044B000F062F06A40F00100F062306840F0807015
:1044C0003060FEF7D1FB0446306880013FF563AEF3
:1044D000FEF7CAFB001B02284FF00300F4D9F3E5F6
:1044E000F06A20F00100F062FEF7BEFB0546FEF721
:1044F000BBFBA842FBD0706B4FF6F871A26C8843EF
:1045000040EAC2007063F06A40F00100F0620020EF
:1045100001B0F0BD00000000704700000000000086
:1045200070B501680B694E698A6890F8815034054E
:104530000AD513F0080407D08A6942F400628A6140
:10454000BDE8704000F0A8BA1E4006F06403042BDA
:1045500008D1416F04468847216F2046BDE870406E
:10456000084700BF06F04503012B09D1016F04463F
:10457000884706F022012046022905D070BD00BF01
:1045800006F02603022B03D1416FBDE870400847B7
:10459000330711D416F4587FF0D0710660D4B105FA
:1045A0006BD4F10577D4B10600F18380D0F8841084
:1045B000002940F08E80E1E70268936943F0080328
:1045C0009361936943F010039361936943F400632B
:1045D0009361136923F008031361926812F4404F4A
:1045E00019D0044602F0F8FA012184F88110D4F8B9
:1045F000841039B32046BDE87040FFF78DBF00BF7F
:104600000368426E1B6B42F8043B4266B0F86A20B6
:10461000013AA0F86A20B0F86A20002AE1D0C26806
:10462000102AEDD2082A05D30B8E426E22F8023BE7
:10463000EBE700BF026892F83020436E1A70426EBA
:104640000132E2E7032D00F08D80042D00F084801C
:10465000052D7FF493AF2046BDE8704000F028BCE4
:104660000168D0F8843043F00403C0F884308B69CB
:1046700043F040038B61B10593D50168D0F88430D5
:1046800043F00103C0F884308B6943F400738B61FD
:10469000F1057FF588AF0168D0F8843043F0080356
:1046A000C0F884308B6943F480738B61B1067FF569
:1046B0007DAF0168D0F8843043F08003C0F88430C7
:1046C0008B6943F020038B61D0F8841000293FF4FC
:1046D00055AF016802F4404240F26B36B2F5404FEC
:1046E0000B6823F001030B600B6923EA06020A61E1
:1046F0002AD18A6846F6A94422F440428A60C16FF2
:10470000C0F6000469B1054608460C65FDF7FCF8E3
:104710000146284629B1D0F8841041F04001C0F884
:104720008410816F00293FF429AF0C6504460846C8
:10473000FDF7EAF8002808BF70BDD4F8840040F007
:104740004000C4F8840070BD012180F88110BDE8EC
:104750007040FFF7E1BE00BF2046BDE8704000F0AA
:1047600097B900BF2046BDE8704000F09DBB000037
:1047700000284DD02DE9F04F81B043F600040168C8
:10478000C4F2000443F2000E43F6004CA142C4F20E
:10479000010EC4F2000C4FF00002826203D06145AA
:1047A00018BF714542D1C26B0125C368A14203F114
:1047B000080305EB52124FEAD30303FB02F218BFC2
:1047C000714527D1102A34D890F8811031B90021D1
:1047D00080F88010044600F0ABF82046022180F8F3
:1047E0008110D0E90019D0F818800D68B8F1806FF9
:1047F00025F001050D608D6805F4F81E26D1B9F18C
:10480000000F1BD0B9F5800F20D1856B25BB19E0B7
:1048100001207047614518BF082A0AD80CF5744377
:104820009942CFD06145CDD0CEE700BFC2680F2AF4
:10483000B9D9012001B0BDE8F08F00BF856BB5F19B
:10484000805F06D10D6845F480550D605FEA49250B
:1048500002D44FF0010C0FE0C468072C0AD30D6896
:1048600025F4807C056D45EA0C050D604FF0000CC9
:1048700007E000BF4FF0000C0C6824F480740C605B
:10488000C468C769836A47EA0E07C26B3B438768FF
:104890001A43B9F1000FD0E904BA42EA04028A606F
:1048A000426B856B436A42EA0302036A42EA0502ED
:1048B00042EA0B0242EA0A02D0E9126442EA030227
:1048C000836D42EA040242EA070242EA060242EA31
:1048D000030242EA080242EA0902CA600ED00A6DE7
:1048E000BCF1000F22F001020A6515D1CA68436DC0
:1048F00022F000421A43CA600EE000BF8A6801231A
:1049000063F3CC228A608A68022363F34A228A60B6
:104910000A6D22F001020A650021C0F8841001210D
:1049200080F88110002001B0BDE8F08F0000000089
:104930002DE9F04FB5B0044602A80830B02100259B
:104940003095CDE93355CDE93155FBF725FD43F6DB
:1049500000012068C4F20001884203D035B0BDE8F0
:10496000F08F00BF4FF48050029002A80395FEF72D
:10497000B7FB08B1FCF72CFD44F2E04040F20045E3
:10498000C5F60200C5F6020530AE40F21008816897
:10499000C4F2020841F48041816081684FF002094D
:1049A00001F4804101910199016841F00401016025
:1049B0000168002701F0040101910199016841F0AB
:1049C000020101600068314600F002000190019888
:1049D0000620309005F58060CDF8C4904FF0030AB2
:1049E00032974FF0050BCDF8CCA0CDF8D0B0FEF744
:1049F00057F84FF400503146CDE9300932A880E82D
:104A0000800C2846FEF74CF840F224152720C2F20D
:104A100000454FF48066C5E901074FF44030C5F802
:104A20000080C5E908072846EF60C5E90467C5E9C5
:104A30000677FDF7D1FC08B1FCF7CAFCE56708F181
:104A40001800AC6340F29C15C2F200452860282093
:104A500068604020C5E902074FF40030C5E9080747
:104A60002846C5E90467C5E90677FDF7B5FC08B136
:104A7000FCF7AEFC242005210022A567AC63FEF7FD
:104A80008BF92420FEF774F935B0BDE8F08F0000F3
:104A900070470000000000007047000000000000A8
:104AA0002DE9F047044690F88000012802D1022049
:104AB000BDE8F0879A4615460F46D4F800900120CD
:104AC00084F88000FEF7D0F894F8811001290BD10A
:104AD00027B1002D18BFBAF1000F0BD1002084F8C8
:104AE00080000120BDE8F087002084F880000220CB
:104AF000BDE8F0878046052084F881000021C4F8D5
:104B000084104FF6FF736566A4F86AA0A4F868A045
:104B1000E765A4F862A0D4E90002A4F860A0B2F5A9
:104B2000800F21676167C16821F4C021C1604168BD
:104B300021EA030151444160016841F00101016033
:104B400003D1016841F400710160E068089D1028FC
:104B500038D3681C00F0BE8048F20807564606E0CD
:104B6000FEF782F8A0EB0800A84280F0A1805AEA84
:104B7000060000F06D812068BAF1000F416918BF8E
:104B800011F002010BD0E16D51F8042B0262E165D6
:104B9000B4F862100139A4F86210B4F862A0416957
:104BA000394218BF002EDBD0006B616E41F8040B58
:104BB0006166B4F86A000138A4F86A00B4F86A6063
:104BC000CEE700BF072837D9681C00F0C1805646E1
:104BD00006E000BFFEF748F8A0EB0800A84267D245
:104BE0005AEA060000F034812068BAF1000F4169EA
:104BF00018BF11F002010CD0E16D31F8022BA9F8B9
:104C00002020E165B4F862100139A4F86210B4F80C
:104C100062A04069C00718BF002EDBD0B9F8300091
:104C2000616E21F8020B6166B4F86A000138A4F8DD
:104C30006A00B4F86A60CDE7681C00F0C980574686
:104C400006E000BFFEF710F8A0EB0800A8422FD244
:104C50005AEA070000F0FC802068BAF1000F4169B1
:104C600018BF11F002010ED0E16D097880F8201014
:104C7000E06D0130E0652068B4F862100139A4F8F5
:104C80006210B4F862A04169C90718BF002FD9D0DB
:104C900090F83000616E0870606E01306066B4F8A4
:104CA0006A000138A4F86A00B4F86A70CAE700BF65
:104CB000204601F091FF002084F88000D4F88400A1
:104CC00040F48070C4F88400012084F8810003203F
:104CD000BDE8F087012048F20807012256460FE0A0
:104CE000FDF7C2FF46EA0A0132465046002E18BFC1
:104CF0000122BAF1000F18BF0120002900F0A8809E
:104D00002168D2074A6918BF12F002020BD0E26D87
:104D100052F8043B0B62E265B4F86220013AA4F851
:104D20006220B4F862604A693A4018BF012210401C
:104D30000128D5D1086B616E41F8040B6166B4F8A7
:104D40006A000138A4F86A00B4F86AA0C8E700BF96
:104D50000120012256460EE0FDF786FF46EA0A01D1
:104D600032465046002E18BF0122BAF1000F18BF7C
:104D7000012000296CD02168D2074A6918BF12F0BF
:104D8000020205D149690840C007E5D011E000BF23
:104D9000E26D32F8023BA9F82030E265B4F86220F7
:104DA000013AA4F86220B4F8626049690840C0077B
:104DB000D2D0B9F83000616E21F8020B6166B4F808
:104DC0006A000138A4F86A00B4F86AA0C4E700BF1A
:104DD0000120012257460DE0FDF746FF47EA0A0190
:104DE0003A465046002F18BF0122BAF1000F18BFF3
:104DF000012069B32168D2074A6918BF12F0020284
:104E000004D14A691040C007E6D012E0E26D127882
:104E100081F82020E16D0131E1652168B4F862205C
:104E2000013AA4F86220B4F862704A691040C007E1
:104E3000D2D091F83000616E0870606E013060660B
:104E4000B4F86A000138A4F86A00B4F86AA0C3E7AD
:104E5000681C13D020684069000713D4FDF704FFD5
:104E6000A0EB0800A842F5D3D4F8840040F020005D
:104E7000C4F8840006E000BFFDF7F6FE2068406934
:104E80000007F9D5204601F0A7FE002084F8800035
:104E9000012084F88100D4F88400002818BF012084
:104EA000BDE8F0870000000070470000000000002F
:104EB0007047000000000000411E0020B0EB116FA1
:104EC00002D00120704700BF4EF21002F023CEF254
:104ED000000251604EF62351CEF200010B70072103
:104EE000906011607047000090F83C20012A4FF05C
:104EF000020266D0B0B580F83D2040F2004C026856
:104F0000C4F2010C42F4806363455368D2F808E0B0
:104F100002BF23F470034C6823434DF6FF740D6801
:104F2000C4F2000423F07003A24243EA0503536075
:104F300014DC40F2FF73C4F200039A4222DD40F613
:104F40000003C4F200039A422ED040F60043C4F29C
:104F500000039A4228D041F6000321E04FF6FF7388
:104F6000C4F200039A4213DD0023C4F201039A4203
:104F70001AD044F20003C4F201039A4214D06245ED
:104F800012D016E0B2F1804F0ED040F2004307E09D
:104F90004EF20003C4F200039A4205D04EF20043E1
:104FA000C4F200039A4204D12EF0800389681943A9
:104FB00091600022012180F83D1080F83C20BDE87E
:104FC000B04010467047000060B310B5044690F83A
:104FD0003D0028B9002084F83C00204600F024F869
:104FE000022084F83D002068211D01F075FF01209A
:104FF00084F8480084F83E0084F83F0084F84000BC
:1050000084F8410084F8420084F8430084F84400A6
:1050100084F8450084F8460084F8470084F83D0091
:10502000002010BD0120704780B586B000220068C6
:10503000C4F20102002190420591CDE903110291D1
:10504000019101D006B080BD44F2E040C5F60200F7
:10505000026942F001020261026902F0010200925B
:10506000009A026842F010020260006800F010002E
:10507000009000984FF4085001900220CDE9020101
:105080000120059041F200000491C5F6020001A93B
:10509000FDF706FD06B080BD90F83C30012B01D134
:1050A000022070474FEAB202032A00F29980F0B55D
:1050B000DFE802F0026E2E4E0368D1F80CE0D1E971
:1050C00000C41A6A4DF6FF7522F001021A621A46F0
:1050D000C4F20005AB4252F8186F1D6A00F38680D7
:1050E00040F2FF77C4F20007BB4240F3958040F6E0
:1050F0000007C4F20007BB4200F0A08040F6004762
:10510000C4F20007BB4200F0998041F6000791E02D
:105110000768D1E900C5D1E9023161F307153A6AA0
:1051200022F480723A623A4652F81C4F3E6A24F0EA
:10513000F30426F4206645EA04010CF00A05116028
:1051400046EA05213962116821F00C01116086E000
:1051500003684FF2FF0ED1E90076D1E902C11A6A65
:10516000360222F480521A621A4626EA0E0661F3CB
:105170000F3607F00A0752F81C4F1D6A24F47344D7
:1051800046EA040125F42046116046EA07311EE094
:1051900003684FF2FF0ED1E90076D1E902C11A6A25
:1051A000360222F010021A621A4626EA0E0661F34F
:1051B0000F3607F00A0752F8184F1D6A24F473449B
:1051C00046EA040125F0A006116046EA07111962BB
:1051D0004FEA0C23116821F4406111603FE000BFE9
:1051E0000121002280F83C20084670474FF6FF77E7
:1051F000C4F20007BB4215DD0027C4F20107BB4221
:105200001CD044F20007C4F20107BB4216D040F2A2
:105210000047C4F201070FE0B3F1804F0ED040F217
:10522000004707E04EF20007C4F20007BB4205D07A
:105230004EF20047C4F20007BB421BD126F0030622
:10524000344325F00A070CF00A066EF307149C613C
:1052500037441F629F6927F00C079F618B681168B4
:10526000194311600021BDE8F040002280F83C2085
:105270000846704746F00104E3E700000000000024
:1052800060B310B5044690F83D0028B9002084F8BA
:105290003C00204600F024F8022084F83D002068FD
:1052A000211D01F019FE012084F8480084F83E0019
:1052B00084F83F0084F8400084F8410084F84200FC
:1052C00084F8430084F8440084F8450084F84600DC
:1052D00084F8470084F83D00002010BD012070478D
:1052E000704700000000000080B5C9B10B1F4FF0EF
:1052F0003F0C4FEAB30E4322BEF1040F38BF0CEB54
:10530000B302825C012A13D1BEF1030F1ED8DFE87D
:105310000EF00319111500BF022280F83F2018E09B
:1053200090F83E20012A03D1022280F83E2010E0AE
:10533000012080BD022280F841200AE0022280F88C
:10534000422006E0022280F8402002E0022280F89B
:105350004320026801F01F00012101FA00F0116AE8
:10536000814311624EF2FF31C4F200018A42116A98
:1053700040EA0100106215DC40F6FF30C4F2000084
:10538000824227DCB2F1804F4ED040F20040C4F29E
:105390000000824248D040F60000C4F20000824281
:1053A00042D053E043F6FF700021C4F20100C4F282
:1053B0000101824244F20000C4F201001EDC4EF200
:1053C0000043C4F200039A422ED08A4224D040F215
:1053D00000431DE040F60040C4F20000824223D0AA
:1053E00041F60000C4F2000082421DD04EF20000DF
:1053F000C4F20000824217D028E000BF82420BD0E6
:1054000044F60003C4F201039A4205D044F200437B
:10541000C4F201039A4219D1536C8A4243F4004109
:10542000516418BF82420BD107219068C0F201017C
:1054300001400020062918BFB1F5803F06D180BD8C
:1054400040F20040C4F201008242EDD0106840F00A
:1054500001001060002080BDB0B5044690F83C000B
:1054600001284FF0020008BFB0BD012584F83C5070
:1054700084F83D00204601F0EBFD00284FF00100CC
:1054800006D084F83D50002184F83C10B0BD00BF28
:105490002068C16821F04001C160C16821F48041E9
:1054A000C160002084F83D50002184F83C10B0BD5C
:1054B00090F88410012901D1022070472421C0F8FE
:1054C000881001680A680B6822F0005223F001037B
:1054D0000B60002343660A602021C0F8881080F822
:1054E000843000207047000070470000000000007A
:1054F000704700000000000090F88420012A01D1CC
:105500000220704770B52422C0F888200268D0F8C5
:1055100064E0BEF1000FD2F800C0136823F001036D
:105520001360936823F0606341EA0301916019D02E
:10553000916848F6C82E9368C0F6000E5B0F48F6D7
:10554000D025C1F34266C0F600051EF80340E95CB1
:105550002301B3FBF1F11EF80630AE5D1B01B3FB76
:10556000F6F301E001210123A0F86A102021A0F840
:105570006830C2F800C0C0F88810002180F884109C
:10558000002070BD0000000090F88420012A01D1A5
:105590000220704770B52422C0F888200268D0F835
:1055A00064E0BEF1000FD2F800C0136823F00103DD
:1055B0001360936823F0604341EA0301916019D0BE
:1055C000916848F6C82E9368C0F6000E5B0F48F647
:1055D000D025C1F34266C0F600051EF80340E95C21
:1055E0002301B3FBF1F11EF80630AE5D1B01B3FBE6
:1055F000F6F301E001210123A0F86A102021A0F8B0
:105600006830C2F800C0C0F88810002180F884100B
:10561000002070BD00000000704700000000000086
:10562000704700000000000070470000000000000C
:1056300070B5016840F62F02CB691A40202A0A682B
:105640008E680BD102F0200406F080552D1917D07A
:10565000416F69B3BDE87040084700BF40F60F05D1
:105660002B420DD0012540F22014C1F20005C0F2FA
:10567000004406EA050C02EA040515EB0C0525D1E9
:10568000DD06C46E16D5012C14D112F0100511D010
:1056900010220A628968490666D4B0F85C10B0F836
:1056A0005E20B0F85E30002B18BF914240F05C8263
:1056B00070BD00BFDD0215D516F4800512D04FF481
:1056C00080120A62BDE87040FFF7AABFDD0718BF6D
:1056D00012F4807540F01E819D0706F0010E00F166
:1056E00025812EE1190606D502F0800106F4000698
:1056F000891940F0BF82590640F1008112F0400143
:1057000000F0FC80016851E8001F026821F04001B0
:1057100042E80013F3B1016851E8001F026821F06C
:10572000400142E80013002B1FBF016851E8001F31
:10573000026821F040011CBF42E80013002B09D091
:10574000016851E8001F026821F0400142E800139F
:10575000002BD7D12021C0F8881000218167BDE837
:10576000704000F091BB00BFD0F880100A6852680A
:1057700093B2002B9CD0B0F85C60B34298D2A0F8F2
:105780005E20C969B1F5807F00F0AC80016851E806
:10579000001F026821F4807142E80013F3B1016830
:1057A00051E8001F026821F4807142E80013002BC9
:1057B0001FBF016851E8001F026821F480711CBFFF
:1057C00042E80013002B09D0016851E8001F02686D
:1057D00021F4807142E80013002BD7D1016851E811
:1057E000021F026821F0010142E80213F3B10168CF
:1057F00051E8021F026821F0010142E80213002B68
:105800001FBF016851E8021F026821F001011CBF9F
:1058100042E80213002B09D0016851E8021F026818
:1058200021F0010142E80213002BD7D1016851E8B1
:10583000021F026821F0400142E80213F3B101683F
:1058400051E8021F026821F0400142E80213002BD8
:105850001FBF016851E8021F026821F040011CBF10
:1058600042E80213002B09D0016851E8021F0268C8
:1058700021F0400142E80213002BD7D12021C0F8CB
:105880008C100021C166016851E8001F026821F0F8
:10589000100142E80013F3B1016851E8001F0268EB
:1058A00021F0100142E80013002B1FBF016851E8EE
:1058B000001F026821F010011CBF42E80013002BFA
:1058C00009D0016851E8001F026821F0100142E888
:1058D0000013002BD7D1D0F8801004460846FBF700
:1058E0007FFD204602210167B0F85C10B0F85E2011
:1058F000891A89B2BDE87040FFF7F6BD190240F180
:10590000C58112F0804100F0C181BDE87040FFF711
:1059100083BE00BF01250D62D0F8905045F001050F
:10592000C0F890509D0706F0010E0AD5BEF1000F99
:1059300007D002240C62D0F8904044F00404C0F870
:1059400090405C070AD5BEF1000F07D004250D6218
:10595000D0F8905045F00205C0F890501D070CD5C6
:1059600002F0200555EA0C0507D008250D62D0F895
:10597000905045F00805C0F890501D050BD512F069
:10598000806508D04FF400650D62D0F8905045F066
:105990002005C0F89050D0F89050002D3FF488AE0C
:1059A0009B060BD502F0200206F08053D21805D0DA
:1059B000426F1AB10446904720462168D0F89020E3
:1059C000896801F0400102F02802891806D10446D6
:1059D000FFF72AFE0020C4F8900070BD016851E86E
:1059E000001F026821F4907142E80013F3B10168CE
:1059F00051E8001F026821F4907142E80013002B67
:105A00001FBF016851E8001F026821F490711CBF9C
:105A100042E80013002B09D0016851E8001F02681A
:105A200021F4907142E80013002BD7D14FF6FE719C
:105A3000CEF6FF71026852E8022F03680A4043E87D
:105A40000226DEB1026852E8022F03680A4043E8EA
:105A50000226002E1FBF026852E8022F03680A4088
:105A60001CBF43E80226002E08D0026852E8022F2D
:105A700003680A4043E80226002EDBD1C16E0129EB
:105A800027D1016851E8001F026821F0100142E8A7
:105A90000013F3B1016851E8001F026821F0100102
:105AA00042E80013002B1FBF016851E8001F026885
:105AB00021F010011CBF42E80013002B09D001683F
:105AC00051E8001F026821F0100142E80013002B8A
:105AD000D7D12021C0F88C100021C166026841672F
