:020000040800F2
:1000000000200024E102000811C60008D9BA000847
:1000100009C60008C149000831E6000800000000D8
:1000200000000000000000000000000031CB0008CC
:10003000214B00080000000019C60008B1D00008DC
:10004000FB020008FB020008FB020008FB0200089C
:10005000FB020008FB020008FB020008FB0200088C
:10006000FB020008FB020008FB020008E14A00084E
:10007000F14A0008FB020008014B0008114B000880
:10008000FB020008FB020008FB020008FB0200085C
:10009000FB020008FB020008FB020008FB0200084C
:1000A000FB020008FB020008FB020008FB0200083C
:1000B000FB020008FB020008FB020008FB0200082C
:1000C000FB020008FB020008FB020008FB0200081C
:1000D000F1C9000821E60008FB020008FB02000845
:1000E000294B0008FB02000800000000FB0200088A
:1000F000FB020008FB020008FB020008FB020008EC
:10010000FB020008FB020008FB020008FB020008DB
:10011000FB020008FB020008FB020008FB020008CB
:10012000FB020008FB020008FB020008FB020008BB
:10013000FB020008FB020008FB020008FB020008AB
:1001400000000000000000000000000000000000AF
:10015000FB020008FB020008FB020008FB0200088B
:10016000FB020008FB020008FB020008FB0200087B
:10017000FB020008FB020008FB0200080000000070
:10018000FB020008FB02000821D20008FB02000865
:10019000FB020008FB020008FB020008FB0200084B
:1001A000FB020008FB020008FB0200080000000040
:1001B000FB020008FB020008FB020008FB0200082B
:1001C000FB020008FB020008000000000000000025
:1001D0000000000000000000FB020008000000001A
:1001E000000000000000000000000000000000000F
:1001F0000000000000000000FB020008FB020008F5
:10020000FB020008FB02000800000000FB020008DF
:10021000FB020008FB020008FB020008FB020008CA
:10022000FB02000800000000FB02000800000000C4
:10023000FB020008FB02000800000000FB020008AF
:10024000FB020008FB020008FB020008FB0200089A
:10025000FB020008FB020008FB020008FB0200088A
:10026000FB020008FB020008FB020008FB0200087A
:10027000FB020008FB020008FB020008000000006F
:10028000FB020008FB020008FB020008FB0200085A
:1002900000000000FB020008FB0200080000000054
:1002A00000000000FB020008FB020008FB0200083F
:1002B00011E60008FB020008FB020008FB02000830
:1002C000FB020008FB020008FB020008DFF80CD06C
:1002D00000F068FA00480047890001080020002467
:1002E0000648804706480047FEE7FEE7FEE7FEE7D0
:1002F000FEE7FEE7FEE7FEE7FEE7FEE771D1000856
:10030000CD0200082DE9F05F0546002092469B468D
:1003100088460646814640241BE02846414647461B
:10032000224600F077F853465A46C01A914110D33E
:1003300011461846224600F05EF82D1A67EB0108B8
:100340004F4622460120002100F055F817EB000926
:100350004E41201EA4F10104DFDC484631462A4606
:100360004346BDE8F09F10B5431A934209D2831863
:10037000881803E010F8011D03F8011D521EF9D280
:1003800010BD40EA01039B0703D009E008C9121F12
:1003900008C0042AFAD203E011F8013B00F8013B3F
:1003A000521EF9D210BDD2B201E000F8012B491E55
:1003B000FBD270470022F6E710B513460A46044602
:1003C0001946FFF7F0FF204610BD30B50B46014639
:1003D00000202022012409E021FA02F59D4205D3E4
:1003E00003FA02F5491B04FA02F52844151EA2F18E
:1003F0000102F1DC30BD202A04DB203A00FA02F1D0
:10040000002070479140C2F1200320FA03F3194302
:1004100090407047202A04DB203A21FA02F00021A4
:10042000704721FA02F3D040C2F120029140084304
:10043000194670472DE9FE4F804681EA0300C00F40
:100440000C46009021F0004123F00045B8EB02007B
:10045000A94105D24046214690461C460B4602461D
:1004600023F00040104347D0270DC7F30A00C3F321
:100470000A510290401A019040286BDAC3F313002E
:1004800040F4801B0098924620B10023D2EB030A6F
:1004900063EB0B0B01985946C0F140025046FFF741
:1004A000AAFF06460D4650465946019A00F08CF9BF
:1004B00010EB08006141002487EA115284EAE773D7
:1004C0001A4340D0009A62B3019A012A4FEA0752B8
:1004D00015DC001B61EB02014FF0004202EA0752FB
:1004E000CDE90042001C41F5801132462B4600F058
:1004F0008CF903B0BDE8F08F40462146F9E7001BB8
:1005000061EB0201001C41F5801300185B412018CB
:10051000A2F5001747EB030140EAD570B6196D410B
:1005200011E06D084FEA360645EAC0754FEA0752FA
:10053000001B61EB0201001C41F5801149084FEAE4
:1005400030000019514132462B4603B0BDE8F04F50
:1005500000F04CB90098012240000023D0EB0202C9
:1005600063EBE073009821464FEAE074B8EB0000BB
:1005700061EB0401E9E783F000435BE781F00041B0
:1005800058E72DE9FE4F81EA030404F0004421F00E
:10059000004100944FF0000B23F0004350EA0104A7
:1005A0005ED052EA03045BD0C3F30A54C1F30A5588
:1005B0002C44A4F2F3340194A0FB0254C1F31301C0
:1005C00041F48011C3F3130343F4801301FB02448D
:1005D00000FB034E840A970A44EA815447EA835792
:1005E000A4FB076802958D0A05FB07854FEA932C4B
:1005F00004FB0C542705029D4FEA065847EA1637BC
:10060000B5EB08056EEB070C870E920E47EA8117D3
:1006100042EA8312A7FB0201B6EB0B0164EB000474
:100620002B0D43EA0C335E1844EB1C50DA4651465E
:10063000E7FB0201C5F313044FEA0B3343EA1453FB
:100640004FEA0432019C43EA0603A4F10C0402942D
:10065000009CCDE900B400F0D8F803B0BDE8F08FFD
:1006600000200146F9E72DE9F04D81EA030404F08A
:10067000004B21F0004514464FF0000A23F00041E2
:1006800050EA050220D054EA01021DD0C5F30A57F2
:100690000246C5F31303C1F31300C1F30A5640F435
:1006A000801543F48013A7EB0608101BD64608F20A
:1006B000FD3873EB050002D308F1010801E0921840
:1006C0005B41B8F1000F03DA00200146BDE8F08D70
:1006D00000204FF48011064684460EE0171B73EB92
:1006E000050705D3121B63EB050306434CEA010C17
:1006F00049084FEA300092185B4150EA0107EDD1FA
:1007000052EA030012D082EA040083EA050108439A
:1007100005D0101BAB4106D20122002306E00022C7
:100720004FF0004302E06FF0010253101AEB060095
:100730004CEB085110EB0A0041EB0B01BDE8F04D0A
:1007400000F054B8C1F30A52C1F3130140F2FF3371
:1007500041F480119A4202DA00200146704740F2CB
:1007600033439A42A2F2334202DC5242FFF752BEB6
:10077000FFF741BE30B5041E71F1000404DB4FF0F9
:100780000044404264EB0101141E73F1000405DBD8
:100790001C464FF00043524263EB0403994208BFEA
:1007A000904230BD064C074D06E0E06840F0010382
:1007B00094E8070098471034AC42F6D3FFF78AFD5F
:1007C0007020010890200108202A06DBCB17203A70
:1007D00041FA02F043EAE07306E041FA02F3D04046
:1007E000C2F12002914008431946704710B5141E0B
:1007F00073F1000408DA401C41F1000192185B41DA
:100800001A4301D120F0010010BD2DE9F04D9246B0
:100810009B4611B1B1FA81F202E0B0FA80F22032C7
:100820009046FFF7E8FD04460F4640EA0A0041EA19
:100830000B0153465A46084313D0114653EA0100B0
:1008400019D0C8F140025046FFF7E4FD05460E46B8
:10085000504659464246FFF7CEFD084305D00120D9
:1008600004E020463946BDE8F08D0020054346EA05
:10087000E0762C4337430A986305E40AA0EB0800AE
:100880000022FD0A44EA47540A3002D500200146FE
:10089000E9E7010510196941DDE9084500196941D9
:1008A000BDE8F04DA2E700002DE9F04381B00BF068
:1008B000ABFB40F2504800200024C2F2004888F808
:1008C00014400BF04DFB00205A2188F815405A24A3
:1008D0000CF056F940F2200501205A210127C2F2FE
:1008E0000045AC710CF04CF9EC7106F059F998F830
:1008F000013040F2405140F6F0123426C2F200417D
:10090000C2F20042086613FB06267770CF6DA0EB9B
:10091000070CC6F814C0F788002F1EBFB069B0FBE3
:10092000F7F0F06156F8200F013004BF002030606E
:10093000086B58B391ED0D0A02EE100AB2EE041ADC
:10094000B6EE003A34264FF47A74B8EE422A13FB1E
:10095000062620EE010A80EE020A30EE030ABCEE03
:10096000C00A10EE105A91ED0E0A358520EE010AEC
:1009700080EE020A30EE030ABCEEC00A10EE105AF6
:10098000B585CD6B6543B5FBF0F0F085342040F2C2
:1009900010654FF0640913FB0020C2F20045808807
:1009A00000281EBF07FB09F7B7FBF0F05FFA80F9DC
:1009B00095F8240078B1342700EB800013FB07275B
:1009C00040003F8DB84206D964267743B7FBF0F06C
:1009D000C0F1640E01E04FF0000E342613FB06F068
:1009E000175C05F10C00022F08BF05F11400032F5E
:1009F00005D1E87D4FF47A7410FB04F000E0008824
:100A0000AC8B042F18BF044613FB0620C069B0F559
:100A1000FA7F04D86426042F11D9002784E0002629
:100A200084420AD9B4F5FA7F81BF201A6426704344
:100A3000A4F5FA7488BFB0FBF4F6042FEDD8DFE814
:100A400007F0030B1B343F005FFA8EF040F6B83717
:100A5000462610FB067060E05FFA8EF43220A40098
:100A600019FB00F054FA8EF700EB8700F7B2C7EBE2
:100A7000071700EB470050E034204CF6CD4459FAFC
:100A80008EF713FB0020CCF6CC44C7EB0717C08DC4
:100A90007F00A0FB04046420A0EBD400C4B2A40037
:100AA00054FA80F007EBC00037E05FFA8EF009EBF4
:100AB0008907800050FA8EF0800000EB07102CE0D0
:100AC000AD7F342013FB002000F10E04002D18BF71
:100AD00000F10A04248884B1002D00F110074FF0C2
:100AE000640518BF00F10C0738886843B0FBF4F0C8
:100AF0001924C0B210FB04F400E000245FFA8EF069
:100B0000C9EB0917800050FA8EF0800000EB470017
:100B1000F7B2192617FB0600204448F21F57C5F20A
:100B2000EB17A0FB07077F093420B2EE041A13FB72
:100B300000239F709B8D00EE103A0123B8EE400A0F
:100B400080EE010A81ED1B0A81F8703091F82730A0
:100B5000013381F82730CF6A6744CF6291F8216072
:100B60005EB101F12205002715F8014B013E14FB8F
:100B70000024A4782744F7D100E0002718061EBF00
:100B8000D8B2B7FBF0F081F82900032088F8000004
:100B9000072088F80600002088F82200C8F87800AE
:100BA00001B0BDE8F0830000F0B581B040F25045DF
:100BB0000446C2F20045287804284BD002280DD103
:100BC000687840F6F0113422C2F2004110FB0210A6
:100BD00010F8031FFF291CBF0131017040F22006ED
:100BE0000520C2F20046A871B0797073F079B07335
:100BF000287D85F82C00687D85F82D0005F0D0FF54
:100C00000027002C68636F66AF76AF70EF700DD071
:100C1000FF2017210DF05CFD05F0C2FF28660220C1
:100C20009621642203F0D0FE0120A8760BF0ECF9A7
:100C300000202F750BF094F900205A216F755A246B
:100C40000BF09EFF01205A21B4710BF099FF042094
:100C5000F471287001B0F0BDF0B583B001380428FC
:100C600052D8DFE800F0035361700800042940F215
:100C7000A3800324B4E040F250450224C2F20045B0
:100C80002878062800F2AC80012101FA00F010F06B
:100C9000490F00F0A5800BF0B7F9002400202C7557
:100CA0000BF05EF900205A216C755A260BF068FF94
:100CB00040F2200701205A21C2F20047BE710BF01A
:100CC0005FFF40F240506C66AC766C63AC70EC70C9
:100CD0002C71EC72AC72AC652C7685F8254085F8E9
:100CE000264085F82740EC732C746C74AC74EC745B
:100CF000FE71C2F2004080F8704084600B202870C2
:100D00000F20A871AC736BE0022469E040F25045FB
:100D1000C2F20045287802285DD100200024FFF7A8
:100D200043FF0120E8705BE040F25040C2F2004017
:100D30000178042951D1C178012950D10024C4700F
:100D400000F04AFB4CE00BF05FF940F25045002008
:100D50000024C2F200452C750BF002F900205A2144
:100D60006C755A260BF00CFF40F2200701205A2127
:100D7000C2F20047BE710BF003FFFE7140F2405615
:100D8000C2F2004686F8704005F00AFF3066112076
:100D90006C66AC766C63AC70EC702C716C76AC727B
:100DA000AC65EC722C72EC7586F828402C76EC73EE
:100DB0002C70B460A87113E00020CDF8070001206A
:100DC0008DF804008DF8050001A88DF8061002F0DA
:100DD0002FFA044604E0022402E0022400E0022488
:100DE000204603B0F0BD000040F25040C2F2004087
:100DF000807970470000000040F25040C2F200408D
:100E0000407970470000000040F25040C2F20040BC
:100E1000006C7047000000002DE9F0412DED048BBF
:100E20000446002C00F0948040F24058002040F22C
:100E30005045C4E90000C4E90200C4E90400C4E963
:100E40000600C2F20048C2F2004598F870006F78C0
:100E500018B1D8F86000394610B905F0A1FE6978DC
:100E60002A782270617040F22001042AC2F2004107
:100E70000979A170A2F10201B1FA81F14FEA511191
:100E800008BF41F002010B2A08D8012303FA02F23D
:100E900040F622131A4218BF41F0040198F870304E
:100EA00098F82820B6EE009AB2EE048AB0EE491AFD
:100EB000002B18BF41F00801EB78002B18BF41F060
:100EC0001001002A4FF0340218BF41F02001E170F8
:100ED000A97D217198F81610617140F6F011C2F2E7
:100EE000004117FB02139A88E280DA8822811B896D
:100EF0006381D8F85C305E1E86423CBFC01AE06059
:100F0000002A1FBF342017FB00108069B0FBF2F0ED
:100F100018BF208295ED170A00EE081ABCEEC10A30
:100F200010EE100A60820AF0DBFD90ED060A00EE7A
:100F3000089ABCEEC90A10EE100AA082D8F81C006C
:100F4000A0612878052801BF287E2077E87B60779C
:100F5000BDEC048BBDE8F08140F25040C2F200408D
:100F600040787047000000000022042823D811B305
:100F7000F0B540F6F01C4FF0340EC2F2004C10FBFE
:100F80000EC210FB0EF0171DF8CF5CF8000001F147
:100F9000180C81E8F90002F1180789CFD2E9096538
:100FA000D46ACC62C1E909658CE88900106B012222
:100FB0000863BDE8F04010467047000000000000E4
:100FC00080B540F24051C2F2004101F11C0E9EE892
:100FD0000C50C96A80E80C50016180BD000000001F
:100FE00040F25040C2F2004000787047000000001C
:100FF00080B540F210612A22C2F20041FFF7B3F936
:1010000080BD000000000000042884BF002070475D
:1010100040F24051C2F200410844007C7047000099
:1010200084460020BCF1040F19D8C2B140F24053ED
:10103000C2F2004363441B7C8B4298BF704740F66A
:1010400030730CEB4C00C2F2004303EB801000EB5A
:10105000C10350F831005B68C2E90003012070470A
:101060002DE9F04381B040F210642A21C2F200441D
:101070002046FFF79FF9022050214FF05A0808221E
:1010800000254FF0010940F2200640F24057207041
:1010900061706E2184F80280C2F20046C2F20047FD
:1010A000E170552186F8049021715F2184F8058054
:1010B000A171642121810F21A172E27240F6B83240
:1010C000A2814FF4FA72E281257461744FF4FA61DF
:1010D000A57484F81390A1820521A175E17520768D
:1010E000062041F2883184F81990A076A18332213C
:1010F000A577E17784F820506184142184F82410C6
:1011000084F825101E2184F82610032184F8271066
:1011100084F8281040F25044C2F2004420706570F8
:10112000C7E91655C7E91855C7E91A553D6705F0CF
:1011300037FDC4E90C0540F6F0104FF48271A56349
:10114000A570E5702571E56365712564A571656419
:10115000E571A56425726572E564A5722565E57281
:10116000257386F805906573C4E91555A573E57375
:1011700025746574A574E57486F806802575FD767A
:10118000A7F8195086F807806575C7F81550C7E9A4
:101190000755C7E90955FD62C2F20040FFF70AF999
:1011A00040F630704FF47071C2F20040FFF702F960
:1011B0003D753D61C7E90C55C7E90E55A575E57547
:1011C0003D64E56501B0BDE8F0830000000000006B
:1011D0002DE9F04381B040F250440546164688465A
:1011E0000227C2F200442078062876D8012101FAAD
:1011F00000F010F0490F70D00AF006FF0027002021
:1012000027750AF0ADFE002E677514D0022E1BD094
:10121000012E40D100205A2100275A240BF0B0FCA7
:1012200040F2200501205A21C2F20045AC710BF0BA
:10123000A7FCEC7151E0012D2FD8A8F10A00C0B233
:10124000A0282CD9062748E040F210690A246FF044
:10125000550800200027C2F2004999F802600A2EC2
:1012600098BF2646AA2E28BF4646F1B20BF088FC4E
:1012700099F8050040F22005C2F20045AE710A2837
:1012800088BF04460120AA2C28BF4446E1B20BF0D7
:1012900077FCEC7121E005271FE005271DE0B8F180
:1012A0000A0F284698BF4FF00A08B8F1AA0F28BFC6
:1012B0006FF055085FFA88F10BF062FC40F22000F5
:1012C000012DC2F2004002D035B9063000E00730EF
:1012D000002780F8008000E00027F8B201B0BDE8E8
:1012E000F0830000000000002DE9F04140F250467C
:1012F00040F2405CDDF81880C2F20046C2F2004CB9
:1013000096F801E00CEB0E06357C172D12D86F1CF9
:10131000377440F630770EEB4E06C2F2004707EB0B
:10132000861606F8350006EBC50041708270C37062
:10133000C0F8048040F6F01034250029C2F20040C5
:101340001EFB0506B58806F10E0705F10105B580FF
:1013500018BF06F10A07002A3C8804F101043C800A
:101360001FD0F288002902F10102F280B2694244E2
:10137000B26106F1100218BF06F10C0211880131AA
:10138000118056F8201F41454FF0340188BFC6F840
:1013900000801EFB010151F8242F424538BFC1F8DF
:1013A0000080002B1FBF34211EFB01010A8901327E
:1013B00018BF0A813421ACF864501EFB0100C188BB
:1013C00090ED060AACF86610B8EE400A8CED1A0AE9
:1013D000BDE8F081000000002DE9F04105F0E0FBE0
:1013E00040F25044C2F20044616B002918BF411A18
:1013F0000029A16322D0206B0844206340F24050B2
:10140000C2F20040C26D0A44C2654268002A1CBF95
:101410000A444260E26F002A1CBF0A44E267026885
:10142000002A1CBF0A440260A06E00281CBF0844AA
:10143000A066206F00281CBF0844206706200F21EB
:10144000A071FF200DF044F905F0AAFB40F2200541
:101450000A2620666FF055080020C2F200456F7B17
:101460000A2F98BF3746AA2F28BF4746F9B20BF07C
:1014700087FBAF71A87B0A2888BF06460120AA2EE9
:1014800028BF4646F1B20BF07BFB94F82C00EE71BE
:1014900018B10AF0C1FD012002E00AF0B5FD0020FC
:1014A000207594F82D0020B100200AF06DFD012573
:1014B00003E0002000250AF053FD00206575A076AA
:1014C00060666063A070E070207102202070BDE84B
:1014D000F0810000000000002DE9F04F81B02DEDFB
:1014E000048B82B0D0B190ED011A90ED000A21EE8C
:1014F000018A00EE008AB0EE480A0FF0B1FFB4EEA8
:10150000400AF1EE10FA03D0B0EE480A0FF0A8FF3F
:1015100040F25040C2F2004080ED170A0DF08CF806
:1015200044B238B140F25045C2F200456C7105F04A
:1015300037FB286440F2504BC2F2004B9BF800008E
:10154000012818D1002C00F0788164F07F0010F1A0
:10155000770118BF10F1760010D19BF80700E1B2B7
:1015600088420BD105F01CFBDBF84410401AB0F5A3
:10157000966F03D261E1002C00F05F81E0B2082C8D
:101580003CD10AF041FD002400208BF814400AF001
:10159000E7FC00205A218BF815405A250BF0F0FA91
:1015A00040F2200701205A21C2F20047BD710BF022
:1015B000E7FA40F24050CBF864408BF81A40CBF881
:1015C00034408BF802408BF803408BF804408BF8D2
:1015D0000B40FD71C2F2004080F8704006208BF88D
:1015E00000000C208BF806008BF808408BF80940AF
:1015F000CBF84C408BF80D4001F047B9B4F1FF3FF8
:101600004FDD072C6DD10AF0FFFC002400208BF881
:1016100014400AF0A5FC00205A218BF815405A25E9
:101620000BF0AEFA40F2200701205A21C2F2004727
:10163000BD710BF0A5FA40F24050CBF864408BF836
:101640001A40CBF834408BF802408BF803408BF8FB
:1016500004408BF80B408BF80A40CBF858408BF8CD
:1016600018408BF825408BF826408BF827408BF8E4
:101670000F408BF810408BF811408BF812408BF81C
:101680001340FD71C2F2004080F8704084600B206E
:101690008BF800000F208BF806008BF80E4001F04D
:1016A000F4B814F17D006CD19BF8000004280AD036
:1016B000022840F086800020FFF776FA9BF80000B1
:1016C000042841F0E28001208BF802008BF804002E
:1016D00005F066FACBF83C000A208BF8060001F012
:1016E000D4B89BF80010042900F2A480012900F06E
:1016F000A18064F07F0212F1770354D19BF80500BA
:101700008BF8070005F04CFACBF844000AF07CFC9B
:10171000002400208BF814400AF022FC00205A21FB
:101720008BF815405A250BF02BFA40F220070120C8
:101730005A214FF00108C2F20047BD710BF020FAA8
:10174000FD7140F24055C2F2004585F8704005F049
:1017500027FA28660320CBF834408BF800808BF8FA
:1017600019408BF80A40CBF864408BF81A408BF88C
:1017700002408BF803408BF804408BF8060001F020
:1017800084B814F17F0004BF9BF8041001291DD117
:1017900000208BF8040001208BF8020005208BF854
:1017A000060001F072B8042944D8012942D07632EB
:1017B00019D102B0BDEC048B01B0BDE8F04F01F0CF
:1017C000E7BC0A208BF8060001F05FB89BF8001018
:1017D00014F17A0219D1042900F077810B208BF8DB
:1017E000060001F052B8042924D8012922D0A11EF4
:1017F000C9B204291ED8FE30C0B202B0BDEC048BC1
:1018000001B0BDE8F04F01F04BBB8A1E022A03D3A2
:10181000042900F06D8769B9002840F0428602294A
:1018200041F0178001200124FFF7BEF98BF8024038
:1018300001F02BB80B208BF806009BF80400012860
:1018400015D19BF8000004280ED19BF8020058B176
:1018500005F0A6F9DBF83C10401A41F288318842C5
:1018600028BFFFF7B9FD02E000208BF804009BF8C9
:10187000000001380A2801F20880DFE810F00B00B0
:1018800031009600CA002E0136015D017801A201E7
:10189000C501EB019BF81900002800F0038203202A
:1018A0000AF056FA012840F0F08702F04DFE0AF0E7
:1018B0001FF9022001218BF80600FF200CF008FF21
:1018C00005F06EF9CBF86000002007218BF81900B5
:1018D0008BF800108BF80A00CBF8500000F0D5BF51
:1018E0009BF80100002847D005F05AF9DBF84810B2
:1018F000401AB0F5FA7F3AD30AF0F2F8044694EDB4
:10190000010A0FF0ECF940F21065B0EE409A94ED48
:10191000000AC2F2004595F825800FF0E0F9B0EE1C
:10192000408A94ED020A95F824700FF0D8F995F8E2
:10193000260001EE107AB8EE412A03EE100AB8EE46
:10194000431A03EE108AB8EE433AB4EEC39AF1EEAE
:1019500010FADCBFB4EEC28AF1EE10FA04DCB4EE89
:10196000C10AF1EE10FA02DD0020FFF71DF99BF825
:101970000000022840F0898705F012F904460AF0B9
:10198000AFF840F2405AC2F2004ADAF8401000299B
:1019900000F08982611A072900F285829BF8010014
:1019A000042840F2E28200F070BF05F0F9F89BF8DD
:1019B00022100446032900F2A0839BF80100DFE80F
:1019C00011F004001B034903520340F6F0113422C6
:1019D000C2F2004110FB02139A88002A00F05685DB
:1019E000DB8864277B43B3FBF2F2022800F05285C8
:1019F000012800F04C86002840F05486342210FB69
:101A00000210008D1D2800F22887FF201D2100F004
:101A100035BF05F0C5F804469BF80200002804BF56
:101A20009BF80300002840F030879BF81A0000283C
:101A300000F099830AF054F8054695ED010A0FF07D
:101A40004EF940F21068B0EE409A95ED000AC2F2ED
:101A5000004898F825600FF042F9B0EE408A95ED05
:101A6000020A98F824700FF03AF998F8260001EE6F
:101A7000107AB8EE412A03EE100AB8EE431A03EECC
:101A8000106AB8EE433AB4EEC39AF1EE10FA00F3DE
:101A90000C86B4EEC28AF1EE10FADCBFB4EEC10AD5
:101AA000F1EE10FA00F30186DBF864004FF47A726D
:101AB000002804BFCBF86440204698F82710201A6D
:101AC00011FB02F18842C0F0E08602B0BDEC048B4D
:101AD00001B0BDE8F04FFFF77FBC02B0BDEC048B56
:101AE00001B0BDE8F04F0BF07BB805F059F80446A3
:101AF0009BF80800002800F0FE8003200AF028F977
:101B00009BF80910012840F07182002900F03C8305
:101B100040F220000121C2F2004041710020092161
:101B20008BF808008BF809008BF800108BF80D007B
:101B3000CBE9150000F0A9BE05F032F804469BF889
:101B40000A00002800F00681DBF85000201AB0F5EA
:101B50007A6FC0F09A8600208BF80A00022002B04B
:101B6000BDEC048B01B0BDE8F04F01F0F5BB9BF874
:101B70000B00002800F0198103200AF0E9F8012881
:101B800040F0838600208BF80B009BF80C10002996
:101B900040F0DA849BF81710012940F0CC8440F221
:101BA00040519BF81620C2F200418B7D01329A42CF
:101BB00080F0CA8451FA82F18BF81620C97D00F0BA
:101BC000C1BC04F0EDFF04469BF80D00002800F0B6
:101BD0001581DBF8540040F6C411201A8842C0F089
:101BE000548640F220040027C2F200448BF80D70A6
:101BF00060790028207100F0F48309208BF80070D0
:101C00008BF8060000F041BE04F0CAFFDBF8581064
:101C1000002904BFCBF858000146401AB0F5E16F27
:101C2000C0F0338600200121CBF858008BF800105B
:101C30008BF806108BF819008BF80A00CBF86400BB
:101C40008BF81A008BF802008BF803008BF8040065
:101C500000F01BBE9BF80E00002800F0FB80032064
:101C60000AF076F8012840F0108600208BF80E006C
:101C70008BF818008BF825008BF826008BF82700CE
:101C80008BF80F008BF810008BF811008BF8120006
:101C90008BF813000F208BF8060005208BF800004E
:101CA00000F0F3BD0AF0B0F9002400208BF81440D6
:101CB0000AF056F900205A218BF815405A240AF0F0
:101CC0005FFF40F2200501205A210127C2F20045A2
:101CD000AC710AF055FF0320EC710AF039F8FF20CF
:101CE00024210CF0F5FC04F05BFFCBF860008BF8CE
:101CF000197000F0CABD0AF087F9002500208BF8A2
:101D000014500AF02DF900205A218BF815504FF08D
:101D10005A080AF035FF40F2200701205A214FF0FF
:101D20000109C2F2004787F806800AF029FF032064
:101D300087F807800AF00CF8FF2025210CF0C8FC7A
:101D4000CBF860408BF808908BF80950CBF84C50DA
:101D500000F09BBD0AF058F9002500208BF81450C4
:101D60000AF0FEF800205A218BF815505A250AF087
:101D700007FF40F2200701205A214FF00108C2F26C
:101D80000047BD710AF0FCFE9BF801000FF6507190
:101D9000FD71095CFF200CF09BFCCBF86040CBF898
:101DA00050408BF80A8000F070BD0AF02DF9002435
:101DB00000208BF814400AF0D3F800205A218BF849
:101DC00015405A240AF0DCFE40F2200501205A2179
:101DD0000126C2F20045AC710AF0D2FE0320EC717C
:101DE00009F0B6FFFF2026210CF072FC04F0D8FEAB
:101DF000CBF860008BF80B6000F047BD0AF004F9E7
:101E0000002500208BF814500AF0AAF800205A216F
:101E10008BF815505A250AF0B3FE40F22007012036
:101E20005A214FF00108C2F20047BD710AF0A8FE26
:101E3000FD712D21787900284FF0FF0008BF2C217B
:101E40000CF046FCCBF86040CBF854408BF80D808A
:101E500000F01BBD0AF0D8F8002400208BF81440D5
:101E60000AF07EF800205A218BF815405A240AF017
:101E700087FE40F2200501205A210127C2F20045C9
:101E8000AC710AF07DFE0320EC7109F061FFFF20C8
:101E90002E210CF01DFC04F083FECBF860008BF8C3
:101EA0000E7000F0F2BCCAF840409BED171A40F2E9
:101EB0001064DAF83010C2F200440131CAF8301070
:101EC000618C9AED0D0A31EE000A8AED0D0A9AED49
:101ED0000E0A90ED062A32EE000A8AED0E0AB2EEE4
:101EE000040A21EE008A00EE101AB8EE400AB4EEA1
:101EF000C08AF1EE10FA0BDD9BF8011040F6F012EB
:101F00003423C2F2004211FB03210A6B0A320A6336
:101F100090ED000A0EF0E3FE94F8240040F6F01174
:101F20003422C2F2004101EE100AB8EE411AB4EEBA
:101F3000C10AB6EE000AF1EE10FA38EE000AC2BF8E
:101F4000DAF83C000130CAF83C009BF80100BCEE16
:101F5000C00A10FB021110EE102A31F82A3F9342FA
:101F600038BF0A80042800F29084DFE810F00500F2
:101F70002A014401BA01010204F012FEDBF83050DC
:101F800004460AF049F8012700208BF8147009F084
:101F9000FBFF8BF81570651B09F0A2FD40F210677E
:101FA00090ED060AC2F2004797F8281001EE101AC9
:101FB000B8EE411AB4EEC10AF1EE10FA0CDDDBF80E
:101FC000600040F6B931201A884205D3FF20022173
:101FD0000CF07EFBCBF86040B87A4FF47A7110FBBE
:101FE00001F08542C0F0518400F084BE012940F028
:101FF0004C84DBF84C00CDE0012877D140F6F0119D
:102000003422C2F2004110FB02139A88002A6DD0DC
:10201000DB8864277B43B3FBF2F2502A66D3DBF8FC
:102020007820A21AB2F5FA6F60D3342210FB0210A6
:1020300040F2DC522121C06990424FF0FF0038BFCE
:1020400020210CF045FB0220CBF878408BF82200D1
:1020500000F01BBCDBF8780041F27071201A884256
:10206000C0F0138449E0DBF87800201AB0F57A6FED
:10207000C0F00B8409F0C8FF002400208BF8144046
:1020800009F06EFF00205A218BF815405A250AF0FE
:1020900077FD40F2200601205A21C2F20046B571B8
:1020A0000AF06EFD40F24050CBF864408BF81A40C5
:1020B000CBF834408BF802408BF803408BF8044097
:1020C0008BF80B40F571C2F2004080F8704006209A
:1020D0008BF800000C208BF806008BF808408BF87A
:1020E0000940CBF84C408BF80D40CEE3DBF878008C
:1020F000201AB0F5FA5FC0F0C8839BF817000128DA
:1021000017D140F240509BF81610C2F20040807D7B
:10211000013181420DD2002008218BF80C008BF890
:1021200022008BF800100D218BF806108BF80B00A5
:10213000ABE340F240500121C2F2004080F8281089
:1021400040F220010020C2F200418BF817008BF80A
:1021500022000979002900F03A818BF8000009205B
:102160008BF8060091E3FF2002210CF0B1FA04F095
:1021700017FDCBF8600002209621642202F024FCB7
:1021800001208BF81A0080E301208BF80900CBF8BE
:102190004C402046201AB0F5167FC0F0768340F2FE
:1021A00020000021C2F200408BF808108BF80910C3
:1021B000417109208BF800008BF80D10CBE9151147
:1021C00063E304F0EDFC80469BF81E00002800F05D
:1021D00070829BF81F10022900F0AE83012900F0E5
:1021E000BA83002940F0F5849BF81D10814280F0ED
:1021F000818500F061BD04F0D3FCDAF80040804630
:1022000009F00AFF0120A8EB04098BF814009BF8E1
:102210002300002800F0AC81032009F099FD01287B
:1022200004BF9BF82900002800F0358340F21061BC
:10223000C2F20041888A8145C0F027839BF829209B
:10224000002A40F022839BF8012040F22003897885
:10225000C2F20043DB7A0AEB02052F7C172F1BD852
:102260009BF824607C1C8B422C7440F6307402EB8B
:102270004205C2F2004404EB85154FF0000405F856
:1022800037604FF0000628BF012405EBC7077C70BC
:10229000BE700126FE70786040F6F01034278B4245
:1022A000C2F2004012FB0700828800F10E0702F123
:1022B0000102828028BF00F10A07AAF86420398849
:1022C00001313980018901310181C18890ED060A0F
:1022D000FF20AAF86610B8EE400A04218AED1A0A17
:1022E000F9E204F05DFC40F2106780469BF81B1099
:1022F000C2F20047B87D814280F0FC849BF81C004C
:1023000097F817903C7E012800F0F482002840F0F6
:10231000F0830020002409F023FEBD788BF81540DF
:102320000A246FF0550900200A2D98BF2546AA2DD2
:1023300028BF4D46E9B20AF023FC787940F2200626
:10234000C2F20046B57101250A2888BF0446012063
:10235000AA2C28BF4C46E1B20AF012FCF47109F035
:102360005BFE8BF81450CBF868808BF81C508CE225
:1023700004F016FC04469BF82100012800F00282BC
:10238000002840F0258240F210659BF82000C2F240
:102390000045A97E884280F0AD8495F8201001297F
:1023A00040F0F682252110FB014048F21F51C5F292
:1023B000EB11A0FB01125109642201FB1200EA7F1C
:1023C000A97F904228BFC1F10101C8B2E2E2FF201B
:1023D00016210CF07DF90320CBF878408BF8220011
:1023E00053E240F2405505204FF001084FF482714E
:1023F0008BF801708BF81670C2F200458BF81780CD
:102400006F75A8750220EF7585F81880687603202F
:10241000A8760420E87640F6F010C5E90877C5E90B
:102420000A77C2F20040FDF7C5FF40F630704FF466
:102430007071C2F20040FDF7BDFF20692F752F615A
:10244000411CE8614FF4A060216108BFC4F810800E
:102450002884E87E85F82600D5F81700C5F8220004
:1024600000208BF801008BF800808BF806808BF839
:1024700019008BF80A00CBF864008BF81A008BF86F
:1024800002008BF803008BF80400FEE10022022812
:102490007FF4AEAAD2B2312A00F2E681FF200E21EB
:1024A000ECE104F07F000A283FF483A909287FF4B7
:1024B000C4A99BF805008BF8070004F071FBCBF86A
:1024C000440009F0A1FD002400208BF8144009F01D
:1024D00047FD00205A218BF815405A250AF050FB81
:1024E00040F2200701205A214FF00108C2F20047B4
:1024F000BD710AF045FBFD7140F24055C2F2004546
:1025000085F8704004F04CFB28660320CBF834407B
:102510008BF800808BF819408BF80A40CBF86440A8
:102520008BF81A408BF802408BF803408BF804407C
:102530008BF80600A9E19BF801100131CAB2042A08
:1025400088BF00218BF8011001218BF800108BF857
:1025500006108BF819008BF80A00CBF864008BF892
:102560001A008BF802008BF803008BF804008CE152
:1025700040F22007CDF8048001EE109AB7EE002A51
:10258000B8EE003AB0EE084A0A24C2F2004797EDCE
:10259000050A387AB8EE411AB8EE400AF97A81EEA7
:1025A000000A01EE100A6FF0550080FE420AB8EEF4
:1025B000411A00EE034A05EE101A20EE000AB8EEAA
:1025C000452A20EE048A32EE412A02EE081ABCEEB9
:1025D000C10A10EE105A0A2D98BF2546AA2D28BF11
:1025E000054697F80C807E7A0020E9B20AF0C8FA16
:1025F00000EE106A01EE108A6FF055004FF00108EE
:10260000B8EE400AB8EE411A31EE401A01EE080A5F
:10261000BCEEC00ABD7110EE106A0A2E98BF2646A5
:10262000AA2E28BF06460120F1B20AF0A9FAFE71CF
:1026300078698145C0F02981FE7A6FF05505002048
:102640000A2E98BF2646AA2E28BF2E46F1B20AF0BF
:1026500097FABE71387B0A2888BF04460120AA2C4D
:1026600028BF2C46E1B20AF08BFAFC718BF823806C
:1026700007210198CAE9000000208BF82900FF20FB
:102680000CF026F804F08CFACBF86000FDE0D0B234
:102690000E21312888BF0D214F284FF0FF0088BF41
:1026A0000C21EBE0FF200A21E8E00020CBF86400D9
:1026B000EBE040F21061C2F20041C87A00288BF8CA
:1026C0001E0000F06381097C012900F0AB82022921
:1026D00000F0B582032940F0BF8200210AEB01021D
:1026E00001F007030131884282F84430F6D1BDE29F
:1026F00004F07F000A283FF45CA809287FF49DA815
:102700009BF805008BF8070004F04AFACBF8440068
:1027100009F07AFC002400208BF8144009F020FC1A
:1027200000205A218BF815405A250AF029FA40F268
:10273000200701205A214FF00108C2F20047BD7165
:102740000AF01EFAFD7140F24055C2F2004585F8CC
:10275000704004F025FA28660320CBF834408BF84B
:1027600000808BF819408BF80A40CBF864408BF856
:102770001A408BF802408BF803408BF804408BF82A
:10278000060082E040F21061DBF87400C2F2004102
:102790000989201A884278D309F03EFC01201A21C9
:1027A0008BF814009BF82B0000284FF0FF0018BF97
:1027B00019210BF08DFFCBF86040CBF870409BF8EF
:1027C000200001308BF8200002208BF821005CE013
:1027D000DBF870100228A4EB010740F012810320FF
:1027E0004FF0030809F0B4FA012840F008819BF883
:1027F00020009BF82B100122002300970025FF30BA
:10280000C0B2FEF771FD09F0FFFB40F210608BF8DB
:102810001450C2F20040867800200A2E98BF0A2683
:10282000AA2E28BF6FF05506F1B20AF0A9F940F2BE
:1028300020001B21C2F200408671FF200BF048FFF0
:1028400004F0AEF9CBF86000CBE91C548BF8218082
:102850001BE00B208BF8060017E031284FF0FF003B
:102860008CBF1F211E2109E0342210FB0210C08DF5
:10287000C9284FF0FF0034BF222123210BF028FF8D
:102880000120CBF878408BF8220002B0BDEC048B1D
:1028900001B0BDE8F08F40F21060C2F200408178D4
:1028A00040F22000C2F20040C27A01208BF82900D9
:1028B000DAF804008A424FF000014FF00102A8EB61
:1028C00000039BF82400009328BF01210023FEF79A
:1028D0000BFDFF2003210BF0FBFE04F061F9CBF8A8
:1028E0006000404602B0BDEC048B01B0BDE8F04F83
:1028F00009F096BE032009F02BFA012840F0F7807A
:10290000DBF86800012200230024A8EB00019BF8FB
:102910001B0000910021FEF7E7FC09F075FB8BF826
:1029200014409BF81B0001308BF81B0002208BF831
:102930001C00CBF86880A8E7032009F009FA0128F9
:1029400040F045819BF8280040F00201032940F047
:102950001082012111E240F21061DBF86C00C2F23A
:1029600000410989A8EB000088428ED309F054FB8E
:102970000120CAF804808BF814000020CBF87C807A
:102980008BF8290002208BF81F007EE700216EE102
:1029900000F001008BF82B0009F036FB0020691CC9
:1029A0000A276FF055088BF814009BF82B000028BD
:1029B0004FF0000018BFE91C0E780A2E98BF3E4663
:1029C000AA2E28BF4646F1B20AF0DAF8687940F23A
:1029D00020090125C2F2004989F806600A2888BF4B
:1029E00007460120AA2F28BF4746F9B20AF0C8F8C7
:1029F000CBF8744089F807708BF8215045E79BF8B5
:102A00002100032800F0CD8002287FF43EAF40F281
:102A10001068C2F20048B8F81C108F42FFF435AFBE
:102A20009BF801209BF82B000AEB02073B7C172B3D
:102A300016D89BF820605D1C3D7440F6307502EBA3
:102A40004207C2F2004505EB8717FF3607F83360EF
:102A500007EBC303002758709F700127DF70596090
:102A600040F6F01134230028C2F2004112FB03119A
:102A70008A8801F10E0302F101028A8018BF01F178
:102A80000A03AAF8642018880130188008890130E8
:102A90000881C88891ED060A0821AAF86600B8EEF8
:102AA000400AFF208AED1A0A0BF012FE04F078F8B3
:102AB000CBF8600009F0A8FA98F802600025002021
:102AC0008BF814500A2E98BF0A26AA2E28BF6FF042
:102AD0005506F1B20AF054F840F22000CBE91C543C
:102AE000C2F20040867103208BF82100CDE69BF8EE
:102AF0001C004FF47A7102285DD001287FF4C5AE26
:102B000019FB01F0DBF86810A8EB01018142FFF42A
:102B1000BCAE9BF801100AEB01031A7C172A15D8EA
:102B20009BF81B70561C1E7440F6307601EB410377
:102B3000C2F2004606EB831303F8327003EBC202C5
:102B40000023537093700123D370506040F6F0104F
:102B50003422C2F2004011FB0200818801318180E1
:102B6000AAF86410C2890132C2810289013202814D
:102B7000C18890ED060AAAF86610B8EE400A8AED00
:102B80001A0A09F041FA00208BF814009BF81B0088
:102B900001308BF81B0002208BF81C00CBF86880FA
:102BA00073E6DBF87400201AB0F57A7F24BF0020AA
:102BB0008BF8210069E614FB01F0DBF86810A8EB44
:102BC0000101814224BF00208BF81C005DE69BF8C8
:102BD0001F10032917D002297FF457AEDBF87C00C1
:102BE000A8EB000140F21060C2F2004080898142EF
:102BF000FFF44BAE9BF8282042F00201032940F07D
:102C0000EF800121F0E040F21061DBF86C00C2F2CD
:102C10000041C989A8EB0000884224BF00208BF83E
:102C20001F0032E600220221571C0AEB020361F367
:102C30005F0283F84420B8423A46F5D116E00022FC
:102C40000321571C0AEB020361F35F0283F844205F
:102C5000B8423A46F5D109E000210AEB010201F041
:102C600003030131884282F84430F6D1014601F174
:102C7000FF02120619D0481E0AF14404C5B22F46BD
:102C800007EB071603F08CFF3044791C013DB0FBC5
:102C9000F1F202FB1100E25DC0B2215CE155EFB23E
:102CA0002254002FECD19BF81E0000218BF81D1040
:102CB0008BF81F1081421DD20AEB010090F84410DE
:102CC00040F21060C2F20040857806298BF8281087
:102CD0001FD890F805900FF21002D2E801F000BF63
:102CE0002728292A2B000000091317191D1F14007B
:102CF000457808E002B0BDEC048B01B0BDE8F04FB0
:102D0000FDF7D2BDC57890F8049008E0457800E062
:102D1000C57890F8069002E0457800E0C57809F0A3
:102D200073F900200A240A2D6FF055068BF8140061
:102D300098BF25460020AA2D28BF3546E9B209F0E4
:102D40001FFF40F22007B9F10A0F4FF00100C2F255
:102D50000047BD7188BF4C460125AA2C28BF3446C8
:102D6000E1B209F00DFFCBF86C80FC718BF81F50BD
:102D70008BE5411FB1FA81F14909DAF804200023FB
:102D80000024A8EB020200920122FEF7ADFA09F03E
:102D90003BF98BF814409BF82A0001308BF82A008D
:102DA000C0B2032806D3FF2012210BF091FC8BF850
:102DB0002A4003E0FF2003210BF08AFC03F0F0FE21
:102DC000CBF860000020CBF87C009BF81D000130A0
:102DD0008BF81D000320CBF86C808BF81F0054E5A6
:102DE000511FB1FA81F149099BF801300AEB030543
:102DF0002F7C172F13D87E1C2E7440F6307503EBF2
:102E00004306C2F2004505EB861606F8372006EBAE
:102E1000C7020027517097700127D770506040F6A5
:102E2000F010342200294FF00004C2F2004013FBDE
:102E30000200828800F10E0302F10102828018BFB5
:102E400000F10A03AAF86420198801311980018968
:102E500001310181C18890ED060AAAF86610B8EE2A
:102E6000400A8BF82A408AED1A0A09F0CDF8FF20B3
:102E700004218BF814400BF02BFC03F091FECBF8EF
:102E80006000CBF87C409BF81D0001308BF81D00E2
:102E90000320CBF86C808BF81F00F6E400000000E4
:102EA0002DE9F04381B00446042C00F2988009F02B
:102EB000ABF840F2504500200026C2F200452E75C6
:102EC00009F04EF800205A216E755A2609F058FE76
:102ED00040F2200801205A21C2F2004888F806601A
:102EE00009F04EFE687840F6F011342288F8076049
:102EF000C2F2004110FB021252789AB140F24052E5
:102F0000C2F2004292F82730002B1CBF013B82F82E
:102F10002730342310FB0310D16A4069814224BF5B
:102F2000081AD06240F24057C2F20047B87D00282C
:102F30001CBFE87D002804D0A87D3844C07DA04295
:102F400036D040F6F01000264FF001094FF48271A0
:102F5000C2F20040BE6187F8159087F81690AE75F2
:102F6000FC7588F8049085F81790C7E90866C7E9EA
:102F70000A66FDF71FFA40F630704FF47071C2F226
:102F80000040FDF717FAD8F810003E753E61411C6D
:102F9000F86140F20110C8F8101008BFC8F810908E
:102FA0003884F87E87F82600D7F81700C7F8220083
:102FB0006C70002487F8704003F0F2FD6C66AC760C
:102FC0006C63AC70EC7038662C7103F0E9FDA86599
:102FD0000A2028700E20A87103F0E2FDA86501B058
:102FE000BDE8F08300000000014640F25040C2F20C
:102FF000004002780220062A00F2C880012303FA6A
:1030000002F212F0490F00F0C180002902BF052032
:10301000C0B27047087802281EBF0820C0B27047AF
:103020004A780A2A4AD3CB78AA2B47D891F802C00B
:103030000620624538BF9C4580F0A880981A00F0B1
:10304000FE000A2824BF0A790A2A37D38B79AA2BD3
:1030500034D891F805C00620624538BF9C4580F001
:103060009580981AC0B2052828D30889643880B2A0
:10307000B0F5C87F22D8887A0538C0B237281DD865
:10308000C87A0438C0B2102818D88889A0F57A7098
:1030900080B2B0F57A6F11D8C889A0F5967080B269
:1030A000B0F52F7F9CBF087C032807D8487C0538E3
:1030B000C0B219289CBF887C032802D90620C0B260
:1030C0007047C87C0138C0B20228F7D8888AA0F5BA
:1030D0007A7080B2B0F57A6FF0D8887D0238C0B2CD
:1030E0000828EBD8C87D0238C0B20828E6D8087E88
:1030F0000138C0B20928E1D8487E0128DED1887E97
:103100000438C0B21028D9D8888B41F27072A0F56B
:10311000FA6080B290429CBF887F0128CED8C87FD9
:103120003238C0B21E289CBF91F820000128C5D8B3
:10313000488C1E3880B24628C0D891F824000A383E
:10314000C0B20A28BAD891F825000A38C0B20A28B5
:10315000B4D891F826000F38C0B20F28AED891F835
:1031600027000238C0B20828A8D891F828000138F2
:10317000C0B20228A2D880B540F210602A22C2F262
:103180000040FDF7F0F80020BDE88040C0B2704775
:10319000F0B581B040F25044C2F200446079E07171
:1031A00003F0FEFC606408F02FFF00250020257569
:1031B00008F0D6FE00205A2165755A2609F0E0FC79
:1031C00040F2200701205A21C2F20047BE7109F0E7
:1031D000D7FCFE7140F24056C2F2004686F87050AD
:1031E00003F0DEFC6566A5766563A570E570257164
:1031F0003066E07D012812D1A07DB17D013088428A
:103200000DD2A07556FA80F0C07D60700120207349
:10321000082020700D20A0710020E07203E009203A
:10322000E5752570A0710420A07101B0F0BD00000B
:103230002DE9F04381B040F250440226C2F200442E
:103240002178062900F28480012202FA01F111F0AE
:10325000490F7DD020B10178012903D9072677E0F5
:10326000072675E0C9B141784A1ED2B2042A01D9B5
:1032700007266DE000220123002700BF50FA82F6E6
:10328000B678042E61D803FA06F6FFB23E425ED14C
:1032900001323743D6B28E42F0D3817940F24055A5
:1032A000C2F20045E9768188A5F819100068C5F8D2
:1032B00015006E7D3EB90520C0F20120C5F816004C
:1032C00040F20340688340F2200940F6F0100027E6
:1032D0004FF001084FF48271C2F20049C2F200407F
:1032E000A77584F8178089F8046089F80560C5E936
:1032F0000877C5E90A77FDF75DF840F630704FF4BE
:103300007071C2F20040FDF755F8D9F810002F7522
:103310002F61411CE861C9F8101008BFC9F810807E
:1033200085F820600026A87D85F821000028E97E28
:1033300085F82610D5F81710C5F8221008D0E87DBA
:10334000A6756070FFF7ACFD02E0072600E00726D7
:10335000F0B201B0BDE8F0832DE9F04F81B02DED62
:10336000028B40F250450B28C2F20045287000F253
:103370000481DFE810F00C000F001A008700020142
:1033800002018E0096009A009F00A400AA00092066
:10339000A871F2E00120A87100206876A872686622
:1033A000A876A870E8702871E7E040F240564FF028
:1033B0000808002740F6F01A4FF0340B3421C2F20F
:1033C000004685F80680C2F2004AC6E91677C6E9CB
:1033D0001877C6E91A7737676C7814FB0BA948464B
:1033E000FCF7E8FF14FB0BF040F630710AF80040E0
:1033F0004FF0FF30C2F20041C9F8200004EB440056
:10340000C6E90C77C6E90E77376401EB8010C0215E
:10341000FCF7D0FF3019077486F8584003F0C0FB62
:10342000F06503F0BDFB2863F06DA86485F8237098
:1034300085F8247003F0B4FB306040F2106640F26F
:103440002004C2F20046C2F20044B27CB078717926
:10345000531E20726172DBB2022B08D840F20227A1
:10346000DB00C0F2040727FA03F35FFA83F8F37C6A
:10347000022A08FB03F3A3722CD0012A72780B46B0
:10348000E2722AE00720A871002085F82200A867D0
:1034900073E00C20A871002028726872E8646873D9
:1034A0006BE00020A872286567E00D20A87100205D
:1034B000E87262E000206873C5E915005DE00E2047
:1034C000A87103F06DFBA86557E00F20A8710020DC
:1034D000A87352E03379E072024600EE101A01EE52
:1034E000103A02EE100A03EE102AB8EE400AB8EEC7
:1034F000411AB8EE422AB8EE433A237331EE400A3D
:1035000033EE421A20EE008A01EE018AB0EE480A3C
:103510000DF0A6FFB4EE400AF1EE10FA03D0B0EEC3
:10352000480A0DF09DFF9FED171A707C20EE010AEE
:1035300001EE100AB8EE411A80EE010ABCEEC00A94
:1035400010EE100AB0F5967F98BF4FF49670606148
:103550000020E8762877A8666877A877E877E86695
:1035600085F82000286785F8210068676866A876D6
:10357000286685F82200C5E91E00BDEC028B01B06B
:10358000BDE8F08F00007A4440F6000001210122DE
:10359000C5F6020003F0FCBA40F60000012100224B
:1035A000C5F6020003F0F4BA80B588204FF48061BC
:1035B00040F2C05300224FF07E5EC5F60000C2F21A
:1035C000004301604FF480510160EFF3108CEFF382
:1035D000108072B640F2D04140F24060C2F2004129
:1035E000C2F200404A714A708A70CA704A720A7107
:1035F0004A628A62CA628A710A61CA604A618A61E1
:10360000CA610A62CA710A721A701A811A615A6111
:103610009A611A77DA62DA631A645A649A64026009
:1036200042608260C0F80CE0026142618261C26166
:10363000026242628262C26280F8302080F83120E9
:1036400040F280605A805A811A621A630A63CA6320
:103650009A809A815A625A634A630A64DA80DA81EC
:103660009A629A638A634A64C1F848E0CA640A6548
:103670004A65C1F858E0CA650A664A66C2F2004067
:10368000C0E9002240F27860C2F20040C0E90022A6
:103690000120087048708870C8708CF31088BDE8ED
:1036A000804001F005B90000EFF31080EFF31081C6
:1036B00072B6002240F2D041C2F200414A7280F359
:1036C00010887047000000002DE9F0472DED108BA9
:1036D00030B1006843F60006C4F20006B04203D0E1
:1036E000BDEC108BBDE8F08740F2D045C2F200453A
:1036F000AF7900F049FF0446032F74D0022F00F089
:10370000A480012F40F05F8500F07AFD686940F2E7
:10371000C0569FEDE9FAC2F200460130686140F2FE
:103720007860C2F200404178827841EA022140F29A
:1037300018027181C2F2004209B292ED010A01EE53
:10374000101AB8EEC11A20EE011A86ED0C1AC178D3
:10375000027941EA02210AB201EE102AB8EEC11A3A
:10376000B18120EE011A86ED0D1A4179807941EA86
:10377000002001B201EE101AB8EEC11AF08120EE5D
:10378000010A86ED0E0A00EE104A307840F0010082
:103790003070307F40F001003077B8EE400A74613D
:1037A000746420EE0F0A86ED0F0AA86A002800F064
:1037B000A080A86A9FEDC10A9FEDC11A201A02EEEF
:1037C000100AB8EE422A22EE0F2AB4EEC02AF1EE19
:1037D00010FAB5EEC02A31FE028AF1EE10FAD8BF17
:1037E000B0EE418A87E0FFF7CFFEE8690022B4EE31
:1037F000001AB3EE072A0130E86140F27860C2F2A5
:1038000000408178C078400940EAC100A6F140211B
:10381000B2EB902F18BF084340F2C05100EE100ADF
:10382000C2F20041B8EEC00A088100EE012A81ED23
:103830000B2A087840F004000870087F40F004006C
:1038400008778C618C6400F0BEBCFFF79DFEA86910
:1038500040F2786140F21803C2F20041C2F2004324
:103860000130A8618878CA7840EA022240F2C0504C
:10387000C2F20040428012B293ED000A01EE102A1B
:10388000B8EEC11A20EE011A80ED081A0A794B79B8
:1038900042EA032213B201EE103AB8EEC11A828056
:1038A00020EE011A80ED091A8A79C97942EA0121CC
:1038B0000AB201EE102AB8EEC11AC18020EE010A48
:1038C00080ED0A0A017841F002010170017F41F0A8
:1038D0000201017704610464686A01306862686A01
:1038E0003228C0F07084002068620120E87000F087
:1038F0006ABC9FED738AAC6296ED0CEA96ED0DDA28
:1039000096ED0ECA96ED091A96ED080A96ED0A2A6A
:1039100021EE01AA00EE00AA02EE02AAB0EE4A0AC7
:103920000DF09EFDB0EE409AB4EE499AF1EE10FA19
:1039300005D0B0EE4A0A0DF093FDB0EE409A2DEEA0
:103940000DBA0EEE0EBA0CEE0CBAB0EE4B0A0DF03C
:1039500087FDB0EE40AAB4EE4AAAF1EE10FA05D007
:10396000B0EE4B0A0DF07CFDB0EE40AA96ED091AC0
:1039700096ED080A96ED0A2A21EE01BA00EE00BA89
:1039800002EE02BAB0EE4B0A0DF06AFDB4EE400A48
:10399000F1EE10FA03D0B0EE4B0A0DF061FD9FED91
:1039A000491AB4EEC1AAF1EE10FA0FDA9FED461AE9
:1039B00030EE010A0DF093F9B7EE001AB4EEC10A29
:1039C000F1EE10FAB4BF0120002000E000202872C0
:1039D000E87900281CBF287A00281FD095ED0C0A32
:1039E0009FED3A1A95ED0C2A3EEE400A00EE012AB0
:1039F00085ED0C2A95ED0D0A95ED0D2A3DEE400A58
:103A000000EE012A85ED0D2A95ED0E0A95ED0E2AA0
:103A10003CEE400A00EE012A85ED0E2A95ED0C0AD7
:103A200095ED0D1A95ED0E2AE879002854D07DEE1B
:103A300041AA7EEE409A95ED12EAD5ED138A7CEE0E
:103A400042BA95ED14DA95ED15CA2AEEAABA09EE36
:103A5000A9BA0BEEABBAB0EE4B0A0DF001FDB0EE19
:103A600040AAB4EE4AAAF1EE10FA05D0B0EE4B0A25
:103A70000DF0F6FCB0EE40AA9FED151A28EE0A0AEA
:103A8000B4EEC10AF1EE10FA40F3C880B6EE001AA7
:103A900020EE01BAB0EE4B0A0DF01AFC80EE0AAA35
:103AA000B0EE4B0A0DF06CFB2BEE8A1A2AEE8A3A26
:103AB00029EE8A2ABAE000BFBD3786350AD7A33C73
:103AC0006F12833A0AD7A33D0AE81CC10AD7233BE9
:103AD0005F70893000000000287A002800F05682CC
:103AE00095ED0F0A3EEE000A85ED0F0A95ED100ADE
:103AF0003DEE000A85ED100A95ED110A3CEE000A34
:103B000085ED110AE86A0130E862E86AB0F5487F9D
:103B1000C0F0528395ED0F0A95ED0B1AB4EECF9AD3
:103B2000F1EE10FAB8EE411A80EE010A85ED0C0AAA
:103B300095ED0C0A95ED100A95ED0B1AB8EE411AA9
:103B400080EE010A85ED0D0A95ED0D0A95ED110A3D
:103B500095ED0B1AB8EE411A80EE010A85ED0E0ABA
:103B600095ED0E0A307F40F3178210F0020000F04E
:103B7000138296ED09BA96ED08DA96ED0AEA2BEE75
:103B80000B9A0DEE0D9A0EEE0E9AB0EE490A0DF05C
:103B900067FCB0EE40AAB4EE4AAAF1EE10FA05D0E6
:103BA000B0EE490A0DF05CFCB0EE40AAB4EECFAA2C
:103BB000F1EE10FA40F34D828BEE0ACA8EEE0ABA8D
:103BC000B0EE4C0AF0EE4B0A0DF0B2F92BEE0BBA48
:103BD000B0EE409A0CEE0CBAB0EE4B0A0DF040FC81
:103BE000B0EE401A8DEE0A0AB4EE411AB1EE40AAC8
:103BF000F1EE10FA05D0B0EE4B0A0DF031FCB0EE4C
:103C0000401AB0EE4A0AF0EE410A0DF091F9B6EE14
:103C1000001A29EE01AA20EE019A1EE21FED531AA6
:103C2000B7EE000AB0EE413AB0EE412A68EE80AA43
:103C30002EEE00BA6EEE039A68EE83BA4EEE02AA3A
:103C400008EEC2BA48EEC19A4EEE01BA4DEE01AA94
:103C50000DEE43BA4DEE009A4DEE42BA4CEE43AA39
:103C60000CEE41BA4CEE029A4CEE00BA2AEEAAAA29
:103C70000BEE0BAA09EEA9AA0BEEABAAB0EE4A0A0C
:103C80000DF0EEFBB4EE400AF1EE10FA03D0B0EE08
:103C90004A0A0DF0E5FBB4EECF0AF1EE10FA0EDDA4
:103CA000C9EE809ACAEE80AACBEE008ACBEE80BA2B
:103CB00019EE909A1AEE90AA18EE908A0DE05FED38
:103CC0007B9A4FF07E58F7EE008A4FF000094FF0D4
:103CD000000AF0EE69AAF0EE69BA307FB4EECF9A2E
:103CE0001BEE907AF1EE10FA40F3448110F00200DE
:103CF00000F0408196ED09BA96ED08DA96ED0AEAF1
:103D00002BEE0B9A0DEE0D9A0EEE0E9AB0EE490ABE
:103D10000DF0A6FBB0EE40AAB4EE4AAAF1EE10FAFE
:103D200005D0B0EE490A0DF09BFBB0EE40AAB4EE10
:103D3000CFAAF1EE10FA31DD8BEE0ACA8EEE0ABA86
:103D4000B0EE4C0AF0EE4B0A0DF0F2F82BEE0BBA87
:103D5000B0EE409A0CEE0CBAB0EE4B0A0DF080FBC0
:103D6000B0EE401A8DEE0A0AB4EE411AB1EE40AA46
:103D7000F1EE10FA05D0B0EE4B0A0DF071FBB0EE8B
:103D8000401AB0EE4A0AF0EE410A0DF0D1F8B6EE54
:103D9000001A29EE01AA20EE019A03E01FEDB3AA52
:103DA000B0EE4A9A2BEEAB0A28EEAB1AF7EE00CA39
:103DB00009EEA90A09EEAA1A30EE002A31EE010A2C
:103DC0007CEEC20A0DF0B4F8B0EE40BAB0EE4A0A8A
:103DD0000DF0D6F9B0EE40CAB0EE4A0A0DF078FA0E
:103DE000B0EE40AAB0EE490A0DF0CAF9B0EE40DAE2
:103DF000B6EE000A2BEE00BAB0EE490A0DF068FAF2
:103E0000B0EE409AB0EE4B0A0DF0BAF9B0EE40EACF
:103E1000B0EE4B0A0DF05CFA2AEE0D1A2AEE092AD2
:103E20002CEE093A2CEE0D4A21EE0EAA22EE00BA33
:103E300021EE00CA24EE00DA03EE40AA04EE0EBA28
:103E400003EE0ECA02EE4EDA2AEE0A9A0BEE0B9A37
:103E50000CEE0C9A0DEE0D9AB0EE490A0DF000FB37
:103E6000B4EE400AF1EE10FA03D0B0EE490A0DF0BC
:103E7000F7FAB4EECF0AF1EE10FA0EDD8CEE00CABE
:103E80008AEE00EACBEE00CA8DEE00DA1CEE100AD4
:103E90001EEE102A1CEE901A09E09FEDD3CA4FF0D7
:103EA0007E5100200022B0EE4CEAB0EE4CDA9FEDDD
:103EB000CF0A68EE00EAF5EEC0EAF1EE10FA59DD3D
:103EC000F7EE00DAF4EEEDEAF1EE10FA80F233816B
:103ED00028EEAC0A0AEE8E0A09EE8C0A0BEE8D0A69
:103EE000B5EEC00AF1EE10FA09DAB1EE4DDAB1EE34
:103EF0004CCAB1EE4EEAF1EE6CCAB1EE400A9FED4B
:103F0000BC1AB4EEC10AF1EE10FA51DD3CEEE80A3B
:103F10003EEE6A1A4EEE808A4EEE81AA3CEE690AA7
:103F200028EEA89A3DEE6B1A4EEE809A0AEEAA9AF7
:103F30004EEE81BA09EEA99A0BEEAB9AB0EE490AA1
:103F40000DF08EFAB4EE400AF1EE10FA03D0B0EEA6
:103F5000490A0DF085FAB4EECF0AF1EE10FA40F3FB
:103F6000D58089EE80CA8AEE80EAC8EE80CA8BEEE0
:103F700080DA67E0B0EE6BDAB0EE69CA4846B0EEC0
:103F80006AEA5246F0EE68CA4146D6E00020E8628E
:103F9000E863286468640FE14FF07E500021A86454
:103FA000E96429656965A865E96529666966AAE025
:103FB0000CF09CFEB0EE409A3DEEEEBA0DF088F9A2
:103FC000B0EE40AA2BEE090A0DF082F9B0EE40BA2D
:103FD0002EEE890A0DF07CF980EE0A0A8BEE0A1AA1
:103FE0002EEE00BA2CEE80AA2CEE00CA2DEE00DADE
:103FF0000AEE81BA08EE81AA09EE81CA0BEE81DAD7
:104000002BEE0B9A0AEE0A9A0CEE0C9A0DEE0D9A14
:10401000B0EE490A0DF024FAB4EE400AF1EE10FABF
:1040200003D0B0EE490A0DF01BFAB4EECF0AF1EE60
:1040300010FA74DD8CEE00CA8BEE00EACAEE00CAFC
:104040008DEE00DA1CEE100A1EEE102A1CEE901AFD
:1040500071E09FED65AAB0EE4A9AB0EE4A0A0DF003
:104060008FF8B0EE40BAB0EE4A0A0DF031F9B0EE7A
:1040700040CAB0EE490A0DF083F82CEE00EA2BEEB0
:1040800000DAB0EE490A2EEE0EAA0DEE0DAA0DF0E2
:104090001FF92BEE009A2CEE00BA09EE09AA0BEEDE
:1040A0000BAAB0EE4A0A0DF0DBF9B4EE400AF1EECD
:1040B00010FA03D0B0EE4A0A0DF0D2F9B4EECF0AEE
:1040C000F1EE10FA12DDB1EE4B1A89EE002A8EEEF7
:1040D000003A8DEE004A81EE000A12EE100A13EE4D
:1040E000102A14EE101A10EE103A04E04FF07E5130
:1040F000002000220023A964A965EA64EA65286516
:1041000028666B656B660120E87155E09FED36CA45
:104110004FF07E51F7EE00CA0020002207E09FED2D
:1041200032CA4FF07E5100200022F0EE6DCAB0EE90
:104130004CEAB0EE4CDA1DEE107A2CEEAC9AA96483
:10414000EA6428656F650EEE0E9A0CEE0C9A0DEE81
:104150000D9AB0EE490A0DF083F9B4EE400AF1EE83
:1041600010FA03D0B0EE490A0DF07AF9B4EECF0A96
:10417000F1EE10FA16DD95ED121A81EE001A85EDBA
:10418000121A95ED131A81EE001A85ED131A95EDAA
:10419000141A81EE001A85ED141A95ED151A81EEA8
:1041A000000A07E09FED100A4FF07E50A86400203F
:1041B000C5E9130085ED150A2046B0EE480A00F067
:1041C0007BFA01206872EFF31080EFF3108172B672
:1041D0000021A971697180F31088BDEC108BBDE8D6
:1041E000F04700F065BB00BF0000000033333340F0
:1041F0003BDF7F3F00000000704700000000000030
:1042000040F6000008210122C5F6020002F0C0BC01
:1042100040F6000008210022C5F6020002F0B8BCFA
:1042200080B5EFF3108C0028EFF3108E72B60BD030
:1042300040F2406E9FED1B0AC2F2004E9EED001A46
:1042400021EE000A80ED000A59B140F240609FED76
:10425000150AC2F2004090ED011A21EE000A81ED2C
:10426000000A5AB140F240609FED0E0AC2F20040CF
:1042700090ED021A21EE000A82ED000A0298002B4E
:104280001FBF40F24061C2F20041896A19600028F4
:104290001FBF40F24061C2F20041C96A01608CF365
:1042A000108880BDE12E6542002808BF7047EFF3FB
:1042B0001081EFF3108272B640F2D042C2F2004297
:1042C000136B0360536B4360926B826081F31088C1
:1042D000704700000000000010B5EFF3108C0028BC
:1042E000EFF3108E72B60CD040F2C05EC2F2004EF8
:1042F000DEF830400460DEF834404460DEF83840D8
:10430000846049B140F2C050C2F20040046A0C60BF
:10431000446A4C60806A886040F2C051002A1FBF26
:1043200040F2C050C2F20040C06A1060C2F20041C8
:10433000486C002808BF086C002B18BF18608CF36D
:10434000108810BD0000000040F2D040C2F20040D2
:10435000C07970470000000040F2D040C2F2004037
:10436000007A70470000000010B540F2D044C2F25D
:1043700000442078002808BF10BD00F005F9EFF3D5
:10438000108CEFF3108272B640F2C052C2F20042BB
:10439000536C2BB1536C40F6B831C31A8B4201D326
:1043A00001216170116C29B1116C401A40F6B831CD
:1043B000884201D30120A0708CF31088BDE8104022
:1043C00000F076BA0000000010B540F24814C2F2C6
:1043D00000442078002818BF10BD4EF6FC50CEF2E5
:1043E0000000016841F08071016041F2000000218D
:1043F000CEF200004160016841F00101016003F06C
:10440000DBFC4DF68361C4F21B31A0FB0112910C61
:1044100044F24022C0F20F0290424FF0010038BF38
:1044200001216160207010BD2DE9F04F81B004467C
:10443000002C46D040F2481541F204064EF6FC57D7
:104440004DF6836944F2402A4FF000084FF0010B0B
:10445000C2F20045CEF20006CEF20007C4F21B39CC
:10446000C0F20F0A287800BF013CC00702D069687B
:1044700018E000BF386840F080703860C6F80080EF
:1044800056F8040C40F0010046F8040C03F094FCCC
:10449000A0FB091250454FEA924138BF01216960E3
:1044A00085F800B03068B0FBF1F000BF3268B2FBB5
:1044B000F1F2121AB2F57A7FF8D320044FF001001E
:1044C000D2D101B0BDE8F08F70B540F24816044675
:1044D00041F20405C2F20046CEF200053078012810
:1044E00001D1716823E04EF6FC50CEF20000016865
:1044F00041F0807101600020286055F8040C40F004
:10450000010045F8040C03F057FC4DF68361C4F23A
:104510001B31A0FB0112910C44F24022C0F20F02A9
:1045200090424FF0010038BF01217160307028685F
:10453000B0FBF1F02A68B2FBF1F2121AA242F9D3F1
:1045400070BD00000000000010B5EFF31084EFF321
:10455000108072B640F2D040C2F20040816C81659A
:10456000C16CC165016D0166416D416640F24061FB
:10457000C2F20041C86A91ED0A0A00F09DF884F386
:10458000108810BD00000000B0B540F2481541F29F
:104590000004C2F20045CEF200042878012801D1BF
:1045A000696821E04EF6FC50CEF20000016841F04F
:1045B0008071016000206060206840F00100206090
:1045C00003F0FAFB4DF68361C4F21B31A0FB01122C
:1045D000910C44F24022C0F20F0290424FF00100D1
:1045E00038BF0121696028706068B0FBF1F0B0BD90
:1045F00010B5FFF701FEFFF7E7FE0BF015FB0446D1
:104600000BF03AFC204310BD0029EFF31082EFF3CA
:10461000108372B61FBF40F2C053C2F20043DB6A80
:104620000B6040F2C051C2F200414B6C002B08BF3E
:10463000096C82F310880028EFF31081EFF31082E9
:1046400072B640F24062C2F2004292ED000A92ED70
:10465000011A92ED022A81F3108808BF70479FED7E
:10466000073A21EE031A20EE030A22EE032A80ED18
:10467000001A80ED010A80ED022A7047E12E6542A2
:1046800080B582B08DF8070000200DF107010DF113
:10469000060201238DF806004FF47A70009040F274
:1046A0008860C2F2004004F0B7FB9DF8060002B03B
:1046B00080BD0000000000002DE9F04F81B02DED1D
:1046C0000E8B40F2D045B0EE408A8046C2F20045E3
:1046D00095ED160A95ED171A95ED182A95ED193AEC
:1046E00095ED124A95ED135A95ED146A95ED157AEC
:1046F00020EE05CA25EE01AA27EE01EA20EE07DA30
:1047000004EE41CA00EE04AA00EE06EA06EE41DA23
:1047100007EE42CA06EE02AA04EE42EA05EE02DA0B
:1047200006EE03CA07EE03AA05EE43EA04EE43DAF7
:104730002CEE0C9A0AEE0A9A0EEE0E9A0DEE0D9AD7
:10474000B0EE490A0CF08CFEB4EE400AF1EE10FA1D
:1047500003D0B0EE490A0CF083FE9FED491A40F6F3
:10476000DB76B7EE00BAC3F6C976B4EEC10AF1EE55
:1047700010FA0EDD8EEE009A8CEE00EA8AEE00AAA8
:104780008DEE00CA19EE109A1EEE10BA1AEE10AA9B
:104790000DE09FED3A9A4FF07E5A4FF000094FF02E
:1047A000000BB0EE4BAAB0EE49EAB0EE49CA29EED2
:1047B00009DA2CEE090AB0EE4D1A0AEE0E0A0EEED8
:1047C0000E1A31EE011A30EE000A7BEE410A0CF0AF
:1047D000AFFBB0EE401A2EEE090A2AEE092A0CEEC3
:1047E0000CDA1CEE104A0CEE0A0A0CEE4E2A11EE00
:1047F000107A3DEE0D3A30EE009A32EE020A3BEEB0
:1048000043AAB4EECB0AF1EE10FA0DDABFEE001AAD
:10481000B4EEC10AF1EE10FA04DD0CF0F3FA10EE7A
:10482000106A01E006F10046B0EE490AF0EE4A0ACD
:104830000CF07EFB40F24060C2F200400760466030
:1048400080ED020AC0F80CA0C0F810B0C0F81490B7
:104850008461296BC161696B0162A96B416280ED62
:104860000A8AC0F82C80E97980F83010297A80F81B
:104870003110BDEC0E8B01B0BDE8F08F00000000E0
:10488000BD3786350000000040F28860C2F200406B
:1048900003F0E2BD0000000013460A46014640F264
:1048A0008860C2F2004004F0C3BD000000000000B8
:1048B000B0B540F2D044C2F200442078002878D04D
:1048C000EFF31080EFF3108172B6617911B180F3CC
:1048D0001088B0BD22460121012512F8013F5BB9C5
:1048E000224612F8023F0BB1022505E0224612F8DB
:1048F000033F002B5ED003250023012D137061714F
:10490000A5714FF0553180F3108840F28060C2F2FB
:104910000040C0E9001140F27861C2F20041C1E9F3
:10492000003305D182210170FFF772FC072012E0ED
:1049300005F00301032908D0022921D145F2925143
:104940000180FEF729FE082005E045F2A251018012
:10495000FEF722FE042040F2786182B240F28060CD
:10496000C2F20040C2F20041FFF796FF002808BFE4
:10497000B0BD012D02D1FFF743FC01E0FEF704FEBC
:10498000EFF31080EFF3108172B6FE212171002148
:104990006171A171691ECAB2022A08D841F670720B
:1049A00049B2C0F6010252F8211001220A7080F3C8
:1049B0001088B0BD80F31088B0BD0000000000007A
:1049C000FEE70000000000002DE9F04F81B040F24A
:1049D000A0160D469146C2F200463178012922D137
:1049E00008B341F6380B471E4FF0000801204FF482
:1049F000FA7A0024C4F2000B02E000BF30780134E0
:104A0000C007284618BFCBF800A001F095FF30780A
:104A1000012808BFCBF80080A742C4BF484601F078
:104A20008BFFA742EAD101B0BDE8F08F0000000083
:104A3000F0B58DB040F2A015C2F2004528780028EC
:104A40004CD144F2E0400026C5F60200816841F0F6
:104A500040018160816801F0400101910199016884
:104A600041F00201016008A9006800F00200019015
:104A700001984FF40040089002200990CDE90A66A1
:104A80000C9040F20040C5F6020001F09DFF41F697
:104A900000072C46172040F2CF71C4F2000744F8FB
:104AA000047FC5E90206C5E90416EE61204605F05B
:104AB000FFFA6020CDE90666CDE9046601A904226B
:104AC000CDE9010620460396059605F09DF820469F
:104AD000042105F0CDFB0120BE6328700DB0F0BDB0
:104AE00040F25000C2F2004000F0EEBB00000000B7
:104AF00040F2E020C2F2004000F0E6BB00000000FF
:104B000040F2D000C2F2004000F0DEBB0000000026
:104B100040F26030C2F2004000F0D6BB000000005E
:104B2000704700000000000080B54FF4806001F085
:104B30003FFF4FF48050BDE8804001F039BF0000D6
:104B4000EFF3108072B600BFFEE700000000000027
:104B50002DE9F04381B0044602F022F80546002C0E
:104B600002BF012001B0BDE8F08394F835000228AF
:104B70001ED1276840F2B70940F2B848C4F20209D2
:104B8000C4F202084F4517DD40F25740C4F202005C
:104B9000874222DC40F22740C4F20200874237DC21
:104BA000B820C4F2020087424FD040F2104047E0E4
:104BB0008020606501202DE25720C4F20200874268
:104BC0001ADD8720C4F2020087422ADC5820C4F292
:104BD0000200874239D0702032E040F28740C4F2B0
:104BE0000200874224DC40F25840C4F202008742AF
:104BF0002BD040F2704023E01020C4F20200874224
:104C00001EBF2820C4F2020087421ED0402017E0B9
:104C100040F22840C4F20200874216D040F24040E1
:104C20000EE08820C4F2020087420ED0A02007E0E8
:104C300040F2A040C4F20200874206D040F2884011
:104C4000C4F20200874240F05381386820F01E0011
:104C50003946386051F8140F20F0800040F26F465A
:104C60000860C4F20206B74216DC9F20C4F20200BC
:104C700087422CDC5720C4F2020087424FDC102010
:104C8000C4F2020087421EBF2820C4F202008742FD
:104C900000F08180402067E045F22F40C5F6020019
:104CA000874227DC40F2B740C4F20200874242DC70
:104CB00040F27040C4F2020087421EBF40F28840BA
:104CC000C4F20200874266D040F2A0404CE040F2BD
:104CD0002740C4F20200874238DCA020C4F2020060
:104CE00087421EBFB820C4F20200874253D040F270
:104CF000104039E045F26B40C5F60200874238DCCF
:104D000045F23040C5F6020087421EBF45F24440DE
:104D1000C5F6020087423ED045F2584037E05820A1
:104D2000C4F2020087421EBF7020C4F20200874214
:104D300031D0882018E047451EBF45F20840C5F62F
:104D40000200874227D045F21C4020E040F2284074
:104D5000C4F2020087421EBF40F24040C4F202008B
:104D6000874218D040F25840C4F20200874212D065
:104D700016E045F26C40C5F6020087421EBF45F2C0
:104D80009440C5F60200874205D045F28040C5F642
:104D90000200874204D1206E016821F48071016015
:104DA000386820F001003860386810F0010F0BD02F
:104DB00001F0F6FE401B0628F6D320206065032094
:104DC00084F83500012025E12068484513DD40F2D4
:104DD0005741C4F2020188421EDC40F22741C4F26E
:104DE0000201884233DCB821C4F2020188424AD071
:104DF00040F2104143E05721C4F2020188421ADD1B
:104E00008721C4F2020188422ADC5821C4F202013F
:104E1000884238D0702132E040F28741C4F202016A
:104E2000884224DC40F25841C4F2020188422AD070
:104E300040F2704123E01021C4F2020188421EBFFB
:104E40002821C4F2020188421DD0402117E040F21F
:104E50002841C4F20201884215D040F240410EE0E0
:104E60008821C4F2020188420DD0A02107E040F25F
:104E7000A041C4F20201884205D040F28841C4F248
:104E80000201884257D1D4E9161202F01F023F23D3
:104E900003FA02F28A60B04259DC9F21C4F2020197
:104EA000884211DC5721C4F20201884228DC10211B
:104EB000C4F2020188421EBF2821C4F202018842C6
:104EC00000F0968040215CE040F22741C4F20201EC
:104ED000884221DCA021C4F2020188421EBFB82111
:104EE000C4F20201884200F0838040F2104148E0A1
:104EF000386847453FF4AAAE20F00E003946ADE6CB
:104F00005821C4F2020188421EBF7021C4F202017E
:104F100088426DD0882134E040F22841C4F2020179
:104F200088421EBF40F24041C4F2020188425FD075
:104F300040F2584125E0D4E91612404502F01F0224
:104F4000A5D0012303FA02F24A60B042A5DD45F282
:104F50002F41C5F60201884218DC40F2B741C4F285
:104F60000201884227DC40F27041C4F2020188420B
:104F70001EBF40F28841C4F20201884238D040F29C
:104F8000A041C4F20201884232D03FE045F26B41B9
:104F9000C5F60201884219DC45F23041C5F602012E
:104FA00088421EBF45F24441C5F6020188421FD027
:104FB00045F2584118E040451EBF45F20841C5F68C
:104FC0000201884214D045F21C410DE045F26C41CB
:104FD000C5F6020188421EBF45F29441C5F60201A2
:104FE000884205D045F28041C5F6020188420DD1C4
:104FF000D4E919014160E06E00281FBF016821F467
:1050000080710160D4E91C0118BF4160012084F85F
:1050100035000020002184F8341001B0BDE8F08391
:10502000E8B190F83510022917D1016840F20F421B
:10503000C4F20202914215DC6F23C4F202039942CA
:1050400025DC3F23C4F2020399423BDC1023C4F267
:105050000203994259D0282353E080214165012160
:105060000846704740F26F43C4F2020399421ADCCB
:1050700040F23F43C4F2020399422ADC40F210435B
:10508000C4F20203994240D040F2284339E09F2302
:10509000C4F20203994225DC7023C4F20203994250
:1050A00033D088232DE040F29F43C4F2020399429B
:1050B0001FDC40F27043C4F20203994225D040F253
:1050C00088431EE04023C4F2020399421DD05823B6
:1050D00017E040F24043C4F20203994215D040F277
:1050E00058430EE0A023C4F2020399420DD0B82326
:1050F00007E040F2B843C4F20203994205D040F2FF
:10510000A043C4F2020399426ED10423914280F875
:10511000353010DC6F20C4F20200814220DC3F20D9
:10512000C4F20200814236DC1020C4F20200814247
:1051300053D028204EE040F26F40C4F2020081427A
:105140001ADC40F23F40C4F2020081422ADC40F205
:105150001040C4F2020081423FD040F2284039E0C2
:105160009F20C4F20200814225DC7020C4F20200BC
:10517000814232D088202DE040F29F40C4F20200EC
:1051800081421FDC40F27040C4F20200814224D010
:1051900040F288401EE04020C4F2020081421CD050
:1051A000582017E040F24040C4F20200814214D07F
:1051B00040F258400EE0A020C4F2020081420CD020
:1051C000B82007E040F2B840C4F20200814204D0A7
:1051D00040F2A040C4F202008142086820F00100C1
:1051E00008600021084670470A6822F00E020A6033
:1051F0000A6822F001020A6045F25742C5F602022F
:1052000091420EDC45F22F42C5F60202914217DCB4
:1052100045F20842C5F60202914226D045F21C42F0
:105220001FE045F27F42C5F60202914211DC45F2D1
:105230005842C5F60202914217D045F26C4210E086
:1052400045F23042C5F6020291420ED045F2444288
:1052500007E045F29442C5F60202914205D045F2BC
:105260008042C5F6020291421AD1016E01230A68FA
:1052700022F480720A60D0E9161202F01F0203FACB
:1052800002F24A60D0E919124A60C16E00291FBFBC
:105290000A6822F480720A60D0E91C1218BF4A60C2
:1052A000012180F83510002180F83410026D22B100
:1052B00080B590470021BDE8804008467047000057
:1052C000406D7047000000002DE9F04381B00446B6
:1052D000002048F2B51140F26F49009040F21000F2
:1052E000C1F64E31C4F20209C2F20040A56D006859
:1052F0002E68A0FB0108296827684F4515DC9F2010
:10530000C4F2020087422BDC5720C4F2020087421D
:105310004EDC1020C4F2020087421EBF2820C4F2D7
:105320000200874272D040206BE045F22F40C5F664
:105330000200874227DC40F2B740C4F202008742F5
:1053400042DC40F27040C4F2020087421EBF40F2CD
:105350008840C4F20200874258D040F2A04050E09A
:1053600040F22740C4F2020087423CDCA020C4F295
:10537000020087421EBFB820C4F20200874245D017
:1053800040F210403DE045F26B40C5F60200874216
:1053900071DC45F23040C5F6020087421EBF45F27F
:1053A0004440C5F60200874278D045F2584070E08C
:1053B0005820C4F2020087421EBF7020C4F20200CF
:1053C000874223D088201CE040F2B840C4F202009B
:1053D00087421BD045F20840C5F6020087425DD0E7
:1053E00045F21C4055E040F22840C4F202008742DA
:1053F0001EBF40F24040C4F20200874206D040F295
:105400005840C4F20200874240F04783E06D00F04C
:105410001F01082000FA01F2324200F0EA8040F257
:105420000F40C4F20200874212DC6F20C4F2020077
:10543000874269DC3F20C4F20200874200F3A88063
:105440001020C4F20200874200F0C6802820BEE08F
:105450004F4565DC40F23F40C4F20200874200F352
:105460009E8040F21040C4F20200874200F0B480F7
:1054700040F22840ABE045F26C40C5F6020087429E
:105480001EBF45F28040C5F60200874206D045F2B5
:105490009440C5F60200874240F0FF823A68E06D12
:1054A00000F01F0312F0040F1EBF0420984010EA02
:1054B00001061BD1900742D50220984010EA010650
:1054C0003DD06860100400F1E282900609D438688B
:1054D00020F00A003860012084F83500002084F8AC
:1054E0003400E16B002940F0CD82D6E26860100400
:1054F00046D490065EBF386820F004003860216C06
:10550000002940F0BF82C8E29F20C4F20200874217
:105510004EDC7020C4F2020087425DD0882056E045
:1055200040F29F40C4F20200874248DC40F27040E3
:10553000C4F2020087424FD040F2884047E0100793
:1055400040F1AB8208209840084000F0A6823868FD
:10555000012120F00E003860E06D00F01F0001FA1C
:1055600000F068600020616584F8351084F834002C
:10557000E16C00291CBF2046884701B0BDE8F083DC
:10558000D0034CBF216CA16C002940F07B8284E2E7
:105590004020C4F2020087421ED0582017E040F29B
:1055A0004040C4F20200874216D040F258400EE05C
:1055B000A020C4F2020087420ED0B82007E040F2DB
:1055C000B840C4F20200874206D040F2A040C4F2C4
:1055D0000200874240F0648204203B68034208D006
:1055E000386820F004003860AA60606D40F0010067
:1055F0006065012000FA01F2324271D040F20F40A2
:10560000C4F20200874210DC6F20C4F2020087421D
:105610001CDC3F20C4F20200874232DC1020C4F2BE
:105620000200874251D028204AE04F451ADC40F260
:105630003F40C4F2020087422ADC40F21040C4F22C
:105640000200874241D040F2284039E09F20C4F256
:105650000200874225DC7020C4F20200874234D069
:1056600088202DE040F29F40C4F2020087421FDCF8
:1056700040F27040C4F20200874226D040F28840D7
:105680001EE04020C4F2020087421ED0582017E0DE
:1056900040F24040C4F20200874216D040F2584027
:1056A0000EE0A020C4F2020087420ED0B82007E02E
:1056B00040F2B840C4F20200874206D040F2A04057
:1056C000C4F20200874240F0ED8107F1140080230C
:1056D000006818421FBFAA60606D40F0020060655C
:1056E000042000FA01F232426FD040F20F40C4F2BF
:1056F0000200874210DC6F20C4F2020087421CDCEB
:105700003F20C4F20200874232DC1020C4F20200C3
:10571000874251D028204AE04F451ADC40F23F40F2
:10572000C4F2020087422ADC40F21040C4F20200B8
:10573000874241D040F2284039E09F20C4F2020065
:10574000874225DC7020C4F20200874234D08820D2
:105750002DE040F29F40C4F2020087421FDC40F27D
:105760007040C4F20200874226D040F288401EE01A
:105770004020C4F2020087421ED0582017E040F2B9
:105780004040C4F20200874216D040F258400EE07A
:10579000A020C4F2020087420ED0B82007E040F2F9
:1057A000B840C4F20200874206D040F2A040C4F2E2
:1057B0000200874240F0798102203B6803421FBF0C
:1057C000AA60606D40F004006065102000FA01F1ED
:1057D000314200F0818040F20F40C4F20200874263
:1057E00010DC6F20C4F2020087421CDC3F20C4F2B0
:1057F0000200874232DC1020C4F20200874251D0FE
:1058000028204AE04F451ADC40F23F40C4F2020033
:1058100087422ADC40F21040C4F20200874241D0A5
:1058200040F2284039E09F20C4F20200874225DC84
:105830007020C4F20200874234D088202DE040F26C
:105840009F40C4F2020087421FDC40F27040C4F265
:105850000200874226D040F288401EE04020C4F279
:10586000020087421ED0582017E040F24040C4F2A8
:105870000200874216D040F258400EE0A020C4F249
:10588000020087420ED0B82007E040F2B840C4F2D0
:105890000200874206D040F2A040C4F202008742D4
:1058A00040F0058108203A68024215D0A9603968A5
:1058B000386811F4802F06D1C0055EBF386820F02B
:1058C0000800386001E0000301D4216C00E0A16C05
:1058D00000291CBF20468847E06D00F01F012020F2
:1058E00000FA01F2324200F0A780206840F20F4730
:1058F0001023C4F20207B84210DC6F27C4F202077B
:10590000B8421CDC3F27C4F20207B84232DC102741
:10591000C4F20207B84251D028274AE048451ADCB1
:1059200040F23F47C4F20207B8422ADC40F2104777
:10593000C4F20207B84241D040F2284739E09F271D
:10594000C4F20207B84225DC7027C4F20207B8424D
:1059500034D088272DE040F29F47C4F20207B842B6
:105960001FDC40F27047C4F20207B84226D040F272
:1059700088471EE04027C4F20207B8421ED05827CD
:1059800017E040F24047C4F20207B84216D040F296
:1059900058470EE0A027C4F20207B8420ED0B8273D
:1059A00007E040F2A047C4F20207B84206D040F236
:1059B000B847C4F20207B84218BF022307681F4263
:1059C0003AD0AA6094F835300268042B1BD122F03B
:1059D00016020260426922F080024261226C0AB91A
:1059E000A26C1AB1026822F0080202603F208840CF
:1059F000A860012084F83500002084F83400216D6F
:105A000000293FD149E0016852030CD4C9050ED4E6
:105A1000016821F010010160012084F835000020A8
:105A200084F8340003E0080301D4616C00E0E16B0A
:105A300000291CBF20468847606D70B3606D10F070
:105A4000010F1DD004204FEA982184F8350020680A
:105A5000026822F001020260009A01328A4200923A
:105A600003D8026812F0010FF6D10068012100F09E
:105A7000010041EA400084F83500002084F8340039
:105A8000E16C51B12046884701B0BDE8F083D003F6
:105A900054BF616CE16B0029F4D101B0BDE8F08323
:105AA00008209AE50023384612E6002085E6042007
:105AB000F9E60000000000002DE9F04F81B08346B8
:105AC00001F06EF80546BBF1000F00F0F683DBF83D
:105AD000000040F26F48C4F20208404515DC9F21E7
