:020000040800F2
:10000000100F0024E1020008F96C00087962000872
:10001000F16C000819100008797F0008000000004A
:100020000000000000000000000000005170000807
:100030009112000800000000016D0008E97000083E
:10004000FB020008FB020008FB020008FB0200089C
:10005000FB020008FB020008FB020008FB0200088C
:10006000FB020008FB020008FB020008491100081F
:1000700059110008FB020008FB020008FB020008FF
:10008000FB020008FB020008FB020008FB0200085C
:10009000FB020008FB020008FB020008FB0200084C
:1000A000FB020008FB020008FB020008FB0200083C
:1000B000FB020008FB020008FB020008FB0200082C
:1000C000FB020008FB020008FB020008FB0200081C
:1000D000596F0008697F0008FB020008FB02000856
:1000E000FB020008FB02000800000000FB02000801
:1000F000FB020008FB020008FB020008FB020008EC
:10010000FB020008FB020008FB020008FB020008DB
:10011000FB020008FB020008FB020008FB020008CB
:10012000FB020008FB020008FB020008FB020008BB
:10013000FB020008FB020008FB020008FB020008AB
:1001400000000000000000000000000000000000AF
:10015000FB020008FB020008FB020008FB0200088B
:10016000FB020008FB020008FB020008FB0200087B
:10017000FB020008FB020008FB0200080000000070
:10018000FB020008FB020008FB020008FB0200085B
:10019000FB020008FB020008FB020008FB0200084B
:1001A000FB020008FB020008FB0200080000000040
:1001B000FB020008FB020008FB020008FB0200082B
:1001C000FB020008FB020008000000000000000025
:1001D0000000000000000000FB020008000000001A
:1001E000000000000000000000000000000000000F
:1001F0000000000000000000FB020008FB020008F5
:10020000FB020008FB02000800000000FB020008DF
:10021000FB020008FB020008FB020008FB020008CA
:10022000FB02000800000000FB02000800000000C4
:10023000FB020008FB02000800000000FB020008AF
:10024000FB020008FB020008FB020008FB0200089A
:10025000FB020008FB020008FB020008FB0200088A
:10026000FB020008FB020008FB020008FB0200087A
:10027000FB020008FB020008FB020008000000006F
:10028000FB020008FB020008FB020008FB0200085A
:1002900000000000FB020008FB0200080000000054
:1002A00000000000FB020008FB020008FB0200083F
:1002B000FB020008FB020008FB020008FB0200082A
:1002C000FB020008FB020008FB020008DFF80CD06C
:1002D00000F07AF80048004741840008100F00241D
:1002E0000648804706480047FEE7FEE7FEE7FEE7D0
:1002F000FEE7FEE7FEE7FEE7FEE7FEE7B97100086E
:10030000CD0200082DE9F05F0546002092469B468D
:1003100088460646814640241BE02846414647461B
:10032000224600F041F853465A46C01A914110D374
:1003300011461846224600F028F82D1A67EB0108EE
:100340004F4622460120002100F01FF817EB00095C
:100350004E41201EA4F10104DFDC484631462A4606
:100360004346BDE8F09FD2B201E000F8012B491EE0
:10037000FBD270470022F6E710B513460A46044642
:100380001946FFF7F0FF204610BD202A04DB203A73
:1003900000FA02F1002070479140C2F1200320FAD8
:1003A00003F3194390407047202A04DB203A21FAD6
:1003B00002F00021704721FA02F3D040C2F120027E
:1003C00091400843194670471CB5094800900948F8
:1003D00001900546009C06E0E06840F0010394E8C7
:1003E000070098471034AC42F6D3FFF773FF0000C4
:1003F000D88C0008F88C000810B540F2C00400202A
:10040000C2F200442080C4E90D00C4E90F00C4E931
:100410001100E064A07002F08BFBE06010BD0000F2
:10042000F0B581B02DED088B40F2C006C2F2004657
:100430003078032823D8DFE800F0035D273900BFB8
:100440000020C82106F034FA002006F071F90128D6
:100450007CD1B07843F234310130B0704143090CA3
:1004600001EB8101411A7170881CC1B2002007F0B4
:1004700087FD4FF4487002F063FA01203070BDEC44
:10048000088B01B0F0BD00BF05F0FAFE002877D060
:1004900004203070FF20432107F072FDBDEC088B73
:1004A00001B0BDE8F04006F06BBA00BFFF205E214E
:1004B00007F066FD4FF4FA6002F042FA01204FF4B3
:1004C000FA7106F0F5F940F2DC5002F039FA012039
:1004D00006F02EFA0020307006F052FA002006F0E6
:1004E00027FA0120BDEC088B01B0BDE8F04006F012
:1004F0001FBA00BF00200121002407F041FD40F297
:10050000DC5002F01DFA00F033FBFF203D2107F024
:1005100037FD4FF47A7002F013FA022030707078D1
:10052000F464C6E90D44C6E90F44C6E9114486F8EF
:10053000340002F0FDFAB06302F0FAFAF060C6F897
:100540000340BDEC088B01B0F0BD00BF022006F0F7
:10055000EFF8012893D1B07843F2343104304143AD
:10056000090C01EB8101421A7270901CB270C1B289
:100570000020BDEC088B01B0BDE8F04007F000BDE5
:10058000707804283FF67BAFDFE800F004EE9EDAD7
:100590002C0000BF02F0CCFAF1680446471A06F0BE
:1005A000F7F9002006F0D4F905F076FEB1EE040A62
:1005B00090ED061A0546B4EE401AF1EE10FA03DD8E
:1005C000FF203E2107F0DCFC43F699208742FFF430
:1005D00056AF06F0D5F9002006F0AAF9F463A86931
:1005E000B064C8E102F0A4FA317A0446002908BFD9
:1005F000B463F5692DBB01F0010070720020012188
:10060000002507F0BDFC707A962100284FF000000D
:1006100008BF1E2106F044FD4FF4967002F090F9D9
:1006200006F0B6F9FF20442107F0AAFCB6F8400016
:10063000B5722546F4610130A6F84000307A0130E9
:100640003072012006F074F8B17A012808BF002941
:100650001ED1601BB6F8421000EE100A96ED111A7A
:100660000120B072481CA6F84200B8EE400A31EEF4
:10067000000A86ED110A06F083F900205A210025B0
:1006800006F00EFD40F2DC50F56102F059F9B17A46
:10069000F06941F28932201A904210D379B9FF20D3
:1006A000492107F06DFC06F06BF900205A21002566
:1006B00006F0F6FC4FF47A70F56102F041F9307AF9
:1006C0000A28FFF4DCAE55E102F032FAF168044684
:1006D000401A9FEDE11A00EE100AB8EE400A80EED3
:1006E00001AA06F055F9F078AB214143490A01EB24
:1006F0004101411AC9B2022900F04281012940F0AA
:100700006581B7EE000AB3EE0E2A9FEDD83A2AEEC5
:10071000033A30EE4A1A2AEE029A9FEDD12AB4EE3D
:1007200040AAA1EE023A9FEDD02AA1EE029AF1EE84
:1007300010FABCEEC31A11EE102A80F2558156E170
:1007400002F0F6F9B169044609B92146B46130797D
:10075000651AC0074FF0000000F0F48006F0E8F8DA
:1007600006F016F9F2E000BF02F0E2F9B1790446B2
:10077000002967D1354640F20010C0F20230012155
:1007800045F8200F05F81A1C686002F0D1F900F056
:100790000700EA79295CE9712A5402F0C9F944F6A4
:1007A0002511C2F29241A0FB0112811A02EB510104
:1007B000AA798908A1EBC1010844295CA9712A54CE
:1007C00002F0B6F94AF6AB27CAF6AA27A0FB071231
:1007D00091086A7901EB4101A0EB4100295C697144
:1007E0002A5402F0A5F94CF6CD41CCF6CC41A0FB41
:1007F000011222F0030101EB92012A79401A295CCF
:1008000029712A5402F094F900F00300EA78295C77
:10081000E9702A5402F08CF9A0FB071222F00101C2
:1008200001EB5201AA78401A295CA9702A5402F0FF
:100830007FF900F001006A78295C69702A54002071
:1008400005F81B0C306998BBB079012840F0928004
:100850007079082880F08E80304448F22D72C8F2FA
:100860002D7243F63C4390F82000C7F678035A25D2
:100870000027C10004284FF0000038BF22FA01F021
:1008800038BF23FA01F5C1B2002006F009FCE9B235
:10089000012006F005FC642002F052F806F078F81A
:1008A000B6F84000F771C6E904440130A6F84000EC
:1008B000012005F03DFFF179012808BF002922D170
:1008C0007069B6F84210201A96ED111A00EE100A5F
:1008D0000120F071481CA6F84200B8EE400A31EE43
:1008E000000A86ED110A06F04BF8FF203F2107F0C1
:1008F00047FB707900213161013070714FF4FA705B
:1009000002F01EF8F179306940F6B932201A9042AF
:10091000FFF4B5AD00297FF4B2AD06F031F8FF2049
:10092000402107F02DFB7179002030614FF4FA70FF
:1009300001317171BDEC088B01B0BDE8F04001F0F0
:10094000FFBF00BF06F004F806F01AF841F2893044
:10095000854205D33079B4610130307101E000BFC8
:100960003079C0B20A28FFF48AAD002005F0E0FF1C
:1009700006F006F8F463012086F84C0066E000BF3C
:100980009FED360A2AEE008AB0EE480A07F018FFFB
:100990009FED34BAB0EE4B9A9FED311AA0EE019A5A
:1009A000B0EE480A07F0B4FFB3EE0E1AA0EE01BA9B
:1009B000B7EE000AB4EE40AAF1EE10FABCEECB1A84
:1009C00011EE102A13DBF0780EE000BF9FED240A31
:1009D0005A229FED249AAAEE009AB7EE000AB4EECE
:1009E00040AAF1EE10FA02DB0130F070F460BCEEC8
:1009F000C90AB425002010EE101AB42928BF2946D0
:100A0000B42A38BF154606F04BFB0120294606F0F4
:100A100047FB05F041FC807F18B1FF20432107F020
:100A2000AFFAB06B47F23151201A8842FFF427AD7C
:100A300005F0A6FF00205A2106F032FB01205A21C2
:100A4000012506F02DFBF46386F84C50032030702E
:100A5000BDEC088B01B0F0BD00409C45F90FC940CA
:100A6000000070420000B442000016430000F04253
:100A700040F600000121C5F60200012202F050B844
:100A800040F600000121C5F60200002202F048B83D
:100A9000704700000000000040F600000821C5F685
:100AA0000200012202F03CB840F600000821C5F621
:100AB0000200002202F034B870470000000000007D
:100AC000002808BF704710B54EF2180145F2003CEF
:100AD000CEF20001C0F2070C03E000BF01380204AF
:100AE0001AD051F804EC0B68002208E01A449C422A
:100AF000A2EB0402234628BF72446245EED20C6882
:100B00009C42F3D10C689C4204BF0C689C42EDD11E
:100B10000C689C42F3D0E9E7BDE810407047000044
:100B200080B54EF21801C0EB0010CEF200014FEA82
:100B3000401E002351F804CC0A6808E01344904298
:100B4000A3EB0003024628BF634473450CD2086838
:100B50009042F3D10868904204BF08689042EDD1FA
:100B600008689042F3D0E9E780BD00000000000073
:100B70002DE9F04F81B02DED048B9FED408A40F2BE
:100B80001019B0EE489AC2F2004940F2140B002648
:100B9000C2F2004B89F80060C9E9016607E000BFB6
:100BA0000A20FFF78DFF632E06F101063AD2FFF708
:100BB0007BFF802000F018FA552000F015FA04465B
:100BC000552000F011FA552000F00EFA804655200D
:100BD00000F00AFA0746552000F006FA8246552032
:100BE00000F002FA0546552000F0FEF9552000F00D
:100BF000FBF9FFF751FF0F2CD2D148EA07209BEDFC
:100C0000012A00B200EE100A4AEA052000B201EE05
:100C1000100AB8EEC00AB8EEC11AA0EE028AA1EE20
:100C2000029ABDE79FED160A012089F80000002016
:100C3000C9E90600C9E90800C9F8280041F26F2196
:100C4000C9F82C0049F6A63088EE001AC3F68321B5
:100C500089EE000AC3F64430C9E90C104CF28F202B
:100C600089ED041A89ED050AC3F6F540C9F8380084
:100C7000BDEC048B01B0BDE8F08F00BF00000000A8
:100C80000000C8420000000010B5FFF701FFFFF7A9
:100C900013FF07F099F9044607F0C2FA204310BD8C
:100CA0002DE9F04F81B02DED0A8B84B08B46039077
:100CB000FFF7E6FE922000F097F9922000F094F9F9
:100CC000552000F091F90646552000F08DF90746B1
:100CD000552000F089F90446552000F085F90546B5
:100CE000552000F081F90290552000F07DF9019027
:100CF000FFF7BEFE44EA052040F2140900B2C2F23A
:100D0000004900EE100A46EA07200FFA80FA99ED32
:100D100000BAB8EEC08AFFF7C7FE802000F064F981
:100D2000552000F061F90646552000F05DF9552088
:100D300000F05AF90746552000F056F905465520AF
:100D400000F052F90446552000F04EF98046552037
:100D500000F04AF9552000F047F900EE10AAB8EE6D
:100D6000C09AFFF799FE0F2E13D147EA052099ED9F
:100D7000012A00B200EE100A44EA082000B201EE97
:100D8000100AB8EEC00AB8EEC11A22EE00AA22EE8E
:100D900001CA2BEE099A2BEE088AFFF771FEA220FA
:100DA00000F022F9A22000F01FF9552000F01CF9F4
:100DB00046B20446552000F017F90546FFF758FEE5
:100DC000E0004FF6000140EA5510CFF6FF71002E0B
:100DD000B4EE001A48BF0843B3EE072A40F21014DD
:100DE00000EE100AC2F20044E168B8EEC00AA0EEBC
:100DF000012A8BED002A2078012801F10100E06032
:100E00006ED129EE090ADDE90110A8EE080A40EAD0
:100E1000012000B2F1EEC00A00EE100AB8EEC00ADE
:100E200020EE4B0A07F076FB94ED092A9FED693A14
:100E3000B0EE424A94ED0B1A94ED0A5A94ED057AFD
:100E400094ED0C6ADFED600A91EE434AD4ED071A87
:100E500094ED06BAA1EE032A34EE454AA1EE035AF8
:100E600034EE064A3CEE476A94ED087AA4EE207A06
:100E70009FED564A36EE616A20EE040A94ED0E4A62
:100E8000A6EE20BA9FED526A37EE044A80EE060ABB
:100E900094ED0D6AA6EE201A85EE043A30EE4B0A68
:100EA00087EE044AA3EE475AE3EE001AA3EE421A75
:100EB000A4EE477A84ED0A5AA4EE422AC4ED071A3A
:100EC000A4EE00BA94ED040A84ED087A3AEE40AA42
:100ED00084ED092A84ED0B1A84ED06BA06E000BF02
:100EE00094ED01BA9FED380AACEE00BA94ED02CA57
:100EF0009FED350AAAEE00CA9FED34AA84ED01BA2F
:100F0000B4EE4ACAF1EE10FA1EDD9FED330A00BFBF
:100F10003CEE00CAB4EE4ACAF1EE10FAC1BF3CEE94
:100F200000CAB4EE4ACAF1EE10FA3CEE00CAC4BFE1
:100F3000B4EE4ACAF1EE10FA06DD3CEE00CAB4EE99
:100F40004ACAF1EE10FAE3DC9FED240AB4EE40CA7F
:100F5000F1EE10FA1DDA9FED221A3CEE01CAB4EE52
:100F600040CAF1EE10FA14DA3CEE01CAB4EE40CAFF
:100F7000F1EE10FABEBF3CEE01CAB4EE40CAF1EE8B
:100F800010FA06DA3CEE01CAB4EE40CAF1EE10FAED
:100F9000E3DBF0EEC90AB0EE480A84ED02CA07F0BE
:100FA000B9FA20EE0A0A9FED0A1A039880EE010AA8
:100FB00080ED00BA80ED01CA80ED020A04B0BDECFC
:100FC0000A8B01B0BDE8F08F0AD7233C0000344300
:100FD000DB0F49400AD723BC0000B4C3000034C370
:100FE0000000B4430000000080B582B08DF8070017
:100FF00040F23C20C2F200400DF107010DF1060263
:1010000001234FF47A7CCDF800C003F0ADFC9DF8CD
:10101000060002B080BD0000FEE7000000000000F6
:101020002DE9F04F81B040F27007C2F200473B78E3
:10103000012B2BD1064648B341F6380990460D46A0
:10104000C4F20009741E01204FF4FA7B4FF0000A2D
:1010500004E000BF0AF1010A564517D0C007284630
:1010600018BFC9F800B001F06BFC3878012803D034
:101070005445EFD905E000BF0021C9F800105445E0
:10108000E8D9404601F05CFC3878E3E701B0BDE800
:10109000F08F000000000000F0B58DB040F2700548
:1010A000C2F20045287800284BD144F2E0400026E7
:1010B000C5F60200816841F040018160816801F05D
:1010C000400101910199016841F00201016000684D
:1010D00008A900F00200019001984FF40040089028
:1010E000022009900C9040F20040C5F60200CDE9C4
:1010F0000A6601F039FC2C4641F60007C4F20007ED
:10110000172044F8047FC5E9020640F2CF70EE6173
:10111000C5E90406204604F0A7FA602001A9CDE93C
:10112000010604222046CDE90666CDE90466039651
:1011300004F03EF80421204604F0CAFABE63012000
:1011400028700DB0F0BD000040F24C10C2F200401B
:1011500000F09ABC0000000040F2C410C2F200404F
:1011600000F092BC0000000040F20F42D0F800C036
:10117000C4F20202944511DC6F22C4F202029445CB
:1011800022DC3F22C4F20202944539DC1022C4F270
:10119000020294455AD0282254E000BF40F26F4228
:1011A000C4F2020294451BDC40F23F42C4F2020248
:1011B00094452DDC40F21042C4F20202944545D021
:1011C00040F228423EE000BF9F22C4F20202944552
:1011D00028DC7022C4F20202944537D0882231E024
:1011E00040F29F42C4F20202944523DC40F2704276
:1011F000C4F20202944529D040F2884222E000BFA6
:101200004022C4F20202944520D058221AE000BFC6
:1012100040F24042C4F20202944517D040F25842D4
:1012200010E000BFA022C4F2020294450ED0B82202
:1012300008E000BF40F2B842C4F20202944505D073
:1012400040F2A042C4F20202944517D10CF0F80219
:101250004AF6AB23103ACAF6AA23A2FB03310AA32B
:101260005F2AC1F302115B5C40F2FF312CEA0101FD
:10127000C36588BF04318165084670472CF0FF01C3
:1012800081650846704700BF00061016000610165C
:101290007047000000000000EFF3108072B600BF3E
:1012A000FEE70000000000002DE9F041044601F0D7
:1012B0003FFC1CB3054694F83500022822D140F2C9
:1012C0000F472668C4F2020740F26F48BE426FF033
:1012D0000E00C4F202081DDC6F21C4F202018E422E
:1012E0002ADC3F21C4F202018E4241DC1021C4F20B
:1012F00002018E4263D028215CE000BF0120BDE8DE
:10130000F08100BF802060650120002184F8341046
:10131000BDE8F08146451BDC40F23F41C4F20201CA
:101320008E422DDC40F21041C4F202018E4246D0C2
:1013300040F228413EE000BF9F21C4F202018E42EC
:1013400028DC7021C4F202018E4238D0882131E0BD
:1013500040F29F41C4F202018E4223DC40F2704110
:10136000C4F202018E422AD040F2884122E000BF3E
:101370004021C4F202018E4221D058211AE000BF60
:1013800040F24041C4F202018E4218D040F258416E
:1013900010E000BFA021C4F202018E420FD0B8219C
:1013A00008E000BF40F2B841C4F202018E4206D00C
:1013B00040F2A041C4F202018E42314607D13146CB
:1013C000306820F01E0041F8140B6FF080000A68AE
:1013D000464500EA020008601ADC9F20C4F20200C1
:1013E000864233DC5720C4F2020086425ADC1020C9
:1013F000C4F20200864200F097802820C4F2020066
:10140000864200F091804020C4F202008AE000BFD2
:1014100045F22F40C5F6020086422DDC40F2B7406F
:10142000C4F2020086424BDC40F27040C4F202007B
:10143000864279D040F28840C4F20200864273D0DE
:1014400040F2A040C4F202006CE000BF40F227402E
:10145000C4F20200864243DCA020C4F202008642AD
:1014600062D0B820C4F2020086425DD040F2104043
:10147000C4F2020056E000BF45F26B40C5F6020020
:1014800086423FDC45F23040C5F6020086424BD032
:1014900045F24440C5F60200864245D045F2584028
:1014A0003EE000BF5820C4F2020086423CD07020CB
:1014B000C4F20200864237D08820C4F2020031E034
:1014C00040F2B840C4F2020086422DD045F20840F6
:1014D000C5F60200864227D045F21C4020E000BF3E
:1014E00040F22840C4F2020086421DD040F2404043
:1014F000C4F20200864217D040F25840C4F2020003
:1015000010E000BF45F26C40C5F6020086420BD0E9
:1015100045F29440C5F60200864205D045F280406F
:10152000C5F60200864204D1206E016821F4807164
:101530000160306820F00100306000BF3068C007F3
:1015400010D001F0F5FA401B0628F7D32020606583
:10155000032084F835000120002184F83410BDE810
:10156000F08100BF20680821B8424FF03F0211DC33
:101570006F23C4F2020398421EDC3F23C4F202032D
:10158000984235DC1023C4F20203984257D0282336
:1015900050E000BF40451BDC40F23F43C4F2020371
:1015A00098422DDC40F21043C4F20203984246D028
:1015B00040F228433EE000BF9F23C4F2020398425A
:1015C00028DC7023C4F20203984238D0882331E02B
:1015D00040F29F43C4F20203984223DC40F270437E
:1015E000C4F2020398422AD040F2884322E000BFAE
:1015F0004023C4F20203984221D058231AE000BFCE
:1016000040F24043C4F20203984218D040F25843DB
:1016100010E000BFA023C4F2020398420FD0B82309
:1016200008E000BF40F2A043C4F20203984206D093
:1016300040F2B843C4F20203984240F0C580D4E9B6
:10164000163707F01F07404502FA07F25A5019DC17
:101650009F21C4F20201884232DC5721C4F2020108
:10166000884259DC1021C4F20201884200F09680C1
:101670002821C4F20201884200F090804021C4F287
:10168000020189E045F22F41C5F6020188422DDCB6
:1016900040F2B741C4F2020188424BDC40F2704193
:1016A000C4F20201884279D040F28841C4F20201BA
:1016B000884273D040F2A041C4F202016CE000BF46
:1016C00040F22741C4F20201884243DCA021C4F267
:1016D0000201884262D0B821C4F2020188425DD082
:1016E00040F21041C4F2020156E000BF45F26B41E6
:1016F000C5F6020188423FDC45F23041C5F60201E1
:1017000088424BD045F24441C5F60201884245D09B
:1017100045F258413EE000BF5821C4F20201884220
:101720003CD07021C4F20201884237D08821C4F233
:10173000020131E040F2B841C4F2020188422DD0EA
:1017400045F20841C5F60201884227D045F21C4106
:1017500020E000BF40F22841C4F2020188421DD0BF
:1017600040F24041C4F20201884217D040F2584191
:10177000C4F2020110E000BF45F26C41C5F602015F
:1017800088420BD045F29441C5F60201884205D04B
:1017900045F28041C5F6020188420BD1616EA26E0E
:1017A000E06E4A6030B1016821F480710160D4E9D3
:1017B0001C014160012084F835000020002184F8DC
:1017C0003410BDE8F08100BF0421012237E700009A
:1017D000F0B190F83510022918D180B540F20F42CF
:1017E0000168C4F20202914214DC6F23C4F20203C6
:1017F000994225DC3F23C4F2020399423CDC1023CA
:10180000C4F2020399425DD0282357E0802141654C
:101810000120704740F26F43C4F2020399421BDC7F
:1018200040F23F43C4F2020399422DDC40F21043E0
:10183000C4F20203994245D040F228433EE000BF83
:101840009F23C4F20203994228DC7023C4F20203EE
:10185000994237D0882331E040F29F43C4F202031B
:10186000994223DC40F27043C4F20203994229D02A
:1018700040F2884322E000BF4023C4F202039942B1
:1018800020D058231AE000BF40F24043C4F20203C4
:10189000994217D040F2584310E000BFA023C4F291
:1018A000020399420ED0B82308E000BF40F2B843CB
:1018B000C4F20203994205D040F2A043C4F20203ED
:1018C000994275D191424FF0040280F8352011DC25
:1018D0006F20C4F20200814222DC3F20C4F20200E9
:1018E000814239DC1020C4F20200814259D0282004
:1018F00054E000BF40F26F40C4F2020081421BDCA2
:1019000040F23F40C4F2020081422DDC40F2104020
:10191000C4F20200814244D040F228403EE000BFC1
:101920009F20C4F20200814228DC7020C4F2020031
:10193000814236D0882031E040F29F40C4F202005C
:10194000814223DC40F27040C4F20200814228D080
:1019500040F2884022E000BF4020C4F202008142F1
:101960001FD058201AE000BF40F24040C4F20200ED
:10197000814216D040F2584010E000BFA020C4F2CF
:10198000020081420DD0B82008E000BF40F2B8400C
:10199000C4F20200814204D040F2A040C4F202002E
:1019A0008142086820F001000860002080BD00BF6F
:1019B0000A6822F00E020A6045F25742C5F602029A
:1019C00091420A6822F001020A600FDC45F22F42C0
:1019D000C5F60202914219DC45F20842C5F6020240
:1019E000914229D045F21C4222E000BF45F27F42DD
:1019F000C5F60202914213DC45F25842C5F60202D6
:101A0000914219D045F26C4212E000BF45F23042DB
:101A1000C5F6020291420FD045F2444208E000BFF1
:101A200045F29442C5F60202914205D045F2804249
:101A3000C5F6020291421AD1D0E9181CD0E916E38A
:101A40000A6822F480720A6003F01F01012202FA80
:101A500001F1CEF80410816ECCF80410C16E31B1E2
:101A60000A6822F480720A60D0E91C124A600121DF
:101A700080F83510016D0022002980F8342094D0C0
:101A80008847002080BD00002DE9F04782B000218A
:101A9000019140F20C0148F2B513C2F20041C1F6C7
:101AA0004E33856D40F26F490A680168C4F202093D
:101AB0002E68A2FB032849452A6815DC9F22C4F240
:101AC000020291422CDC5722C4F20202914251DC04
:101AD0001022C4F2020291427BD02822C4F20202F8
:101AE000914276D040226FE045F22F43C5F60203C3
:101AF000994229DC40F2B743C4F20203994245DC23
:101B000040F27042C4F20202914262D040F2884236
:101B1000C4F2020291425CD040F2A04254E000BF05
:101B200040F22742C4F2020291423FDCA022C4F2FA
:101B3000020291424DD0B822C4F20202914248D032
:101B400040F2104240E000BF45F26B43C5F602038D
:101B5000994275DC45F23043C5F60203994200F024
:101B6000828045F24443C5F6020399427BD045F298
:101B7000584373E05822C4F20202914229D07022E5
:101B8000C4F20202914224D088221DE040F2B84300
:101B9000C4F2020399421CD045F20843C5F6020381
:101BA000994260D045F21C4358E000BF40F2284201
:101BB000C4F2020291420CD040F24042C4F202024E
:101BC000914206D040F25842C4F20202914240F0E3
:101BD0005383C26D082302F01F0240F20F4A934064
:101BE000C4F2020A334200F0DE8051454FF0040493
:101BF00012DC6F27C4F20207B9426DDC3F27C4F242
:101C00000207B94200F39C801027C4F20207B942D0
:101C100000F0BD802827B5E0494569DC40F23F4728
:101C2000C4F20207B94200F3938040F21047C4F2B5
:101C30000207B94200F0AB8040F22847A2E000BFA3
:101C400045F26C43C5F6020399420CD045F280433D
:101C5000C5F60203994206D045F29443C5F6020345
:101C6000994240F009830B68C76D07F01F070426EF
:101C7000BE40164218BF13F0040423D10226BE4012
:101C8000164218BF13F0020442D1FA40120740F185
:101C9000F38213F0080200F0EF820A6822F00E02CD
:101CA0000A60012101FA07F26A60416580F8351087
:101CB000C16C00294FF0000280F8342040F0D88237
:101CC000DAE200BF1A046E6034D49A0636D40A6889
:101CD00022F004020A6031E09F27C4F20207B942F1
:101CE00040DC7027C4F20207B94250D0882749E08F
:101CF00040F29F47C4F20207B9423BDC40F2704712
:101D0000C4F20207B94242D040F288473AE000BF2D
:101D10001A046E6000F1B4829A0600F1B5820A6876
:101D200022F00A020A60012180F83510002180F8B3
:101D30003410A9E2D90301D4816C98E2016C96E2D7
:101D40004027C4F20207B94221D058271AE000BF49
:101D500040F24047C4F20207B94218D040F2584757
:101D600010E000BFA027C4F20207B9420FD0B82785
:101D700008E000BF40F2A047C4F20207B94206D013
:101D800040F2B847C4F20207B94218BF08240F68EE
:101D9000274208D00F6827F004070F60AB60436D3F
:101DA00043F0010343650123934033426FD0514513
:101DB00010DC6F27C4F20207B9421DDC3F27C4F2D2
:101DC0000207B94234DC1027C4F20207B94256D0E8
:101DD00028274FE049451BDC40F23F47C4F2020789
:101DE000B9422DDC40F21047C4F20207B94246D096
:101DF00040F228473EE000BF9F27C4F20207B942E5
:101E000028DC7027C4F20207B94238D0882731E0B5
:101E100040F29F47C4F20207B94223DC40F2704708
:101E2000C4F20207B9422AD040F2884722E000BF3C
:101E30004027C4F20207B94221D058271AE000BF58
:101E400040F24047C4F20207B94218D040F2584766
:101E500010E000BFA027C4F20207B9420FD0B82794
:101E600008E000BF40F2A047C4F20207B94206D022
:101E700040F2B847C4F20207B94240F007824F6906
:101E80003F0604D5AB60436D43F002034365042372
:101E9000934033426FD0514510DC6F27C4F20207E4
:101EA000B9421DDC3F27C4F20207B94234DC1027D7
:101EB000C4F20207B94256D028274FE049451BDC3F
:101EC00040F23F47C4F20207B9422DDC40F210470E
:101ED000C4F20207B94246D040F228473EE000BFB4
:101EE0009F27C4F20207B94228DC7027C4F2020718
:101EF000B94238D0882731E040F29F47C4F2020748
:101F0000B94223DC40F27047C4F20207B9422AD03A
:101F100040F2884722E000BF4027C4F20207B942DE
:101F200021D058271AE000BF40F24047C4F2020710
:101F3000B94218D040F2584710E000BFA027C4F2C1
:101F40000207B9420FD0B82708E000BF40F2A0470F
:101F5000C4F20207B94206D040F2B847C4F2020701
:101F6000B94240F09B810F68BF0704D5AB60436D59
:101F700043F004034365102303FA02F2324200F0F7
:101F8000828051454FF0080310DC6F27C4F202072E
:101F9000B9421DDC3F27C4F20207B94234DC1027E6
:101FA000C4F20207B94256D028274FE049451BDC4E
:101FB00040F23F47C4F20207B9422DDC40F210471D
:101FC000C4F20207B94246D040F228473EE000BFC3
:101FD0009F27C4F20207B94228DC7027C4F2020727
:101FE000B94238D0882731E040F29F47C4F2020757
:101FF000B94223DC40F27047C4F20207B9422AD04A
:1020000040F2884722E000BF4027C4F20207B942ED
:1020100021D058271AE000BF40F24047C4F202071F
:10202000B94218D040F2584710E000BFA027C4F2D0
:102030000207B9420FD0B82708E000BF40F2A0471E
:10204000C4F20207B94206D040F2B847C4F2020710
:10205000B94218BF04230F681F4214D0AA600A684F
:1020600052030A6808D4D20508D40A6822F008028C
:102070000A60016C21B906E0110351D4016C11B161
:10208000044688472046C16D01F01F02202101FA55
:1020900002F3334200F0AF8001681027514511DC94
:1020A0006F26C4F20206B1421EDC3F26C4F20206CD
:1020B000B14239DC1026C4F20206B1425BD02826B8
:1020C00054E000BF49451BDC40F23F46C4F2020623
:1020D000B14231DC40F21046C4F20206B1424AD0AD
:1020E00040F2284642E000BF9F26C4F20206B142F9
:1020F0002CDC7026C4F20206B1423CD0882635E0C2
:1021000040F29F46C4F20206B14227DC40F270461C
:10211000C4F20206B1422ED040F2884626E000BF4B
:10212000816C0029ACD1AEE74026C4F20206B14270
:1021300021D058261AE000BF40F24046C4F2020601
:10214000B14218D040F2584610E000BFA026C4F2B9
:102150000206B1420FD0B82608E000BF40F2A04608
:10216000C4F20206B14206D040F2B846C4F20206FA
:10217000B14218BF02270E683E423CD0AB6090F8D7
:102180003530042B0B681DD123F016030B604B690F
:1021900023F080034B61036C0BB9836C1BB10B689C
:1021A00023F008030B603F219140A960012180F8D2
:1021B0003510016D00294FF0000280F8342057D10E
:1021C0005AE000BF5A030A680CD4D2050ED40A683C
:1021D00022F010020A60012180F83510002180F8F9
:1021E000341003E0110301D4416C00E0C16B11B164
:1021F000044688472046416D00293DD0416DC907FE
:1022000034D0042180F8351001684FEA98220B6819
:1022100023F001030B60019B0133019393421AD811
:102220000B68DB0717D0019B01330193934212D84F
:102230000B68DB070FD0019B0133019393420AD84F
:102240000B68DB0707D0019B01330193934202D84F
:102250000B68DB07DFD10968C9074FF0030108BF2E
:10226000012180F83510002180F83410C16C19B1BB
:1022700002B0BDE8F047084702B0BDE8F08700BFF4
:10228000D90301D4416CF2E7C16BF0E70B6804237A
:10229000934033427FF4FFAD6DE600BF0B686AE602
:1022A0002DE9F041044600F043FCFCB140F26F48D8
:1022B00005462068C4F2020840451BDC9F21C4F299
:1022C0000201884232DC5721C4F20201884259DC03
:1022D0001021C4F20201884200F083802821C4F258
:1022E0000201884200F07D80402175E00120BDE8B8
:1022F000F08100BF45F22F41C5F60201884229DC7A
:1023000040F2B741C4F20201884247DC40F270411A
:10231000C4F20201884264D040F28841C4F2020152
:1023200088425ED040F2A04156E000BF40F2274113
:10233000C4F20201884241DCA021C4F202018842B9
:102340004FD0B821C4F2020188424AD040F2104175
:1023500042E000BF45F26B41C5F60201884200F33E
:10236000D18045F23041C5F60201884200F0DD809F
:1023700045F24441C5F60201884200F0D68045F29C
:102380005841CDE05821C4F20201884229D0702181
:10239000C4F20201884224D088211DE040F2B841F5
:1023A000C4F2020188421CD045F20841C5F6020180
:1023B000884200F0BA8045F21C41B1E040F2284169
:1023C000C4F2020188420CD040F24041C4F2020142
:1023D000884206D040F25841C4F20201884240F0DF
:1023E0003981022184F83510002184F83410016805
:1023F00021F00101016000BF20680168C9070DD00C
:1024000000F096FB401B0628F6D3202060650320D1
:1024100084F835000120BDE8F08100BF48F23F029A
:1024200004F108060168CFF61062114065694CCED0
:102430001143A2691943E3693143266A0D43616A76
:102440002B43042943EA060343EA020303D1D4E9F8
:102450000B652E4333436568A5F12906292E00F24A
:102460003182DFE816F02B002B002B002B002B0015
:102470002B002F022F022F022F022F022F022F02DA
:102480002F022F022F022F022F022F022F022F02C4
:102490002F022B002B002B002B002F022F022F02CC
:1024A0002F022B002B002F022F022F022F022F02B0
:1024B0002F022B002B002B002B0000BF43F48013B6
:1024C00003600429436923F0070341EA030140F054
:1024D000DD80D4E90A53002B41EA050100F0D680E3
:1024E000B2F5005F00F0B880002A40F0C180022DF4
:1024F00000F0C180012D00F0B580002D00F0BB8000
:10250000C4E000BF45F26C41C5F6020188420CD020
:1025100045F28041C5F60201884206D045F2944159
:10252000C5F60201884240F0958004F1080E0221B0
:1025300084F83510002184F834100168A3699EE8FE
:102540000450A2F18005E769B5FA85F566696D0961
:10255000402A4FEA853543EA07026FF3101142EA39
:10256000060208BF102541EADC0142EA0E02236A96
:10257000294341EAD20141EA131140F80819C0B2D7
:10258000CD2148433C2101EA9020E0652046FEF73A
:10259000EBFDE16D012201F01F0102FA01F1416042
:1025A0002068404500F381809F21C4F202018842E7
:1025B00014DC5721C4F20201884227DC1021C4F246
:1025C0000201884200F0C7802821C4F2020188423B
:1025D00000F0C1804021C4F20201B9E040F227417D
:1025E000C4F20201884221DCA021C4F20201884227
:1025F00000F0B180B821C4F20201884200F0AB8043
:1026000040F21041C4F20201A2E000BF5821C4F21E
:102610000201884200F09F807021C4F202018842CA
:1026200000F099808821C4F2020191E040F2284133
:10263000C4F20201884200F08E8040F24041C4F2B0
:102640000201884200F0878040F25841C4F2020142
:102650007EE000BF4020D9E6032D17D8DFE805F063
:102660000E0B0E02A3F1C072B2FA82F2520904E01C
:10267000032D03D30AD1C3F300623AB14020606551
:10268000012084F83500BDE8F08100BF416120469B
:10269000FEF76AFDE16D3F2201F01F0102FA01F130
:1026A0008160206840457FF77FAF45F22F41C5F636
:1026B0000201884216DC40F2B741C4F202018842AE
:1026C00026DC40F27041C4F20201884243D040F25D
:1026D0008841C4F2020188423DD040F2A041C4F2D8
:1026E000020135E045F26B41C5F6020188421FDC6C
:1026F00045F23041C5F6020188422CD045F24441F2
:10270000C5F60201884226D045F258411EE000BFBE
:1027100040F2B841C4F2020188421CD045F208419F
:10272000C5F60201884216D045F21C410EE000BFFA
:1027300045F26C41C5F6020188420CD045F2944145
:10274000C5F60201884206D045F28041C5F6020175
:10275000884240F0E18045F2574C45F6FC0EC5F644
:10276000020CC5F6020E60450EDC45F22F41C5F69F
:102770000201884218DC45F20841C5F60201884290
:1027800028D045F21C4121E045F27F41C5F6020107
:10279000884213DC45F25841C5F60201884219D03F
:1027A00045F26C4112E000BF45F23041C5F602012E
:1027B00088420FD045F2444108E000BF45F2944101
:1027C000C5F60201884205D045F28041C5F60201F6
:1027D000884247D100F0FC014CF6CD420839CCF6D6
:1027E000CC42A1FB0212AEF1FC05AEF17C0613094E
:1027F000A26803F01F01802A4FF0010205EB830558
:10280000256602FA01F26666A26605D100206060C4
:10281000286072601EE000BF6368D9B25F1E072F98
:102820002960726016D84E1E082E19D260450EF12E
:10283000440237DC45F22F41C5F60201884249DCEB
:1028400045F20841C5F60201884259D045F21C41C3
:1028500052E000BF00206067C4E91B005CE000BFDD
:10286000E06E54E000F0F8014AF6AB221039CAF6E7
:10287000AA22A1FB021240F20F43C4F20203082570
:102880001109984203F1AA060B4688BF05EB121303
:1028900040F60005B042C4F2020505F1800628BFEB
:1028A0000B46A5E745F27F41C5F6020188421BDCD5
:1028B00045F25841C5F60201884221D045F26C41EB
:1028C0001AE000BF25F00307742F08BF43F48013FC
:1028D000F6E500BF45F23041C5F6020188420FD04F
:1028E00045F2444108E000BF45F28041C5F60201CF
:1028F000884205D045F29441C5F60201884213D1C1
:102900000EEB83000121E066B14022676167002180
:102910000160D4E91C01416000206065012184F858
:102920003510BDE8F08100BF40F60000C4F202009F
:1029300000F1FC0E00F5A072E2E7000000000000CC
:10294000B0B5044600F0F4F840F204010546C2F2C6
:102950000041621C097818BF0C4400BF00F0E8F881
:10296000401BA042FAD3B0BD2DE9F04F83B00F68F1
:10297000002F00F0C98000F1264642F2004506F122
:10298000FF76C5F602050A22A8424FEAB62540F2B4
:10299000040C08BF092200F120030093082DC5F69E
:1029A000000C38BF4FEAB622002400264FF0000882
:1029B00001920AE008F101080F6837FA08F206F1FF
:1029C000020604F1040400F09F80012202FA08FECE
:1029D00017EA0E09EED0D1F804B003220BF003077A
:1029E000B2407D1E6FEA020A012D11D88268CD68BF
:1029F00002EA0A02B5402A438260CBF3001542681E
:102A000022EA0E0205FA08F52A43426004E000BFFC
:102A1000032F01D103271FE0C2688D6802EA0A0272
:102A2000B540022F42EA0502C26015D16FF00302E1
:102A300004F01C0502EA580B009A0F2352F80BE031
:102A4000AB400F692EEA0303AF403B4342F80B3023
:102A5000D1F804B00BF00307026807FA06F302EAA4
:102A60000A021BF4403F42EA03020260A2D044F291
:102A7000F44340F2084EC5F60203C5F6000E0F25DA
:102A80001A6842F002021A601A6802F00202029208
:102A900028F00302029B04F00C0352F80E709D40D4
:102AA000AF43019D05FA03F33B4342F80E304FF06C
:102AB000B04EDEF800204B6842EA0907DD0258BF3D
:102AC00022EA09079D02CEF80070DCF8002042EAF5
:102AD000090758BF22EA09079D03CCF80070DCF80B
:102AE000802042EA090758BF22EA0907DB03CCF835
:102AF0008070DCF87C2042EA090758BF22EA090707
:102B0000CCF87C7056E700BF03B0BDE8F08F000042
:102B10000069084018BF0120704700000000000055
:102B2000002A08BF0904816170470000000000000E
:102B300040F20C70C2F200400068704700000000D4
:102B400040F2040040F20C71C2F20040C2F20041B7
:102B500000780A6810440860704700000000000018
:102B600080B5032000F0ACF801F012F944F21841EE
:102B700048F67843C5F60201C0F600030A68C2F3BE
:102B800003229A5C096801F00F0102F01F02595CF0
:102B9000D04040F21002C2F2004201F01F0120FAC0
:102BA00001F1116040F20C01C2F2004108600F20F7
:102BB00000F00AF800281CBF012080BD00F02CF8AE
:102BC000002080BD00000000B0B540F20405C2F254
:102BD00000452978F1B1044640F20C00C2F20040F1
:102BE0004FF47A72B2FBF1F10068B0FBF1F002F041
:102BF000C7F80F2C01464FF001000AD8002918BF72
:102C0000B0BD4FF0FF300022214600F029F800202F
:102C10006C60B0BD0120B0BD81B044F2F440C5F697
:102C20000200016841F002010160006800F002004A
:102C30000090009801B07047002848BF704700F02E
:102C40001F01012202FA01F14EF20012C0F34A10F4
:102C5000CEF2000242F82010704700000000000091
:102C600070B54EF60C5C4FF0FF36CEF2000C00F162
:102C7000604505F56445DCF80030C3F3022E8EF0A4
:102C80000703042B28BF0423BEF1030406FA03F351
:102C900021EA030100F00F0338BF0024043B0028A1
:102CA000634406FA04F048BF03F10C05A14022EA90
:102CB000000008430001287070BD00000000000003
:102CC0004EF60C514FF6FF03CEF200010A681A408F
:102CD00060F30A2242F0806040F0FD7008607047A7
:102CE000B0B544F60C05C5F6020529684907296800
:102CF00006D401F00701081A18BF0120B0BD00BFBB
:102D000021F0070108432860FFF712FF044600BFC7
:102D100055F8080C800407D4FFF70AFF001BB0F534
:102D20007A7FF5D90120B0BD0020B0BD00000000C1
:102D300080B500F0A5FF44F2204148F67842C5F680
:102D40000201C0F600020968C1F30211515C01F0F2
:102D50001F01C84080BD000080B544F2384EC5F662
:102D6000020E5EF8103C5EF8101C5EF80C2CC1F3ED
:102D7000053CDEF80410BCF1000F19D0C9089FED26
:102D80003C1AD20601EAE27103F003026FF35F31ED
:102D900000EE101AB8EE400ADFE802F0022210221C
:102DA0005EF8381C89060DD49FED331A18E000BF79
:102DB00000218160C0E9001180BD00BF9FED2D1A88
:102DC0000EE000BF5EF8381C49F20002C0F2D032BB
:102DD000C1F3C10122FA01F101EE101AB8EE411A55
:102DE000DEF800109FED253A6FF35F2102EE101A16
:102DF000DEF80010C1F34621B8EE422A013100EEA0
:102E0000032A00EE10CAB7EE003AB8EE400A81EE8F
:102E1000000A32EE031A20EE010A01EE101AB8EE93
:102E2000411A80EE011ABCEEC11A80ED001ADEF8DC
:102E30000010C1F30641013101EE101AB8EE411A3B
:102E400080EE011ABCEEC11A80ED011ADEF8001006
:102E5000C1F30661013101EE101AB8EE411A80EE9D
:102E6000010ABCEEC00A10EE101A816080BD00BFDE
:102E70000024744A001BB74B0024744C0000003936
:102E800080B544F2404EC5F6020E5EF8183C5EF87E
:102E9000181C5EF8142CC1F3055CDEF80410BCF1BC
:102EA000000F19D0C9089FED3C1AD20501EAE27162
:102EB00003F003026FF35F3100EE101AB8EE400A20
:102EC000DFE802F0022210225EF8401C89060DD4D1
:102ED0009FED331A18E000BF00218160C0E90011A6
:102EE00080BD00BF9FED2D1A0EE000BF5EF8401CB4
:102EF00049F20002C0F2D032C1F3C10122FA01F15D
:102F000001EE101AB8EE411ADEF800109FED253AD6
:102F10006FF35F2102EE101ADEF80010C1F34621B4
:102F2000B8EE422A013100EE032A00EE10CAB7EED5
:102F3000003AB8EE400A81EE000A32EE031A20EEA3
:102F4000010A01EE101AB8EE411A80EE011ABCEE29
:102F5000C11A80ED001ADEF80010C1F306410131FC
:102F600001EE101AB8EE411A80EE011ABCEEC11A39
:102F700080ED011ADEF80010C1F30661013101EEA7
:102F8000101AB8EE411A80EE010ABCEEC00A10EE2B
:102F9000101A816080BD00BF0024744A001BB74B2B
:102FA0000024744C000000392DE9F0470446C07835
:102FB00044F22C480007C5F6020828D5606E4FEA97
:102FC000305103292AD8DFE801F0030B131B00BF9F
:102FD000D8F8001041F40031C8F8001010E000BF2C
:102FE00004F10800022103F08FFE064680B906E0D6
:102FF00004F12800022103F01BFF064640B9606E71
:10300000D8F8241021F440110843C8F82400002601
:103010006078C00706D135462FE000BF01266078F2
:10302000C007F8D0A06D04283ED83546DFE800F090
:1030300004140E0B0B0000BFD8F80000354640F416
:103040000030C8F800002F46C5B90DE004F1280093
:10305000002103F0EDFE04E004F10800002103F07C
:1030600053FE05462F464DB9D8F82400A16D20F037
:10307000070000250843C8F8240037466078400759
:103080003AD5D4F8A4004FEA7050052818D8DFE8E4
:1030900000F0031D11232323D8F8000040F4003072
:1030A000C8F8000018E000BF01250127607840073C
:1030B000E7D421E004F12800002103F0B9FE0AE082
:1030C00001250126607800071AD44FE004F10800BA
:1030D000002103F019FE05462E461DB16078000759
:1030E0000ED443E0D8F82C00D4F8A41020F46000EB
:1030F00000250843C8F82C003E466078000735D507
:10310000D4F8A8004FEA3060052813D8DFE800F0B3
:1031100004180C1E1E1E00BFD8F8000040F400303A
:10312000C8F8000012E000BF04F12800002103F0FD
:103130007FFE0AE001250127E07880071AD434E0F9
:1031400004F10800002103F0DFFD05462F461DB104
:10315000E07880070ED428E0D8F82C00D4F8A81026
:1031600020F0E06000250843C8F82C003746E078DE
:1031700080071AD5E06C4FEA3010032838D8DFE812
:1031800000F009032D0900BFD8F8000040F400301A
:10319000C8F800002E464DB9D8F82000E16C20F0A8
:1031A000300000250843C8F820003E466078C0067D
:1031B00039D5E06D4FEA3030042847D8DFE800F019
:1031C00004221C0A0A0000BFD8F8000040F40030B6
:1031D000C8F800002F463DBB1CE000BF04F108000A
:1031E000022103F091FD0546002D2E46DED1D3E7E6
:1031F00001250126DAE700BF04F12800002103F0D1
:1032000017FE04E004F10800002103F07DFD0546EF
:103210002F464DB9D8F82400E16D20F4E040002598
:103220000843C8F8240037466078800635D5206EFC
:103230004FEA3040052815D8DFE800F0041A0E04E4
:10324000040400BF2E46DDB91EE000BF01250127A2
:1032500060788006EBD420E004F12800012103F01F
:10326000E7FD0AE0012501266078400619D449E00F
:1032700004F10800012103F047FD05462E461DB16B
:10328000607840060DD43DE0D8F82400216E20F48B
:10329000E02000250843C8F824003E466078400638
:1032A00030D5D4F8AC004FEA307005280ED8DFE8EE
:1032B00000F00313070303032F46ADB918E000BF66
:1032C00004F12800012103F0B3FD0AE001250127E4
:1032D000607800061AD43CE004F10800012103F0F4
:1032E00013FD05462F461DB1607800060ED430E070
:1032F000D8F82C00D4F8AC1020F0E04000250843AA
:10330000C8F82C0037466078000622D5E06E58B128
:10331000B0F1005F0CD0B0F1805F37D1D8F8000079
:1033200040F40030C8F800002E469DB908E000BF08
:1033300004F10800012103F0E7FC05462E464DB9D3
:10334000D8F82400E16E20F0405000250843C8F86A
:1033500024003E46E078C0071DD0A06C032855D855
:10336000DFE800F008024A08D8F8000040F4003016
:10337000C8F80000A9467DB9D8F82000A16C20F05B
:10338000030000250843C8F8200004E001250126B9
:10339000E078C007E1D1B146A078400602D44F469C
:1033A00018E000BFD8F8D40340F48070C8F8D40304
:1033B000FFF7BEFB064600BFD8F8D403C00507D40C
:1033C000FFF7B6FB801B6428F6D90325032701E02D
:1033D0002F46FDB12078C00700F06F80A06F4FEA44
:1033E000F00005284ED8DFE800F00353470303033D
:1033F000002D2E4654D157E004F10800022103F0BD
:1034000083FC0546002DA946C6D1B5E701254FF03E
:103410000109C1E7D8F84410D4F8B000414011F4D4
:10342000407F11D0D8F84410D8F8442042F48032BC
:10343000C8F84420D8F8442021F4407122F48032A6
:10344000C8F84420C8F84410B0F5807F40F0D0821E
:10345000FFF76EFB064641F2883A0325032700BFBB
:10346000D8F84400800700F1C182FFF761FB801BA0
:103470005045F5D9AEE700BF04F12800012103F063
:10348000D7FC0AE0012501262078800719D446E000
:1034900004F10800012103F037FC05462E461DB15A
:1034A000207880070DD43AE0D8F82800A16F20F0EA
:1034B000380000250843C8F828003E4620788007D9
:1034C0002DD5606F05280FD8DFE800F0041408043C
:1034D000040400BF2F46ADB918E000BF04F1280076
:1034E000012103F0A5FC0AE001250127207840070F
:1034F00019D447E004F10800012103F005FC05465A
:103500002F461DB1207840070DD43BE0D8F82800A5
:10351000616F20F0070000250843C8F828003746EF
:10352000207840072ED5D4F8900005280ED8DFE883
:1035300000F00313070303032E46ADB918E000BFE4
:1035400004F12800012103F073FC0AE001250126A3
:10355000207880061AD44BE004F10800012103F022
:10356000D3FB05462E461DB1207880060ED43FE0E1
:10357000D8F82C00D4F8901020F00700002508435C
:10358000C8F82C003E462078800631D5D4F88C004F
:103590004FEA307005280FD8DFE800F00414080463
:1035A000040400BF2F46ADB918E000BF04F12800A5
:1035B000022103F03DFC0AE00125012720784006A6
:1035C0001AD44BE004F10800002103F09DFB0546EE
:1035D0002F461DB1207840060ED43FE0D8F82800D1
:1035E000D4F88C1020F0E04000250843C8F82800EB
:1035F00037462078400631D5D4F898004FEAB020FD
:1036000005280FD8DFE800F004140804040400BF04
:103610002E46ADB918E000BF04F12800022103F0E6
:1036200007FC0AE001250126207800061AD44EE0A6
:1036300004F10800002103F067FB05462E461DB18A
:10364000207800060ED442E0D8F82C00D4F8981068
:1036500020F4E05000250843C8F82C003E462078AE
:10366000000634D5D4F89C004FEA7030052815D8F0
:10367000DFE800F0041A0E04040400BF2F46E5B191
:103680002068010727D4C1063ED4000355D477E053
:1036900004F12800022103F0CBFB0AE001250127F9
:1036A00020680107EFD516E004F10800002103F0BF
:1036B0002BFB0546002D2F46E2D1D8F82C00D4F87C
:1036C0009C1020F4604000250843C8F82C003746C1
:1036D00020680107D7D5D4F88000B0F5805F09D104
:1036E00004F12800022103F0A3FB002818BF0127E2
:1036F000D4F88000D8F8281021F440510843C8F8C5
:1037000028002068C106C0D5D4F89400B0F5807FA9
:1037100009D104F12800022103F08AFB002818BF18
:103720000127D4F89400D8F82C1021F440710843F4
:10373000C8F82C002068000322D5D4F8A000B0F50A
:10374000003F11D0B0F5803F08D0002844D104F1EB
:103750000800002103F0D8FA05E000BF04F12800BA
:10376000022103F065FB05462E4655B9D8F82C001A
:10377000D4F8A01020F4403000250843C8F82C00ED
:103780003E46A07840072CD5D4F88400B0F5401F01
:103790000BD0B0F5001F0BD0B0F5801F2AD1D8F8A0
:1037A000000040F40030C8F800002F46D5B907E00B
:1037B00004F12800012103F03BFB05462F468DB99B
:1037C000D8F82800D4F8841020F4401000250843CD
:1037D000C8F8280005E000BF01250126A0784007B1
:1037E000D2D43746A078C00709D13E462168880068
:1037F00015D532E001250127A078C007F5D0206D4E
:10380000B0F5803F10D018BBD8F8000040F400306D
:10381000C8F800002E4685B1216888001DD4606874
:103820008A0326D465E000BF04F10800022103F0FA
:103830006BFA0546002D2E46EED1D8F82000216DFA
:1038400020F4803000250843C8F82000CDE700BFF1
:103850000125012621688800E1D504F12800022114
:1038600003F0E6FA002818BF0126D4E900108A0305
:103870003FD5E26F6FF0010303EB3223022B0BD332
:103880004FEA322343B1012B40F0AA80D8F8003030
:1038900043F40033C8F8003025B3CA022CD48A029E
:1038A00034D44A003CD4CA0F49D1090251D4C107CB
:1038B0005AD1810763D441076CD4010776D4C1067D
:1038C00000F18080800607D504F12800022103F072
:1038D000AFFA002818BF0125002D18BF0125284682
:1038E000BDE8F087D8F8283023F440731A43C8F8AD
:1038F00028203546CA02D2D5D8F82420236F22F0DA
:1039000000421A43C8F824208A02CAD5D8F82420D5
:10391000A36E22F080721A43C8F824204A00C2D550
:1039200058F81C2C22F4004248F81C2CD4F8B4207F
:1039300058F81C3C1A4348F81C2CCA0FB5D0D8F8CC
:103940002020636D22F040521A43C8F8202009025B
:10395000ADD5D8F82810D4F8882021F440011143BF
:10396000C8F82810C107A4D004F10800002103F012
:10397000CBF9002818BF0546606881079BD504F184
:103980000800012103F0C0F9002818BF054660684F
:10399000410792D504F10800022103F0B5F900288F
:1039A00018BF0546606801077FF589AF04F128005C
:1039B000002103F03DFA002818BF05466068C106E3
:1039C0007FF580AF04F12800012103F031FA0028CF
:1039D00018BF0546606880063FF576AF7CE700BFFC
:1039E0000125CA027FF55BAF86E700BFD4F8B000BF
:1039F0004FF6CF7358F81C2CC0F2FF0300F440714F
:103A000022F47C5203EA10136FF31F30B1F5407FAC
:103A100008BF1A43002548F81C2CD8F84410084366
:103A2000C8F84400FFF7BBBC2DE9F04381B0002883
:103A300000F0208142F200090446C5F20029D9F8BD
:103A4000000000F00F0081420DD9D9F8000020F0ED
:103A50000F000843C9F80000D9F8000000F00F007B
:103A6000884240F00781206844F218464207C5F6B4
:103A700002060AD52269336803F070039A4204D91A
:103A8000336823F070031A43326002070AD5626973
:103A9000736803F070039A4204D9736823F07003CB
:103AA0001A437260C2060AD5A269736803F4E06320
:103AB0009A4204D9736823F4E0631A437260820661
:103AC0000AD5E269B36803F070039A4204D9B36877
:103AD00023F070031A43B26010F002020AD0E368C8
:103AE000376807F00F07BB4204D9376827F00F0784
:103AF0003B433360C3073FD0306820F47062D4E9A1
:103B000001031A433260012856F8182C0AD0032802
:103B100004D002280AD192030BD4ABE0920108D45E
:103B2000A8E000BFD20504D4A4E000BF520740F1D2
:103B3000A180884656F8081C21F00701084346F882
:103B4000080CFEF7F5FF054641F2883756F8080CD9
:103B5000616800F03800B0EBC10F09D0FEF7E8FF54
:103B6000401BB842F2D9032001B0BDE8F08300BF8A
:103B70002068414600F0020252B1E268336803F067
:103B80000F039A4204D2336823F00F031A433260C2
:103B9000D9F8002002F00F0291420CD2D9F800208F
:103BA00022F00F020A43C9F80020D9F8002002F0E1
:103BB0000F028A425ED141070AD52169326802F0BC
:103BC0007002914204D2326822F0700211433160D7
:103BD00001070AD56169726802F07002914204D24D
:103BE000726822F0700211437160C1060AD5A169A2
:103BF000726802F4E062914204D2726822F4E062D8
:103C00001143716080060AD5E069B16801F0700166
:103C1000884204D2B16821F070010843B06000F01E
:103C2000B7F8316848F67842C0F60002C1F30321C4
:103C3000515C336803F00F0301F01F01D25C20FADE
:103C400001F102F01F0040F21002C2F2004221FA1C
:103C500000F0106040F2080040F20C02C2F2004096
:103C6000C2F200420068116001B0BDE8F043FEF707
:103C7000ABBF00BF012001B0BDE8F0830000000031
:103C800080B500F085F844F2184148F67843C5F64F
:103C90000201C0F600030A68C2F303229A5C0968B5
:103CA00001F00F0102F01F02595C20FA02F201F04C
:103CB0001F0040F21001C2F2004122FA00F0086039
:103CC00040F20C01C2F200410A6080BD0000000019
:103CD00080B500F05DF844F2184C48F67843C5F61C
:103CE000020CC0F60003DCF80020C2F303229A5C49
:103CF000DCF8001001F00F0102F01F02595CD04007
:103D000040F21002C2F2004201F01F0120FA01F15C
:103D1000116040F20C02C2F200421060DCF80400B4
:103D2000C0F30210185C00F01F0021FA00F080BD03
:103D300080B500F02DF844F2184C48F67843C5F6EB
:103D4000020CC0F60003DCF80020C2F303229A5CE8
:103D5000DCF8001001F00F0102F01F02595CD040A6
:103D600040F21002C2F2004201F01F0120FA01F1FC
:103D7000116040F20C02C2F200421060DCF8040054
:103D8000C0F30220185C00F01F0021FA00F080BD93
:103D900044F20041C5F602010869C0F3C2000328DD
:103DA00016D002280ED0002832D10868800649F2C9
:103DB0000000C0F2D03058BF70470968C1F3C1019C
:103DC000C840704743F20060C0F26E10704700BFF9
:103DD0008B6A886AD1F82CC04A6BC0F30510E8B131
:103DE000C2F3CC0203F0030300EE102A9FED2A1A5F
:103DF000B8EE400A20EE010A9FED281ADFE803F032
:103E0000022110210A6892060ED49FED261A18E0AE
:103E100040F60010C0F23D00704700BF0020704720
:103E20009FED1F1A0DE000BF0A6849F20003C0F2BF
:103E3000D033C2F3C10223FA02F201EE102AB8EE27
:103E4000411A0A6B9FED183A6FF35F2202EE102AB7
:103E50005FEACC7203FE000A03EE100A086BB8EEAC
:103E6000422AC0F34620B8EE433A013030EE020A4F
:103E7000B7EE002A81EE031A30EE020A21EE000AA4
:103E800001EE100AB8EE411A80EE010ABCEEC00A3B
:103E900010EE100A704700BF000000390024744A79
:103EA000001BB74B0024744C000000000000000011
:103EB00070B3F0B581B00446007844F20046C00704
:103EC000C5F6020626D1207880076AD5306910F041
:103ED0003801B06A42D0182908BF5FEA80703DD02F
:103EE000E0683168002800F02D8121F019010843B5
:103EF0003060FEF71DFE0546306840074AD4FEF7E5
:103F000017FE401B0228F7D9032001B0F0BD00BF07
:103F100001207047306900F03801B06A102905D0DF
:103F200018290BD100F00300022807D13068800364
:103F3000C9D560680028C6D1AAE000BF61683068B2
:103F4000002900F03981B1F5A02F00F02D81B1F5E5
:103F5000803F40F0478140F4803049E130684007BD
:103F6000E06802D5002800F09380316821F0190143
:103F700008433060FEF7DCFD054600BF30684007AF
:103F800008D4FEF7D5FD401B02284FF00300F5D9F9
:103F900001B0F0BD7068216920F0FE4040EA016088
:103FA00070602078C0061AD5306900F03801B06A18
:103FB000082907D0182940F0858000F00300012867
:103FC00040F080803068C00502D5E06980285FD16C
:103FD000F068216A20F07C5040EA0160F0602078AF
:103FE00000073FD42078800656D42078400700F19F
:103FF0008180656A9DB3306900F03800182840F070
:104000001981012DB16A306B42D001F00302A36A1D
:104010009A423DD1C1F30511E26A914238D101467D
:10402000226B6FF35F21013A914231D1C0F34622F6
:10403000616B01398A422BD1C0F30642A16B013971
:104040008A4225D1C0F30660E16B013988421FD155
:10405000706BA16CC0F3CC00814240F0A5810020C0
:1040600001B0F0BD60690028706F59D040F00100C8
:104070007067FEF75DFD0546706F8007B2D4FEF7EE
:1040800057FD401B0228F7D9032001B0F0BD00BF47
:10409000012001B0F0BD00BFA0690028306871D0D8
:1040A00040F480503060FEF743FD054630688004E0
:1040B0009BD4FEF73DFD401B0228F7D9032001B039
:1040C000F0BD00BFE0690028306800F0A18040F03A
:1040D00080003060FEF72CFD054600BF3068C0054B
:1040E0003FF576AFFEF724FD401B02284FF003009A
:1040F000F4D94DE7D6F8000440F48070C6F8000407
:10410000FEF716FD054600BFD6F80004C0052BD407
:10411000FEF70EFD401B6428F6D9032001B0F0BD68
:1041200020F001007067FEF703FD0546706F800701
:104130007FF558AFFEF7FCFC401B02284FF0030050
:10414000F4D925E721F001003060FEF7F1FC0546C7
:10415000306840077FF525AFFEF7EAFC401B0228D8
:104160004FF00300F4D913E7A168306F002900F085
:104170008B80052900F08080012940F09D8040F06F
:1041800001009FE020F480503060FEF7D1FC05462E
:10419000306880047FF529AFFEF7CAFC401B022877
:1041A0004FF00300F4D9F3E640F48020306030682B
:1041B00040F480301CE000BF20F480303060306874
:1041C00020F480203060FEF7B3FC054630688003A1
:1041D0007FF579AEFEF7ACFC401B64284FF003007E
:1041E000F4D9D5E620F480303060306820F48020A7
:1041F0003060FEF79DFC0546306880033FF563AEF6
:10420000FEF796FC401B6428F6D9032001B0F0BDF0
:1042100020F080003060FEF78BFC05463068C0055A
:104220007FF5DDAEFEF784FC401B02284FF0030053
:10423000F4D9ADE6306820F080703060FEF778FC8D
:10424000022D05460CD100BF306880014CD5FEF729
:104250006FFC401B02284FF00300F5D998E600BF21
:10426000306880017FF5FBAEFEF762FC401B022840
:104270004FF00300F4D98BE640F004003067306F54
:1042800040F001001EE000BF20F001003067306FF9
:1042900020F004003067FEF74BFC054641F28837FA
:1042A000306F80077FF5A5AEFEF742FC401BB84299
:1042B0004FF00300F4D96BE620F001003067306F57
:1042C00020F004003067FEF733FC054641F28837E2
:1042D000306F80073FF58DAEFEF72AFC401BB842D9
:1042E0004FF00300F4D953E604F12807B06A40F216
:1042F000F33188438ECF0843591E40EA02104FF431
:104300007E426FF35F21B06202EB47204FF4FE0262
:1043100080B2E36B0844A16B02EB01414FF0FE4217
:1043200001F4FE0102EB0362084402F0FE4108447E
:104330003063F06A4FF6F87120F00100F062706BA4
:10434000A26C884340EAC2007063F06A216C20F0DE
:104350000C000843F062F06A616C20F00200084330
:10436000F062F06A40F48030F062F06A40F40030AD
:10437000F062F06A40F48020F062F06A40F00100E0
:10438000F062306840F080703060FEF7D1FB044688
:10439000306880013FF563AEFEF7CAFB001B0228C0
:1043A0004FF00300F4D9F3E5F06A20F00100F06269
:1043B000FEF7BEFB0546FEF7BBFBA842FBD0706BC9
:1043C0004FF6F871A26C884340EAC2007063F06A4D
:1043D00040F00100F062002001B0F0BD00000000DC
:1043E000704700000000000070B501680B694E695D
:1043F0008A6890F8815034050AD513F0080407D074
:104400008A6942F400628A61BDE8704000F0A8BA8F
:104410001E4006F06403042B08D1416F0446884710
:10442000216F2046BDE87040084700BF06F04503F5
:10443000012B09D1016F0446884706F0220120466E
:10444000022905D070BD00BF06F02603022B03D160
:10445000416FBDE870400847330711D416F4587F08
:10446000F0D0710660D4B1056BD4F10577D4B106F4
:1044700000F18380D0F88410002940F08E80E1E7BD
:104480000268936943F008039361936943F0100352
:104490009361936943F400639361136923F0080304
:1044A0001361926812F4404F19D0044602F05CFD8B
:1044B000012184F88110D4F8841039B32046BDE876
:1044C0007040FFF78DBF00BF0368426E1B6B42F860
:1044D000043B4266B0F86A20013AA0F86A20B0F8BE
:1044E0006A20002AE1D0C268102AEDD2082A05D33A
:1044F0000B8E426E22F8023BEBE700BF026892F897
:104500003020436E1A70426E0132E2E7032D00F054
:104510008D80042D00F08480052D7FF493AF20461C
:10452000BDE8704000F028BC0168D0F8843043F04A
:104530000403C0F884308B6943F040038B61B105FC
:1045400093D50168D0F8843043F00103C0F884307B
:104550008B6943F400738B61F1057FF588AF0168C7
:10456000D0F8843043F00803C0F884308B6943F4FA
:1045700080738B61B1067FF57DAF0168D0F8843020
:1045800043F08003C0F884308B6943F020038B61D3
:10459000D0F8841000293FF455AF016802F440427E
:1045A00040F26B36B2F5404F0B6823F001030B600D
:1045B0000B6923EA06020A612AD18A6847F23904A4
:1045C00022F440428A60C16FC0F6000469B105461A
:1045D00008460C65FDF7FCF80146284629B1D0F8DD
:1045E000841041F04001C0F88410816F00293FF42D
:1045F00029AF0C6504460846FDF7EAF8002808BF15
:1046000070BDD4F8840040F04000C4F8840070BD50
:10461000012180F88110BDE87040FFF7E1BE00BFC6
:104620002046BDE8704000F097B900BF2046BDE8C5
:10463000704000F09DBB000000284DD02DE9F04FE8
:1046400081B043F600040168C4F2000443F2000E96
:1046500043F6004CA142C4F2010EC4F2000C4FF02C
:104660000002826203D0614518BF714542D1C26B1E
:104670000125C368A14203F1080305EB52124FEA7A
:10468000D30303FB02F218BF714527D1102A34D897
:1046900090F8811031B9002180F88010044600F0B4
:1046A000ABF82046022180F88110D0E90019D0F83B
:1046B00018800D68B8F1806F25F001050D608D68D8
:1046C00005F4F81E26D1B9F1000F1BD0B9F5800F03
:1046D00020D1856B25BB19E001207047614518BFCB
:1046E000082A0AD80CF574439942CFD06145CDD041
:1046F000CEE700BFC2680F2AB9D9012001B0BDE8DA
:10470000F08F00BF856BB5F1805F06D10D6845F471
:1047100080550D605FEA492502D44FF0010C0FE08F
:10472000C468072C0AD30D6825F4807C056D45EA22
:104730000C050D604FF0000C07E000BF4FF0000CBF
:104740000C6824F480740C60C468C769836A47EA03
:104750000E07C26B3B4387681A43B9F1000FD0E9DB
:1047600004BA42EA04028A60426B856B436A42EAF9
:104770000302036A42EA050242EA0B0242EA0A0223
:10478000D0E9126442EA0302836D42EA040242EA7B
:10479000070242EA060242EA030242EA080242EA49
:1047A0000902CA600ED00A6DBCF1000F22F00102AE
:1047B0000A6515D1CA68436D22F000421A43CA60E7
:1047C0000EE000BF8A68012363F3CC228A608A6806
:1047D000022363F34A228A600A6D22F001020A650D
:1047E0000021C0F88410012180F88110002001B060
:1047F000BDE8F08F000000002DE9F04FB5B0044691
:1048000002A80830B02100253095CDE93355CDE917
:104810003155FBF7AFFD43F600012068C4F20001FB
:10482000884203D035B0BDE8F08F00BF4FF4805010
:10483000029002A80395FEF7B7FB08B1FCF72CFD28
:1048400044F2E04040F20045C5F60200C5F602051C
:1048500030AE40F210088168C4F2020841F4804191
:10486000816081684FF0020901F480410191019952
:10487000016841F0040101600168002701F00401B2
:1048800001910199016841F002010160006831461F
:1048900000F00200019001980620309005F580603C
:1048A000CDF8C4904FF0030A32974FF0050BCDF8C6
:1048B000CCA0CDF8D0B0FEF757F84FF400503146F9
:1048C000CDE9300932A880E8800C2846FEF74CF884
:1048D00040F24C152720C2F200454FF48066C5E92E
:1048E00001074FF44030C5F80080C5E908072846A5
:1048F000EF60C5E90467C5E90677FDF7D1FC08B1AB
:10490000FCF7CAFCE56708F11800AC6340F2C41577
:10491000C2F200452860282068604020C5E90207EF
:104920004FF40030C5E908072846C5E90467C5E922
:104930000677FDF7B5FC08B1FCF7AEFC2420052195
:104940000022A567AC63FEF78BF92420FEF774F90B
:1049500035B0BDE8F08F0000704700000000000097
:1049600070470000000000002DE9F047044690F871
:104970008000012802D10220BDE8F0879A46154642
:104980000F46D4F80090012084F88000FEF7D0F89C
:1049900094F8811001290BD127B1002D18BFBAF16D
:1049A000000F0BD1002084F880000120BDE8F087C3
:1049B000002084F880000220BDE8F08780460520B2
:1049C00084F881000021C4F884104FF6FF736566F7
:1049D000A4F86AA0A4F868A0E765A4F862A0D4E9E6
:1049E0000002A4F860A0B2F5800F21676167C1687A
:1049F00021F4C021C160416821EA030151444160B2
:104A0000016841F00101016003D1016841F40071C6
:104A10000160E068089D102838D3681C00F0BE8053
:104A200048F20807564606E0FEF782F8A0EB0800B9
:104A3000A84280F0A1805AEA060000F06D8120684B
:104A4000BAF1000F416918BF11F002010BD0E16DFE
:104A500051F8042B0262E165B4F862100139A4F840
:104A60006210B4F862A04169394218BF002EDBD051
:104A7000006B616E41F8040B6166B4F86A0001389E
:104A8000A4F86A00B4F86A60CEE700BF072837D9F7
:104A9000681C00F0C180564606E000BFFEF748F8EB
:104AA000A0EB0800A84267D25AEA060000F0348161
:104AB0002068BAF1000F416918BF11F002010CD053
:104AC000E16D31F8022BA9F82020E165B4F86210FD
:104AD0000139A4F86210B4F862A04069C00718BF99
:104AE000002EDBD0B9F83000616E21F8020B616650
:104AF000B4F86A000138A4F86A00B4F86A60CDE737
:104B0000681C00F0C980574606E000BFFEF710F8A9
:104B1000A0EB0800A8422FD25AEA070000F0FC8060
:104B20002068BAF1000F416918BF11F002010ED0E0
:104B3000E16D097880F82010E06D0130E0652068B3
:104B4000B4F862100139A4F86210B4F862A04169A7
:104B5000C90718BF002FD9D090F83000616E0870D7
:104B6000606E01306066B4F86A000138A4F86A002B
:104B7000B4F86A70CAE700BF204602F0F5F90020D9
:104B800084F88000D4F8840040F48070C4F8840075
:104B9000012084F881000320BDE8F087012048F25D
:104BA0000807012256460FE0FDF7C2FF46EA0A0158
:104BB00032465046002E18BF0122BAF1000F18BF2E
:104BC0000120002900F0A8802168D2074A6918BF97
:104BD00012F002020BD0E26D52F8043B0B62E26568
:104BE000B4F86220013AA4F86220B4F862604A691D
:104BF0003A4018BF012210400128D5D1086B616EE0
:104C000041F8040B6166B4F86A000138A4F86A0040
:104C1000B4F86AA0C8E700BF0120012256460EE0A2
:104C2000FDF786FF46EA0A0132465046002E18BFBD
:104C30000122BAF1000F18BF012000296CD02168B1
:104C4000D2074A6918BF12F0020205D1496908402B
:104C5000C007E5D011E000BFE26D32F8023BA9F8D1
:104C60002030E265B4F86220013AA4F86220B4F87A
:104C7000626049690840C007D2D0B9F83000616E5F
:104C800021F8020B6166B4F86A000138A4F86A00E2
:104C9000B4F86AA0C4E700BF0120012257460DE026
:104CA000FDF746FF47EA0A013A465046002F18BF73
:104CB0000122BAF1000F18BF012069B32168D207A1
:104CC0004A6918BF12F0020204D14A691040C007B5
:104CD000E6D012E0E26D127881F82020E16D01311A
:104CE000E1652168B4F86220013AA4F86220B4F8C2
:104CF00062704A691040C007D2D091F83000616EEE
:104D00000870606E01306066B4F86A000138A4F87B
:104D10006A00B4F86AA0C3E7681C13D02068406931
:104D2000000713D4FDF704FFA0EB0800A842F5D359
:104D3000D4F8840040F02000C4F8840006E000BFEE
:104D4000FDF7F6FE206840690007F9D5204602F01D
:104D50000BF9002084F88000012084F88100D4F849
:104D60008400002818BF0120BDE8F0870000000083
:104D700070470000000000007047000000000000C5
:104D8000411E0020B0EB116F02D00120704700BF20
:104D90004EF21002F023CEF2000251604EF6235183
:104DA000CEF200010B700721906011607047000087
:104DB00090F83C20012A4FF0020266D0B0B580F88E
:104DC0003D2040F2004C0268C4F2010C42F48063C2
:104DD00063455368D2F808E002BF23F470034C68BF
:104DE00023434DF6FF740D68C4F2000423F07003F2
:104DF000A24243EA0503536014DC40F2FF73C4F29D
:104E000000039A4222DD40F60003C4F200039A42F6
:104E10002ED040F60043C4F200039A4228D041F657
:104E2000000321E04FF6FF73C4F200039A4213DD42
:104E30000023C4F201039A421AD044F20003C4F2E0
:104E400001039A4214D0624512D016E0B2F1804FAD
:104E50000ED040F2004307E04EF20003C4F200031C
:104E60009A4205D04EF20043C4F200039A4204D1A4
:104E70002EF080038968194391600022012180F897
:104E80003D1080F83C20BDE8B0401046704700005F
:104E900060B310B5044690F83D0028B9002084F8AE
:104EA0003C00204600F024F8022084F83D002068F1
:104EB000211D02F0D9F9012084F8480084F83E0051
:104EC00084F83F0084F8400084F8410084F84200F0
:104ED00084F8430084F8440084F8450084F84600D0
:104EE00084F8470084F83D00002010BD0120704781
:104EF00080B586B000220068C4F201020021904211
:104F00000591CDE903110291019101D006B080BD58
:104F100044F2E040C5F60200026942F0010202617B
:104F2000026902F001020092009A026842F0100247
:104F30000260006800F01000009000984FF40850E4
:104F400001900220CDE902010120059041F200000C
:104F50000491C5F6020001A9FDF706FD06B080BD6B
:104F600090F83C30012B01D1022070474FEAB20289
:104F7000032A00F29980F0B5DFE802F0026E2E4EAF
:104F80000368D1F80CE0D1E900C41A6A4DF6FF7548
:104F900022F001021A621A46C4F20005AB4252F82E
:104FA000186F1D6A00F3868040F2FF77C4F2000795
:104FB000BB4240F3958040F60007C4F20007BB42B5
:104FC00000F0A08040F60047C4F20007BB4200F0AA
:104FD000998041F6000791E00768D1E900C5D1E961
:104FE000023161F307153A6A22F480723A623A4656
:104FF00052F81C4F3E6A24F0F30426F4206645EA7A
:1050000004010CF00A05116046EA052139621168B5
:1050100021F00C01116086E003684FF2FF0ED1E928
:105020000076D1E902C11A6A360222F480521A626D
:105030001A4626EA0E0661F30F3607F00A0752F801
:105040001C4F1D6A24F4734446EA040125F42046EB
:10505000116046EA07311EE003684FF2FF0ED1E906
:105060000076D1E902C11A6A360222F010021A62F1
:105070001A4626EA0E0661F30F3607F00A0752F8C1
:10508000184F1D6A24F4734446EA040125F0A00673
:10509000116046EA071119624FEA0C23116821F4E6
:1050A000406111603FE000BF0121002280F83C20F8
:1050B000084670474FF6FF77C4F20007BB4215DD84
:1050C0000027C4F20107BB421CD044F20007C4F21F
:1050D0000107BB4216D040F20047C4F201070FE0BF
:1050E000B3F1804F0ED040F2004707E04EF20007C8
:1050F000C4F20007BB4205D04EF20047C4F20007DD
:10510000BB421BD126F00306344325F00A070CF0FE
:105110000A066EF307149C6137441F629F6927F0EB
:105120000C079F618B681168194311600021BDE86D
:10513000F040002280F83C200846704746F0010409
:10514000E3E700000000000060B310B5044690F8EB
:105150003D0028B9002084F83C00204600F024F8E7
:10516000022084F83D002068211D02F07DF8012016
:1051700084F8480084F83E0084F83F0084F840003A
:1051800084F8410084F8420084F8430084F8440025
:1051900084F8450084F8460084F8470084F83D0010
:1051A000002010BD01207047704700000000000083
:1051B00090F83C30012B01D1022070474FEAB20237
:1051C000052A00F223812DE9F041DFE812F0070003
:1051D000BB00570095003100F90000BF036843F69B
:1051E000FF76C4F201061A6AB34222F001021A6283
:1051F0001A461C6AD3F804C024F0020452F818EFCF
:105200008D6844EA0504D1F8008040F3818144F2BE
:105210000007C4F20107BB4200F0858144F6000795
:10522000C4F20107BB4200F07E8144F2004776E100
:10523000036843F6FF77C4F201071A6ABB4222F4FF
:1052400080321A621A46D3F820C05C6852F8546F54
:105250000D68D1F808E040F3DF8044F20007C4F2A3
:105260000107BB4200F0E38044F60007C4F20107E7
:10527000BB4200F0DC8044F20047D4E0036840F217
:10528000004E43F48067C4F2010E1A6A774522F497
:1052900080721A621A461C6A5D6824F4007452F81F
:1052A0001CCF8E6844EA062407D1CE6840F2FF473F
:1052B000360224F44064BE43344343F6FF76D1F80B
:1052C0000080C4F20106B34240F3D28044F20007EA
:1052D000C4F20107BB4200F0D28044F60007C4F2DA
:1052E0000107BB4200F0CB8044F20047C4F2010743
:1052F000BB4200F0C480C9E0036843F6FF77C4F204
:1053000001071A6ABB4222F480521A621A46D3F885
:1053100020C05C6852F81C6F0D68D1F808E040F3BB
:10532000CD8044F20007C4F20107BB4200F0D180F7
:1053300044F60007C4F20107BB4200F0CA8044F201
:105340000047C2E0036840F2004E43F48067C4F2B5
:10535000010E1A6A774522F010021A621A461C6A78
:105360005D6824F0200452F818CF8E6844EA0614D1
:1053700007D1CE686FF0400724F0C00407EA061694
:10538000344343F6FF76D1F80080C4F20106B342FD
:1053900040F3E08044F20007C4F20107BB4200F092
:1053A000E08044F60007C4F20107BB4200F0D98058
:1053B00044F20047C4F20107BB4200F0D280D7E0BC
:1053C000036843F6FF77C4F201071A6ABB4222F46E
:1053D00080121A621A46D3F820C05C6852F8546FE3
:1053E0000D68D1F808E040F3058144F20007C4F2EB
:1053F0000107BB4200F0098144F60007C4F201072F
:10540000BB4200F0028144F20047FAE00121002291
:1054100080F83C20084670470027C4F20107BB42D1
:1054200005D040F20047C4F20107BB4204D14F69E6
:1054300024F4803444EA07244FF68C775C60CFF67E
:10544000FE7703373E402CF4003746EA05045C65DE
:105450004E6809699E6547EA0E471F625F6D47F017
:1054600008075F655F6D27F004075F65EEE000BF2A
:105470000027C4F20107BB4201D0734506D1D1E930
:105480000576374325F4405646EA07154FF68C77E4
:105490005D60CFF6FE7707EA0C0747EA0807DF6191
:1054A0004F680969DF631C62DF6947F00807DF6145
:1054B000DF6927F00407DF61C8E000BF0027C4F2FE
:1054C0000107BB4205D040F20047C4F20107BB42CE
:1054D00004D14F6924F4804444EA871448F6FF4716
:1054E0005C60CFF6FF673E402CF4005746EA052487
:1054F000DC614E6809691E6447EA0E371F62DF6986
:1055000047F40067DF61DF6927F48067DF619CE0B3
:105510000027C4F20107BB4205D040F20047C4F2A5
:105520000107BB4205D1CF6824F00C0427F0040723
:105530003C43B34234DD44F20006C4F20106B342F8
:1055400039D044F60006C4F20106B34233D044F227
:1055500000462CE00027C4F20107BB4201D073458E
:1055600006D1D1E90576374325F4406646EA87053A
:1055700048F6FF475D60CFF6FF6707EA0C0747EA8A
:1055800008279F614F6809699F631C629F6947F400
:1055900000679F619F6927F480679F6155E000BFA6
:1055A0000026C4F20106B34205D040F20046C4F220
:1055B0000106B34206D12CF44077D1E905653743A3
:1055C00047EA050C4FF68C75C3F804C0CFF6FE759C
:1055D0000EEA050747EA08079F614F6809695F639C
:1055E0001C629F6947F008079F619F6927F00407C5
:1055F0009F612BE00027C4F20107BB4205D040F2B7
:105600000047C4F20107BB4204D14F6924F480244F
:1056100044EA872448F6FF475C60CFF6FF6707F54A
:1056200040773E402CF4001746EA05245C654E683E
:105630000969DE6547EA0E571F625F6D47F4006730
:105640005F655F6D27F480675F6509021368194322
:1056500011600021BDE8F041002280F83C2008469E
:10566000704700000000000060B310B5044690F8D9
:105670003D0028B9002084F83C00204600F024F8C2
:10568000022084F83D002068211D01F0EDFD01207D
:1056900084F8480084F83E0084F83F0084F8400015
:1056A00084F8410084F8420084F8430084F8440000
:1056B00084F8450084F8460084F8470084F83D00EB
:1056C000002010BD0120704770470000000000005E
:1056D00080B5C9B10B1F4FF03F0C4FEAB30E432208
:1056E000BEF1040F38BF0CEBB302825C012A13D168
:1056F000BEF1030F1ED8DFE80EF00319111500BF2D
:10570000022280F83F2018E090F83E20012A03D1C1
:10571000022280F83E2010E0012080BD022280F8A5
:1057200041200AE0022280F8422006E0022280F8AE
:10573000402002E0022280F84320026801F01F00AE
:10574000012101FA00F0116A814311624EF2FF312A
:10575000C4F200018A42116A40EA0100106215DCBD
:1057600040F6FF30C4F20000824227DCB2F1804FE5
:105770004ED040F20040C4F20000824248D040F6D1
:105780000000C4F20000824242D053E043F6FF70B2
:105790000021C4F20100C4F20101824244F200007F
:1057A000C4F201001EDC4EF20043C4F200039A4230
:1057B0002ED08A4224D040F200431DE040F6004043
:1057C000C4F20000824223D041F60000C4F200007F
:1057D00082421DD04EF20000C4F20000824217D077
:1057E00028E000BF82420BD044F60003C4F201035C
:1057F0009A4205D044F20043C4F201039A4219D1FF
:10580000536C8A4243F40041516418BF82420BD169
:1058100007219068C0F2010101400020062918BF4D
:10582000B1F5803F06D180BD40F20040C4F20100D6
:105830008242EDD0106840F001001060002080BD71
:10584000B0B5044690F83C0001284FF0020008BFB4
:10585000B0BD012584F83C5084F83D00204601F09D
:10586000BFFD00284FF0010006D084F83D50002114
:1058700084F83C10B0BD00BF2068C16821F0400131
:10588000C160C16821F48041C160002084F83D50AE
:10589000002184F83C10B0BD90F88410012901D19A
:1058A000022070472421C0F8881001680A680B683C
:1058B00022F0005223F001030B60002343660A60CC
:1058C0002021C0F8881080F8843000207047000044
:1058D000704700000000000070470000000000005A
:1058E00090F88420012A01D10220704770B524224B
:1058F000C0F888200268D0F864E0BEF1000FD2F84A
:1059000000C0136823F001031360936823F0606301
:1059100041EA0301916019D0916848F6A44E93685A
:10592000C0F6000E5B0F48F6AC45C1F34266C0F608
:1059300000051EF80340E95C2301B3FBF1F11EF8FA
:105940000630AE5D1B01B3FBF6F301E0012101233C
:10595000A0F86A102021A0F86830C2F800C0C0F892
:105960008810002180F88410002070BD0000000025
:1059700090F88420012A01D10220704770B52422BA
:10598000C0F888200268D0F864E0BEF1000FD2F8B9
:1059900000C0136823F001031360936823F0604391
:1059A00041EA0301916019D0916848F6A44E9368CA
:1059B000C0F6000E5B0F48F6AC45C1F34266C0F678
:1059C00000051EF80340E95C2301B3FBF1F11EF86A
:1059D0000630AE5D1B01B3FBF6F301E001210123AC
:1059E000A0F86A102021A0F86830C2F800C0C0F802
:1059F0008810002180F88410002070BD0000000095
:105A00007047000000000000704700000000000028
:105A1000704700000000000070B5016840F62F02DA
:105A2000CB691A40202A0A688E680BD102F0200444
:105A300006F080552D1917D0416F69B3BDE870404D
:105A4000084700BF40F60F052B420DD0012540F25C
:105A50002014C1F20005C0F2004406EA050C02EA77
:105A6000040515EB0C0525D1DD06C46E16D5012CF9
:105A700014D112F0100511D010220A62896849066B
:105A800066D4B0F85C10B0F85E20B0F85E30002B41
:105A900018BF914240F05C8270BD00BFDD0215D599
:105AA00016F4800512D04FF480120A62BDE87040EF
:105AB000FFF7AABFDD0718BF12F4807540F01E8102
:105AC0009D0706F0010E00F125812EE1190606D58D
:105AD00002F0800106F40006891940F0BF825906E1
