:020000040800F2
:10000000180A0024E1020008193F0008A13D000879
:10001000113F0008F1090008F94300080000000042
:100020000000000000000000000000007142000815
:10003000410B000800000000213F00087942000841
:10004000FB020008FB020008FB020008FB0200089C
:10005000FB020008FB020008FB020008FB0200088C
:10006000FB020008FB020008FB020008F909000877
:10007000090A0008FB020008FB020008FB02000856
:10008000FB020008FB020008FB020008FB0200085C
:10009000FB020008FB020008FB020008FB0200084C
:1000A000FB020008FB020008FB020008FB0200083C
:1000B000FB020008FB020008FB020008FB0200082C
:1000C000FB020008FB020008FB020008FB0200081C
:1000D00079410008FB020008FB020008FB0200084F
:1000E000FB020008FB02000800000000FB02000801
:1000F000FB020008FB020008FB020008FB020008EC
:10010000FB020008FB020008FB020008FB020008DB
:10011000FB020008FB020008FB020008FB020008CB
:10012000FB020008FB020008FB020008FB020008BB
:10013000FB020008FB020008FB020008FB020008AB
:1001400000000000000000000000000000000000AF
:10015000FB020008FB020008FB020008FB0200088B
:10016000FB020008FB020008FB020008FB0200087B
:10017000FB020008FB020008FB0200080000000070
:10018000FB020008FB020008FB020008FB0200085B
:10019000FB020008FB020008FB020008FB0200084B
:1001A000FB020008FB020008FB0200080000000040
:1001B000FB020008FB020008FB020008FB0200082B
:1001C000FB020008FB020008000000000000000025
:1001D0000000000000000000FB020008000000001A
:1001E000000000000000000000000000000000000F
:1001F0000000000000000000FB020008FB020008F5
:10020000FB020008FB02000800000000FB020008DF
:10021000FB020008FB020008FB020008FB020008CA
:10022000FB02000800000000FB02000800000000C4
:10023000FB020008FB02000800000000FB020008AF
:10024000FB020008FB020008FB020008FB0200089A
:10025000FB020008FB020008FB020008FB0200088A
:10026000FB020008FB020008FB020008FB0200087A
:10027000FB020008FB020008FB020008000000006F
:10028000FB020008FB020008FB020008FB0200085A
:1002900000000000FB020008FB0200080000000054
:1002A00000000000FB020008FB020008FB0200083F
:1002B000FB020008FB020008FB020008FB0200082A
:1002C000FB020008FB020008FB020008DFF80CD06C
:1002D00000F02AF80048004779480008180A00246E
:1002E0000648804706480047FEE7FEE7FEE7FEE7D0
:1002F000FEE7FEE7FEE7FEE7FEE7FEE7494300080C
:10030000CD020008D2B201E000F8012B491EFBD259
:1003100070470022F6E710B513460A460446194610
:10032000FFF7F0FF204610BD1CB5094800900948B2
:1003300001900546009C06E0E06840F0010394E867
:10034000070098471034AC42F6D3FFF7C3FF000014
:10035000084C0008284C000840F600000121C5F6B2
:100360000200012201F098BD40F600000121C5F60F
:100370000200002201F090BD704700000000000064
:1003800040F600000821C5F60200012201F084BDFC
:1003900040F600000821C5F60200002201F07CBDF5
:1003A0007047000000000000002808BF704710B52B
:1003B0004EF2180145F2003CCEF20001C0F2070CEB
:1003C00003E000BF013802041AD051F804EC0B68B6
:1003D000002208E01A449C42A2EB0402234628BFF4
:1003E00072446245EED20C689C42F3D10C689C4288
:1003F00004BF0C689C42EDD10C689C42F3D0E9E745
:10040000BDE810407047000080B54EF21801C0EB07
:100410000010CEF200014FEA401E002351F804CC38
:100420000A6808E013449042A3EB0003024628BF89
:10043000634473450CD208689042F3D10868904237
:1004400004BF08689042EDD108689042F3D0E9E714
:1004500080BD0000000000002DE9F04F81B02DEDBF
:10046000068B9FED4E8A40F23000B0EE489AB0EE17
:1004700048AAC2F200404FF0000BC0E901BBC0F82F
:100480000CB080F800B007E00A20FFF78DFFBBF149
:10049000630F0BF1010B49D2FFF77AFF802000F0C8
:1004A0008FFA552000F08CFA0446552000F088FAA7
:1004B000552000F085FA8046552000F081FA074665
:1004C000552000F07DFA8146552000F079FA064665
:1004D000552000F075FA8246552000F071FA054665
:1004E000FFF74EFF0F2CCFD148EA072000B249EAB0
:1004F000062109B200EE100A4AEA052001EE101AA0
:1005000000B240F2140103EE100AB8EEC00AB8EED1
:10051000C11AC2F20041B8EEC33A91ED012AA0EE31
:10052000028AA1EE02AAA3EE029AADE740F23007DA
:100530009FED1B0AC2F2004788EE001A8AEE002ADD
:1005400041F26F2189EE000A49F6A6324CF28F2360
:1005500087ED051A87ED062A012087ED070AC3F605
:10056000832138700020C7E90800C7E90A00386312
:10057000C3F644327863C3F6F543C7E90E12C7E900
:100580001030C7E91200C7E91400C7E91601C7E92E
:100590001823BDEC068B01B0BDE8F08F0000000011
:1005A0000000C8420000000010B5FFF7E5FEFFF7AD
:1005B000F7FE03F025FF044604F04EF8204310BD7B
:1005C0002DE9F04F81B02DED0C8B82B0CDE90010FC
:1005D000FFF7CAFE922000F0F3F9922000F0F0F944
:1005E000552000F0EDF98046552000F0E9F98246EB
:1005F000552000F0E5F90546552000F0E1F90746E1
:10060000552000F0DDF90646552000F0D9F90446E2
:10061000FFF7A2FE45EA072040F2140100B2C2F241
:10062000004100EE100A46EA042000B291ED00BA43
:10063000B8EEC08A00EE100A48EA0A2005B2B8EE09
:10064000C09AFFF7A5FE802000F0BAF9552000F00F
:10065000B7F90646552000F0B3F9552000F0B0F97F
:100660008246552000F0ACF98146552000F0A8F9EB
:100670008346552000F0A4F90446552000F0A0F967
:100680000746552000F09CF900EE105A2BEE088A20
:100690002BEE099A8046B8EEC00A2BEE00AAFFF7AF
:1006A0006FFE0F2E20D14AEA092000B24BEA042146
:1006B00009B200EE100A47EA082001EE101A00B253
:1006C00040F2140103EE100AB8EEC00AB8EEC11AE7
:1006D000C2F20041B8EEC33A91ED012A22EE00DAEF
:1006E00022EE01CA22EE03BAFFF73EFEA22000F07E
:1006F00067F9A22000F064F9552000F061F946B2D4
:100700000446552000F05CF90546FFF725FE29EE6A
:10071000090AE0004FF6000140EA5510CFF6FF71DC
:10072000002EA8EE080AB4EE001A48BF0843B3EE44
:10073000072A40F23004C2F20044F1EEC00A00EE93
:10074000100A0098B8EEC00AA0EE012AB0EE4A0ADC
:1007500080ED002A20690130206104F0C3F8B0EE7A
:1007600040AAB0EE480AF0EE490A04F0BBF820783F
:10077000012840F0A98094ED0B4A9FED8D7AB0EEF0
:10078000441A94ED0D3AD4ED140A94ED052AF0EED6
:10079000603A3DEE422A93EE471A94ED0C5A94EDDE
:1007A000166AD4ED092AD6EE473AD4ED0E1A32EE87
:1007B000622ADFED7C5AD4ED127AD4ED176A31EE5D
:1007C000451AA3EE074AA3EE075A71EE214A94EDAB
:1007D000081AD4ED151AA2EE251A33EEE12AD4ED4B
:1007E0000A3AE4EEA53AD4ED064A7CEE644A72EE8B
:1007F000266A94ED0F2AA2EE253A94ED112A74EEA2
:10080000E74AE6EE070AE6EE071A94ED187AA4EE38
:10081000A52AD4ED134AE6EEA54ADFED636A2AEE77
:10082000268AA7EE256A9FED617A20EE260AC8EE99
:10083000075A94ED108A33EE888A80EE070A75EE27
:10084000C15AC5EE086A83EE887A30EE420AE6EEB7
:10085000A52AA6EEE35AA6EEC43AD4ED196A74EEC0
:10086000A66AC4ED092AE7EE633A84ED0C5AA7EEB6
:10087000444A84ED0D3A81EEA68AC4EEA66AC4ED20
:100880000A3AA7EE251A84ED0B4AE8EE007AE8EE64
:10089000641AA8EE606A84ED081AE6EEE44AC4ED34
:1008A000127AE6EEE00AC4ED151AA6EE802A94ED5F
:1008B000070AC4ED134A3BEE40BAC4ED140A84EDB6
:1008C000166A84ED112A09E094ED011A9FED350AAC
:1008D00094ED022AADEE001AACEE002A94ED030A64
:1008E0009FED303AABEE030A9FED2F3A84ED011AEB
:1008F00084ED022AB4EE430AF1EE10FA1EDD9FEDFC
:100900002D4A00BF30EE040AB4EE430AF1EE10FAAD
:10091000C1BF30EE040AB4EE430AF1EE10FA30EE35
:10092000040AC4BFB4EE430AF1EE10FA06DD30EE5D
:10093000040AB4EE430AF1EE10FAE3DC9FED1E3A2E
:10094000B4EE430AF1EE10FA1DDA9FED1C4A30EEC8
:10095000040AB4EE430AF1EE10FA14DA30EE040A97
:10096000B4EE430AF1EE10FABEBF30EE040AB4EE64
:10097000430AF1EE10FA06DA30EE040AB4EE430A46
:10098000F1EE10FAE3DB019884ED030A80ED001A22
:1009900080ED012A80ED020A02B0BDEC0C8B01B0A3
:1009A000BDE8F08F0AD7233C00003443DB0F4940F9
:1009B0000AD723BC0000B4C3000034C30000B44312
:1009C00080B582B08DF8070040F28810C2F2004076
:1009D0000DF107010DF1060201234FF47A7CCDF8E9
:1009E00000C002F0B9FF9DF8060002B080BD000013
:1009F000FEE700000000000040F29800C2F2004054
:100A000000F006BA0000000040F21010C2F20040F0
:100A100000F0FEB90000000040F20F42D0F800C024
:100A2000C4F20202944511DC6F22C4F20202944522
:100A300022DC3F22C4F20202944539DC1022C4F2C7
:100A4000020294455AD0282254E000BF40F26F427F
:100A5000C4F2020294451BDC40F23F42C4F202029F
:100A600094452DDC40F21042C4F20202944545D078
:100A700040F228423EE000BF9F22C4F202029445A9
:100A800028DC7022C4F20202944537D0882231E07B
:100A900040F29F42C4F20202944523DC40F27042CD
:100AA000C4F20202944529D040F2884222E000BFFD
:100AB0004022C4F20202944520D058221AE000BF1E
:100AC00040F24042C4F20202944517D040F258422C
:100AD00010E000BFA022C4F2020294450ED0B8225A
:100AE00008E000BF40F2B842C4F20202944505D0CB
:100AF00040F2A042C4F20202944517D10CF0F80271
:100B00004AF6AB23103ACAF6AA23A2FB03310AA382
:100B10005F2AC1F302115B5C40F2FF312CEA010154
:100B2000C36588BF04318165084670472CF0FF011A
:100B300081650846704700BF0006101600061016B3
:100B40007047000000000000EFF3108072B600BF95
:100B5000FEE7000000000000F0B190F83510022917
:100B600018D180B540F20F420168C4F202029142EE
:100B700014DC6F23C4F20203994225DC3F23C4F244
:100B8000020399423CDC1023C4F2020399425DD077
:100B9000282357E0802141650120704740F26F43D0
:100BA000C4F2020399421BDC40F23F43C4F2020349
:100BB00099422DDC40F21043C4F20203994245D021
:100BC00040F228433EE000BF9F23C4F20203994253
:100BD00028DC7023C4F20203994237D0882331E025
:100BE00040F29F43C4F20203994223DC40F2704377
:100BF000C4F20203994229D040F2884322E000BFA8
:100C00004023C4F20203994220D058231AE000BFC7
:100C100040F24043C4F20203994217D040F25843D5
:100C200010E000BFA023C4F2020399420ED0B82303
:100C300008E000BF40F2B843C4F20203994205D075
:100C400040F2A043C4F20203994275D191424FF0A1
:100C5000040280F8352011DC6F20C4F202008142CA
:100C600022DC3F20C4F20200814239DC1020C4F2B1
:100C70000200814259D0282054E000BF40F26F406A
:100C8000C4F2020081421BDC40F23F40C4F2020089
:100C900081422DDC40F21040C4F20200814244D077
:100CA00040F228403EE000BF9F20C4F20200814293
:100CB00028DC7020C4F20200814236D0882031E066
:100CC00040F29F40C4F20200814223DC40F27040B7
:100CD000C4F20200814228D040F2884022E000BFE6
:100CE0004020C4F2020081421FD058201AE000BF09
:100CF00040F24040C4F20200814216D040F2584017
:100D000010E000BFA020C4F2020081420DD0B82044
:100D100008E000BF40F2B840C4F20200814204D0B3
:100D200040F2A040C4F202008142086820F00100B5
:100D30000860002080BD00BF0A6822F00E020A6031
:100D400045F25742C5F6020291420A6822F00102BA
:100D50000A600FDC45F22F42C5F60202914219DC0F
:100D600045F20842C5F60202914229D045F21C42E2
:100D700022E000BF45F27F42C5F60202914213DC39
:100D800045F25842C5F60202914219D045F26C4232
:100D900012E000BF45F23042C5F6020291420FD088
:100DA00045F2444208E000BF45F29442C5F6020213
:100DB000914205D045F28042C5F6020291421AD115
:100DC000D0E9181CD0E916E30A6822F480720A60A0
:100DD00003F01F01012202FA01F1CEF80410816E26
:100DE000CCF80410C16E31B10A6822F480720A6036
:100DF000D0E91C124A60012180F83510016D0022F3
:100E0000002980F8342094D08847002080BD00005D
:100E10002DE9F04782B00021019140F20C0148F227
:100E2000B513C2F20041C1F64E33856D40F26F49F1
:100E30000A680168C4F202092E68A2FB032849452A
:100E40002A6815DC9F22C4F2020291422CDC572250
:100E5000C4F20202914251DC1022C4F20202914219
:100E60007BD02822C4F20202914276D040226FE069
:100E700045F22F43C5F60203994229DC40F2B743FD
:100E8000C4F20203994245DC40F27042C4F202020D
:100E9000914262D040F28842C4F2020291425CD098
:100EA00040F2A04254E000BF40F22742C4F20202E6
:100EB00091423FDCA022C4F2020291424DD0B822FE
:100EC000C4F20202914248D040F2104240E000BF1A
:100ED00045F26B43C5F60203994275DC45F2304397
:100EE000C5F60203994200F0828045F24443C5F6FC
:100EF000020399427BD045F2584373E05822C4F272
:100F00000202914229D07022C4F20202914224D0FE
:100F100088221DE040F2B843C4F2020399421CD07B
:100F200045F20843C5F60203994260D045F21C43DE
:100F300058E000BF40F22842C4F2020291420CD0B5
:100F400040F24042C4F20202914206D040F25842BE
:100F5000C4F20202914240F05383C26D082302F0B2
:100F60001F0240F20F4A9340C4F2020A334200F0DB
:100F7000DE8051454FF0040412DC6F27C4F20207F3
:100F8000B9426DDC3F27C4F20207B94200F39C80EE
:100F90001027C4F20207B94200F0BD802827B5E04F
:100FA000494569DC40F23F47C4F20207B94200F309
:100FB000938040F21047C4F20207B94200F0AB80C0
:100FC00040F22847A2E000BF45F26C43C5F6020399
:100FD00099420CD045F28043C5F60203994206D0EF
:100FE00045F29443C5F60203994240F009830B6829
:100FF000C76D07F01F070426BE40164218BF13F046
:10100000040423D10226BE40164218BF13F0020486
:1010100042D1FA40120740F1F38213F0080200F0C7
:10102000EF820A6822F00E020A60012101FA07F23B
:101030006A60416580F83510C16C00294FF00002EC
:1010400080F8342040F0D882DAE200BF1A046E60E3
:1010500034D49A0636D40A6822F004020A6031E0D9
:101060009F27C4F20207B94240DC7027C4F202078E
:10107000B94250D0882749E040F29F47C4F20207A6
:10108000B9423BDC40F27047C4F20207B94242D099
:1010900040F288473AE000BF1A046E6000F1B48263
:1010A0009A0600F1B5820A6822F00A020A6001215C
:1010B00080F83510002180F83410A9E2D90301D45A
:1010C000816C98E2016C96E24027C4F20207B942B3
:1010D00021D058271AE000BF40F24047C4F202076F
:1010E000B94218D040F2584710E000BFA027C4F220
:1010F0000207B9420FD0B82708E000BF40F2A0476E
:10110000C4F20207B94206D040F2B847C4F202075F
:10111000B94218BF08240F68274208D00F6827F08B
:1011200004070F60AB60436D43F001034365012387
:10113000934033426FD0514510DC6F27C4F2020751
:10114000B9421DDC3F27C4F20207B94234DC102744
:10115000C4F20207B94256D028274FE049451BDCAC
:1011600040F23F47C4F20207B9422DDC40F210477B
:10117000C4F20207B94246D040F228473EE000BF21
:101180009F27C4F20207B94228DC7027C4F2020785
:10119000B94238D0882731E040F29F47C4F20207B5
:1011A000B94223DC40F27047C4F20207B9422AD0A8
:1011B00040F2884722E000BF4027C4F20207B9424C
:1011C00021D058271AE000BF40F24047C4F202077E
:1011D000B94218D040F2584710E000BFA027C4F22F
:1011E0000207B9420FD0B82708E000BF40F2A0477D
:1011F000C4F20207B94206D040F2B847C4F202076F
:10120000B94240F007824F693F0604D5AB60436D99
:1012100043F0020343650423934033426FD05145AA
:1012200010DC6F27C4F20207B9421DDC3F27C4F26D
:101230000207B94234DC1027C4F20207B94256D083
:1012400028274FE049451BDC40F23F47C4F2020724
:10125000B9422DDC40F21047C4F20207B94246D031
:1012600040F228473EE000BF9F27C4F20207B94280
:1012700028DC7027C4F20207B94238D0882731E051
:1012800040F29F47C4F20207B94223DC40F27047A4
:10129000C4F20207B9422AD040F2884722E000BFD8
:1012A0004027C4F20207B94221D058271AE000BFF4
:1012B00040F24047C4F20207B94218D040F2584702
:1012C00010E000BFA027C4F20207B9420FD0B82730
:1012D00008E000BF40F2A047C4F20207B94206D0BE
:1012E00040F2B847C4F20207B94240F09B810F6850
:1012F000BF0704D5AB60436D43F00403436510237F
:1013000003FA02F2324200F0828051454FF00803A6
:1013100010DC6F27C4F20207B9421DDC3F27C4F27C
:101320000207B94234DC1027C4F20207B94256D092
:1013300028274FE049451BDC40F23F47C4F2020733
:10134000B9422DDC40F21047C4F20207B94246D040
:1013500040F228473EE000BF9F27C4F20207B9428F
:1013600028DC7027C4F20207B94238D0882731E060
:1013700040F29F47C4F20207B94223DC40F27047B3
:10138000C4F20207B9422AD040F2884722E000BFE7
:101390004027C4F20207B94221D058271AE000BF03
:1013A00040F24047C4F20207B94218D040F2584711
:1013B00010E000BFA027C4F20207B9420FD0B8273F
:1013C00008E000BF40F2A047C4F20207B94206D0CD
:1013D00040F2B847C4F20207B94218BF04230F68AD
:1013E0001F4214D0AA600A6852030A6808D4D205C2
:1013F00008D40A6822F008020A60016C21B906E0EC
:10140000110351D4016C11B1044688472046C16DC7
:1014100001F01F02202101FA02F3334200F0AF80F5
:1014200001681027514511DC6F26C4F20206B14253
:101430001EDC3F26C4F20206B14239DC1026C4F29B
:101440000206B1425BD0282654E000BF49451BDCB0
:1014500040F23F46C4F20206B14231DC40F210468F
:10146000C4F20206B1424AD040F2284642E000BF30
:101470009F26C4F20206B1422CDC7026C4F202069A
:10148000B1423CD0882635E040F29F46C4F20206C5
:10149000B14227DC40F27046C4F20206B1422ED0BF
:1014A00040F2884626E000BF816C0029ACD1AEE74F
:1014B0004026C4F20206B14221D058261AE000BFED
:1014C00040F24046C4F20206B14218D040F25846FB
:1014D00010E000BFA026C4F20206B1420FD0B82629
:1014E00008E000BF40F2A046C4F20206B14206D0B6
:1014F00040F2B846C4F20206B14218BF02270E6895
:101500003E423CD0AB6090F83530042B0B681DD1C7
:1015100023F016030B604B6923F080034B61036CCF
:101520000BB9836C1BB10B6823F008030B603F21E0
:101530009140A960012180F83510016D00294FF01C
:10154000000280F8342057D15AE000BF5A030A68DD
:101550000CD4D2050ED40A6822F010020A600121D0
:1015600080F83510002180F8341003E0110301D415
:10157000416C00E0C16B11B1044688472046416DC3
:1015800000293DD0416DC90734D0042180F83510C1
:1015900001684FEA98220B6823F001030B60019B5E
:1015A0000133019393421AD80B68DB0717D0019BD4
:1015B00001330193934212D80B68DB070FD0019BD4
:1015C0000133019393420AD80B68DB0707D0019BD4
:1015D00001330193934202D80B68DB07DFD109681E
:1015E000C9074FF0030108BF012180F83510002121
:1015F00080F83410C16C19B102B0BDE8F04708475B
:1016000002B0BDE8F08700BFD90301D4416CF2E716
:10161000C16BF0E70B680423934033427FF4FFADC6
:101620006DE600BF0B686AE62DE9F041044600F064
:101630003BFCFCB140F26F4805462068C4F202084A
:1016400040451BDC9F21C4F20201884232DC572155
:10165000C4F20201884259DC1021C4F2020188421E
:1016600000F083802821C4F20201884200F07D80CE
:10167000402175E00120BDE8F08100BF45F22F4117
:10168000C5F60201884229DC40F2B741C4F20201EA
:10169000884247DC40F27041C4F20201884264D0C3
:1016A00040F28841C4F2020188425ED040F2A0417B
:1016B00056E000BF40F22741C4F20201884241DCFB
:1016C000A021C4F2020188424FD0B821C4F2020125
:1016D00088424AD040F2104142E000BF45F26B41DF
:1016E000C5F60201884200F3D18045F23041C5F6CB
:1016F0000201884200F0DD8045F24441C5F6020156
:10170000884200F0D68045F25841CDE05821C4F21D
:101710000201884229D07021C4F20201884224D0FB
:1017200088211DE040F2B841C4F2020188421CD079
:1017300045F20841C5F60201884200F0BA8045F240
:101740001C41B1E040F22841C4F2020188420CD0B1
:1017500040F24041C4F20201884206D040F25841B2
:10176000C4F20201884240F03981022184F8351028
:10177000002184F83410016821F00101016000BFEC
:1017800020680168C9070DD000F08EFB401B0628B9
:10179000F6D320206065032084F835000120BDE8E1
:1017A000F08100BF48F23F0204F108060168CFF65D
:1017B0001062114065694CCE1143A2691943E36977
:1017C0003143266A0D43616A2B43042943EA060329
:1017D00043EA020303D1D4E90B652E433343656822
:1017E000A5F12906292E00F23182DFE816F02B0040
:1017F0002B002B002B002B002B002F022F022F027F
:101800002F022F022F022F022F022F022F022F0250
:101810002F022F022F022F022F022B002B002B0052
:101820002B002F022F022F022F022B002B002F0242
:101830002F022F022F022F022F022B002B002B0032
:101840002B0000BF43F4801303600429436923F095
:10185000070341EA030140F0DD80D4E90A53002B7D
:1018600041EA050100F0D680B2F5005F00F0B880D3
:10187000002A40F0C180022D00F0C180012D00F04F
:10188000B580002D00F0BB80C4E000BF45F26C4184
:10189000C5F6020188420CD045F28041C5F602012E
:1018A000884206D045F29441C5F60201884240F0D4
:1018B000958004F1080E022184F83510002184F887
:1018C00034100168A3699EE80450A2F18005E7691D
:1018D000B5FA85F566696D09402A4FEA853543EA10
:1018E00007026FF3101142EA060208BF102541EA11
:1018F000DC0142EA0E02236A294341EAD20141EAAD
:10190000131140F80819C0B2CD2148433C2101EA27
:101910009020E0652046FFF77FF8E16D012201F09D
:101920001F0102FA01F141602068404500F3818007
:101930009F21C4F20201884214DC5721C4F2020143
:10194000884227DC1021C4F20201884200F0C780DF
:101950002821C4F20201884200F0C1804021C4F273
:101960000201B9E040F22741C4F20201884221DCC1
:10197000A021C4F20201884200F0B180B821C4F273
:101980000201884200F0AB8040F21041C4F2020133
:10199000A2E000BF5821C4F20201884200F09F80FB
:1019A0007021C4F20201884200F099808821C4F2BB
:1019B000020191E040F22841C4F20201884200F0A5
:1019C0008E8040F24041C4F20201884200F08780DC
:1019D00040F25841C4F202017EE000BF4020D9E647
:1019E000032D17D8DFE805F00E0B0E02A3F1C0722D
:1019F000B2FA82F2520904E0032D03D30AD1C3F3F1
:101A000000623AB140206065012084F83500BDE8ED
:101A1000F08100BF41612046FEF7FEFFE16D3F22ED
:101A200001F01F0102FA01F18160206840457FF753
:101A30007FAF45F22F41C5F60201884216DC40F225
:101A4000B741C4F20201884226DC40F27041C4F280
:101A50000201884243D040F28841C4F20201884228
:101A60003DD040F2A041C4F2020135E045F26B41A5
:101A7000C5F6020188421FDC45F23041C5F602017D
:101A800088422CD045F24441C5F60201884226D056
:101A900045F258411EE000BF40F2B841C4F20201D5
:101AA00088421CD045F20841C5F60201884216D092
:101AB00045F21C410EE000BF45F26C41C5F6020143
:101AC00088420CD045F29441C5F60201884206D006
:101AD00045F28041C5F60201884240F0E18045F2BE
:101AE000574C45F6FC0EC5F6020CC5F6020E6045D5
:101AF0000EDC45F22F41C5F60201884218DC45F2A2
:101B00000841C5F60201884228D045F21C4121E077
:101B100045F27F41C5F60201884213DC45F2584187
:101B2000C5F60201884219D045F26C4112E000BFAF
:101B300045F23041C5F6020188420FD045F24441DA
:101B400008E000BF45F29441C5F60201884205D085
:101B500045F28041C5F60201884247D100F0FC0100
:101B60004CF6CD420839CCF6CC42A1FB0212AEF1C4
:101B7000FC05AEF17C061309A26803F01F01802A60
:101B80004FF0010205EB8305256602FA01F2666655
:101B9000A26605D100206060286072601EE000BF70
:101BA0006368D9B25F1E072F2960726016D84E1E77
:101BB000082E19D260450EF1440237DC45F22F4160
:101BC000C5F60201884249DC45F20841C5F602012A
:101BD000884259D045F21C4152E000BF00206067A6
:101BE000C4E91B005CE000BFE06E54E000F0F801C7
:101BF0004AF6AB221039CAF6AA22A1FB021240F221
:101C00000F43C4F2020308251109984203F1AA0602
:101C10000B4688BF05EB121340F60005B042C4F234
:101C2000020505F1800628BF0B46A5E745F27F4176
:101C3000C5F6020188421BDC45F25841C5F6020197
:101C4000884221D045F26C411AE000BF25F003071D
:101C5000742F08BF43F48013F6E500BF45F230410E
:101C6000C5F6020188420FD045F2444108E000BFAA
:101C700045F28041C5F60201884205D045F2944103
:101C8000C5F60201884213D10EEB83000121E06604
:101C9000B1402267616700210160D4E91C01416005
:101CA00000206065012184F83510BDE8F08100BF97
:101CB00040F60000C4F2020000F1FC0E00F5A07234
:101CC000E2E7000000000000B0B5044600F0ECF8C8
:101CD00040F204010546C2F20041621C097818BFB7
:101CE0000C4400BF00F0E0F8401BA042FAD3B0BDA6
:101CF0002DE9F04F83B00F68002F00F0C98000F18C
:101D0000264642F2004506F1FF76C5F602050A2294
:101D1000A8424FEAB62540F2040C08BF092200F1A0
:101D200020030093082DC5F6000C38BF4FEAB622F9
:101D3000002400264FF0000801920AE008F1010893
:101D40000F6837FA08F206F1020604F1040400F005
:101D50009F80012202FA08FE17EA0E09EED0D1F8A0
:101D600004B003220BF00307B2407D1E6FEA020AA3
:101D7000012D11D88268CD6802EA0A02B5402A43D3
:101D80008260CBF30015426822EA0E0205FA08F5DC
:101D90002A43426004E000BF032F01D103271FE064
:101DA000C2688D6802EA0A02B540022F42EA0502C3
:101DB000C26015D16FF0030204F01C0502EA580B53
:101DC000009A0F2352F80BE0AB400F692EEA030391
:101DD000AF403B4342F80B30D1F804B00BF003079F
:101DE000026807FA06F302EA0A021BF4403F42EADD
:101DF00003020260A2D044F2F44340F2084EC5F65A
:101E00000203C5F6000E0F251A6842F002021A609E
:101E10001A6802F00202029228F00302029B04F008
:101E20000C0352F80E709D40AF43019D05FA03F379
:101E30003B4342F80E304FF0B04EDEF800204B68C6
:101E400042EA0907DD0258BF22EA09079D02CEF8DF
:101E50000070DCF8002042EA090758BF22EA0907AF
:101E60009D03CCF80070DCF8802042EA090758BFD7
:101E700022EA0907DB03CCF88070DCF87C2042EA18
:101E8000090758BF22EA0907CCF87C7056E700BF63
:101E900003B0BDE8F08F0000002A08BF090481618B
:101EA000704700000000000040F21020C2F2004025
:101EB000006870470000000040F2040040F210216A
:101EC000C2F20040C2F2004100780A681044086083
:101ED000704700000000000080B5032000F0ACF85F
:101EE00000F04EFF44F2184144F6D433C5F6020127
:101EF000C0F600030A68C2F303229A5C096801F085
:101F00000F0102F01F02595CD04040F21002C2F2F1
:101F1000004201F01F0120FA01F1116040F20C01B2
:101F2000C2F2004108600F2000F00AF800281CBF30
:101F3000012080BD00F02CF8002080BD00000000D2
:101F4000B0B540F20405C2F200452978F1B104466B
:101F500040F20C00C2F200404FF47A72B2FBF1F191
:101F60000068B0FBF1F001F003FF0F2C01464FF0C9
:101F700001000AD8002918BFB0BD4FF0FF30002281
:101F8000214600F029F800206C60B0BD0120B0BDF2
:101F900081B044F2F440C5F60200016841F002014C
:101FA0000160006800F002000090009801B07047E6
:101FB000002848BF704700F01F01012202FA01F11A
:101FC0004EF20012C0F34A10CEF2000242F8201086
:101FD000704700000000000070B54EF60C5C4FF03A
:101FE000FF36CEF2000C00F1604505F56445DCF8E3
:101FF0000030C3F3022E8EF00703042B28BF042306
:10200000BEF1030406FA03F321EA030100F00F0313
:1020100038BF0024043B0028634406FA04F048BF9C
:1020200003F10C05A14022EA0000084300012870DA
:1020300070BD0000000000004EF60C514FF6FF038B
:10204000CEF200010A681A4060F30A2242F0806072
:1020500040F0FD7008607047B0B544F60C05C5F659
:10206000020529684907296806D401F00701081A02
:1020700018BF0120B0BD00BF21F007010843286050
:10208000FFF712FF044600BF55F8080C800407D480
:10209000FFF70AFF001BB0F57A7FF5D90120B0BD2C
:1020A0000020B0BD000000002DE9F0470446C078D4
:1020B00044F22C480007C5F6020828D5606E4FEAA6
:1020C000305103292AD8DFE801F0030B131B00BFAE
:1020D000D8F8001041F40031C8F8001010E000BF3B
:1020E00004F10800022101F01FFF064680B906E056
:1020F00004F12800022101F0ABFF064640B9606EF2
:10210000D8F8241021F440110843C8F82400002610
:102110006078C00706D135462FE000BF0126607801
:10212000C007F8D0A06D04283ED83546DFE800F09F
:1021300004140E0B0B0000BFD8F80000354640F425
:102140000030C8F800002F46C5B90DE004F12800A2
:10215000002101F07DFF04E004F10800002101F0FE
:10216000E3FE05462F464DB9D8F82400A16D20F0B6
:10217000070000250843C8F8240037466078400768
:102180003AD5D4F8A4004FEA7050052818D8DFE8F3
:1021900000F0031D11232323D8F8000040F4003081
:1021A000C8F8000018E000BF01250127607840074B
:1021B000E7D421E004F12800002101F049FF0AE002
:1021C00001250126607800071AD44FE004F10800C9
:1021D000002101F0A9FE05462E461DB160780007DA
:1021E0000ED443E0D8F82C00D4F8A41020F46000FA
:1021F00000250843C8F82C003E466078000735D516
:10220000D4F8A8004FEA3060052813D8DFE800F0C2
:1022100004180C1E1E1E00BFD8F8000040F4003049
:10222000C8F8000012E000BF04F12800002101F00E
:102230000FFF0AE001250127E07880071AD434E077
:1022400004F10800002101F06FFE05462F461DB184
:10225000E07880070ED428E0D8F82C00D4F8A81035
:1022600020F0E06000250843C8F82C003746E078ED
:1022700080071AD5E06C4FEA3010032838D8DFE821
:1022800000F009032D0900BFD8F8000040F4003029
:10229000C8F800002E464DB9D8F82000E16C20F0B7
:1022A000300000250843C8F820003E466078C0068C
:1022B00039D5E06D4FEA3030042847D8DFE800F028
:1022C00004221C0A0A0000BFD8F8000040F40030C5
:1022D000C8F800002F463DBB1CE000BF04F1080019
:1022E000022101F021FE0546002D2E46DED1D3E766
:1022F00001250126DAE700BF04F12800002101F0E2
:10230000A7FE04E004F10800002101F00DFE0546DF
:102310002F464DB9D8F82400E16D20F4E0400025A7
:102320000843C8F8240037466078800635D5206E0B
:102330004FEA3040052815D8DFE800F0041A0E04F3
:10234000040400BF2E46DDB91EE000BF01250127B1
:1023500060788006EBD420E004F12800012101F030
:1023600077FE0AE0012501266078400619D449E08D
:1023700004F10800012101F0D7FD05462E461DB1EC
:10238000607840060DD43DE0D8F82400216E20F49A
:10239000E02000250843C8F824003E466078400647
:1023A00030D5D4F8AC004FEA307005280ED8DFE8FD
:1023B00000F00313070303032F46ADB918E000BF75
:1023C00004F12800012101F043FE0AE00125012764
:1023D000607800061AD43CE004F10800012101F005
:1023E000A3FD05462F461DB1607800060ED430E0EF
:1023F000D8F82C00D4F8AC1020F0E04000250843B9
:10240000C8F82C0037466078000622D5E06E58B137
:10241000B0F1005F0CD0B0F1805F37D1D8F8000088
:1024200040F40030C8F800002E469DB908E000BF17
:1024300004F10800012101F077FD05462E464DB953
:10244000D8F82400E16E20F0405000250843C8F879
:1024500024003E46E078C0071DD0A06C032855D864
:10246000DFE800F008024A08D8F8000040F4003025
:10247000C8F80000A9467DB9D8F82000A16C20F06A
:10248000030000250843C8F8200004E001250126C8
:10249000E078C007E1D1B146A078400602D44F46AB
:1024A00018E000BFD8F8D40340F48070C8F8D40313
:1024B000FFF7FAFC064600BFD8F8D403C00507D4DE
:1024C000FFF7F2FC801B6428F6D90325032701E0FF
:1024D0002F46FDB12078C00700F06F80A06F4FEA53
:1024E000F00005284ED8DFE800F00353470303034C
:1024F000002D2E4654D157E004F10800022101F0CE
:1025000013FD0546002DA946C6D1B5E701254FF0BC
:102510000109C1E7D8F84410D4F8B000414011F4E3
:10252000407F11D0D8F84410D8F8442042F48032CB
:10253000C8F84420D8F8442021F4407122F48032B5
:10254000C8F84420C8F84410B0F5807F40F0D0822D
:10255000FFF7AAFC064641F2883A0325032700BF8D
:10256000D8F84400800700F1C182FFF79DFC801B72
:102570005045F5D9AEE700BF04F12800012101F074
:1025800067FD0AE0012501262078800719D446E07E
:1025900004F10800012101F0C7FC05462E461DB1DB
:1025A000207880070DD43AE0D8F82800A16F20F0F9
:1025B000380000250843C8F828003E4620788007E8
:1025C0002DD5606F05280FD8DFE800F0041408044B
:1025D000040400BF2F46ADB918E000BF04F1280085
:1025E000012101F035FD0AE001250127207840078F
:1025F00019D447E004F10800012101F095FC0546DB
:102600002F461DB1207840070DD43BE0D8F82800B4
:10261000616F20F0070000250843C8F828003746FE
:10262000207840072ED5D4F8900005280ED8DFE892
:1026300000F00313070303032E46ADB918E000BFF3
:1026400004F12800012101F003FD0AE00125012623
:10265000207880061AD44BE004F10800012101F033
:1026600063FC05462E461DB1207880060ED43FE05F
:10267000D8F82C00D4F8901020F00700002508436B
:10268000C8F82C003E462078800631D5D4F88C005E
:102690004FEA307005280FD8DFE800F00414080472
:1026A000040400BF2F46ADB918E000BF04F12800B4
:1026B000022101F0CDFC0AE0012501272078400627
:1026C0001AD44BE004F10800002101F02DFC05466E
:1026D0002F461DB1207840060ED43FE0D8F82800E0
:1026E000D4F88C1020F0E04000250843C8F82800FA
:1026F00037462078400631D5D4F898004FEAB0200C
:1027000005280FD8DFE800F004140804040400BF13
:102710002E46ADB918E000BF04F12800022101F0F7
:1027200097FC0AE001250126207800061AD44EE025
:1027300004F10800002101F0F7FB05462E461DB10B
:10274000207800060ED442E0D8F82C00D4F8981077
:1027500020F4E05000250843C8F82C003E462078BD
:10276000000634D5D4F89C004FEA7030052815D8FF
:10277000DFE800F0041A0E04040400BF2F46E5B1A0
:102780002068010727D4C1063ED4000355D477E062
:1027900004F12800022101F05BFC0AE00125012779
:1027A00020680107EFD516E004F10800002101F0D0
:1027B000BBFB0546002D2F46E2D1D8F82C00D4F8FB
:1027C0009C1020F4604000250843C8F82C003746D0
:1027D00020680107D7D5D4F88000B0F5805F09D113
:1027E00004F12800022101F033FC002818BF012762
:1027F000D4F88000D8F8281021F440510843C8F8D4
:1028000028002068C106C0D5D4F89400B0F5807FB8
:1028100009D104F12800022101F01AFC002818BF98
:102820000127D4F89400D8F82C1021F44071084303
:10283000C8F82C002068000322D5D4F8A000B0F519
:10284000003F11D0B0F5803F08D0002844D104F1FA
:102850000800002101F068FB05E000BF04F128003A
:10286000022101F0F5FB05462E4655B9D8F82C009B
:10287000D4F8A01020F4403000250843C8F82C00FC
:102880003E46A07840072CD5D4F88400B0F5401F10
:102890000BD0B0F5001F0BD0B0F5801F2AD1D8F8AF
:1028A000000040F40030C8F800002F46D5B907E01A
:1028B00004F12800012101F0CBFB05462F468DB91C
:1028C000D8F82800D4F8841020F4401000250843DC
:1028D000C8F8280005E000BF01250126A0784007C0
:1028E000D2D43746A078C00709D13E462168880077
:1028F00015D532E001250127A078C007F5D0206D5D
:10290000B0F5803F10D018BBD8F8000040F400307C
:10291000C8F800002E4685B1216888001DD4606883
:102920008A0326D465E000BF04F10800022101F00B
:10293000FBFA0546002D2E46EED1D8F82000216D79
:1029400020F4803000250843C8F82000CDE700BF00
:102950000125012621688800E1D504F12800022123
:1029600001F076FB002818BF0126D4E900108A0385
:102970003FD5E26F6FF0010303EB3223022B0BD341
:102980004FEA322343B1012B40F0AA80D8F800303F
:1029900043F40033C8F8003025B3CA022CD48A02AD
:1029A00034D44A003CD4CA0F49D1090251D4C107DA
:1029B0005AD1810763D441076CD4010776D4C1068C
:1029C00000F18080800607D504F12800022101F083
:1029D0003FFB002818BF0125002D18BF0125284600
:1029E000BDE8F087D8F8283023F440731A43C8F8BC
:1029F00028203546CA02D2D5D8F82420236F22F0E9
:102A000000421A43C8F824208A02CAD5D8F82420E4
:102A1000A36E22F080721A43C8F824204A00C2D55F
:102A200058F81C2C22F4004248F81C2CD4F8B4208E
:102A300058F81C3C1A4348F81C2CCA0FB5D0D8F8DB
:102A40002020636D22F040521A43C8F8202009026A
:102A5000ADD5D8F82810D4F8882021F440011143CE
:102A6000C8F82810C107A4D004F10800002101F023
:102A70005BFA002818BF0546606881079BD504F102
:102A80000800012101F050FA002818BF05466068CF
:102A9000410792D504F10800022101F045FA00280F
:102AA00018BF0546606801077FF589AF04F128006B
:102AB000002101F0CDFA002818BF05466068C10664
:102AC0007FF580AF04F12800012101F0C1FA002850
:102AD00018BF0546606880063FF576AF7CE700BF0B
:102AE0000125CA027FF55BAF86E700BFD4F8B000CE
:102AF0004FF6CF7358F81C2CC0F2FF0300F440715E
:102B000022F47C5203EA10136FF31F30B1F5407FBB
:102B100008BF1A43002548F81C2CD8F84410084375
:102B2000C8F84400FFF7BBBC2DE9F04381B0002892
:102B300000F0208142F200090446C5F20029D9F8CC
:102B4000000000F00F0081420DD9D9F8000020F0FC
:102B50000F000843C9F80000D9F8000000F00F008A
:102B6000884240F00781206844F218464207C5F6C3
:102B700002060AD52269336803F070039A4204D929
:102B8000336823F070031A43326002070AD5626982
:102B9000736803F070039A4204D9736823F07003DA
:102BA0001A437260C2060AD5A269736803F4E0632F
:102BB0009A4204D9736823F4E0631A437260820670
:102BC0000AD5E269B36803F070039A4204D9B36886
:102BD00023F070031A43B26010F002020AD0E368D7
:102BE000376807F00F07BB4204D9376827F00F0793
:102BF0003B433360C3073FD0306820F47062D4E9B0
:102C000001031A433260012856F8182C0AD0032811
:102C100004D002280AD192030BD4ABE0920108D46D
:102C2000A8E000BFD20504D4A4E000BF520740F1E1
:102C3000A180884656F8081C21F00701084346F891
:102C4000080CFFF731F9054641F2883756F8080CB1
:102C5000616800F03800B0EBC10F09D0FFF724F92C
:102C6000401BB842F2D9032001B0BDE8F08300BF99
:102C70002068414600F0020252B1E268336803F076
:102C80000F039A4204D2336823F00F031A433260D1
:102C9000D9F8002002F00F0291420CD2D9F800209E
:102CA00022F00F020A43C9F80020D9F8002002F0F0
:102CB0000F028A425ED141070AD52169326802F0CB
:102CC0007002914204D2326822F0700211433160E6
:102CD00001070AD56169726802F07002914204D25C
:102CE000726822F0700211437160C1060AD5A169B1
:102CF000726802F4E062914204D2726822F4E062E7
:102D00001143716080060AD5E069B16801F0700175
:102D1000884204D2B16821F070010843B06000F02D
:102D20002FF8316844F6D432C0F60002C1F3032113
:102D3000515C336803F00F0301F01F01D25C20FAED
:102D400001F102F01F0040F21002C2F2004221FA2B
:102D500000F0106040F2080040F20C02C2F20040A5
:102D6000C2F200420068116001B0BDE8F043FFF715
:102D7000E7B800BF012001B0BDE8F083000000000B
:102D800044F20041C5F602010869C0F3C2000328FD
:102D900016D002280ED0002832D10868800649F2E9
:102DA0000000C0F2D03058BF70470968C1F3C101BC
:102DB000C840704743F20060C0F26E10704700BF19
:102DC0008B6A886AD1F82CC04A6BC0F30510E8B151
:102DD000C2F3CC0203F0030300EE102A9FED2A1A7F
:102DE000B8EE400A20EE010A9FED281ADFE803F052
:102DF000022110210A6892060ED49FED261A18E0CF
:102E000040F60010C0F23D00704700BF0020704740
:102E10009FED1F1A0DE000BF0A6849F20003C0F2DF
:102E2000D033C2F3C10223FA02F201EE102AB8EE47
:102E3000411A0A6B9FED183A6FF35F2202EE102AD7
:102E40005FEACC7203FE000A03EE100A086BB8EECC
:102E5000422AC0F34620B8EE433A013030EE020A6F
:102E6000B7EE002A81EE031A30EE020A21EE000AC4
:102E700001EE100AB8EE411A80EE010ABCEEC00A5B
:102E800010EE100A704700BF000000390024744A99
:102E9000001BB74B0024744C000000000000000031
:102EA00070B3F0B581B00446007844F20046C00724
:102EB000C5F6020626D1207880076AD5306910F061
:102EC0003801B06A42D0182908BF5FEA80703DD04F
:102ED000E0683168002800F02D8121F019010843D5
:102EE0003060FEF7E1FF0546306840074AD4FEF740
:102EF000DBFF401B0228F7D9032001B0F0BD00BF63
:102F000001207047306900F03801B06A102905D0FF
:102F100018290BD100F00300022807D13068800384
:102F2000C9D560680028C6D1AAE000BF61683068D2
:102F3000002900F03981B1F5A02F00F02D81B1F505
:102F4000803F40F0478140F4803049E130684007DD
:102F5000E06802D5002800F09380316821F0190163
:102F600008433060FEF7A0FF054600BF3068400709
:102F700008D4FEF799FF401B02284FF00300F5D953
:102F800001B0F0BD7068216920F0FE4040EA0160A8
:102F900070602078C0061AD5306900F03801B06A38
:102FA000082907D0182940F0858000F00300012887
:102FB00040F080803068C00502D5E06980285FD18C
:102FC000F068216A20F07C5040EA0160F0602078CF
:102FD00000073FD42078800656D42078400700F1BF
:102FE0008180656A9DB3306900F03800182840F090
:102FF0001981012DB16A306B42D001F00302A36A3E
:103000009A423DD1C1F30511E26A914238D101469D
:10301000226B6FF35F21013A914231D1C0F3462216
:10302000616B01398A422BD1C0F30642A16B013991
:103030008A4225D1C0F30660E16B013988421FD175
:10304000706BA16CC0F3CC00814240F0A5810020E0
:1030500001B0F0BD60690028706F59D040F00100E8
:103060007067FEF721FF0546706F8007B2D4FEF748
:103070001BFF401B0228F7D9032001B0F0BD00BFA1
:10308000012001B0F0BD00BFA0690028306871D0F8
:1030900040F480503060FEF707FF0546306880043A
:1030A0009BD4FEF701FF401B0228F7D9032001B093
:1030B000F0BD00BFE0690028306800F0A18040F05A
:1030C00080003060FEF7F0FE054600BF3068C005A6
:1030D0003FF576AFFEF7E8FE401B02284FF00300F5
:1030E000F4D94DE7D6F8000440F48070C6F8000427
:1030F000FEF7DAFE054600BFD6F80004C0052BD463
:10310000FEF7D2FE401B6428F6D9032001B0F0BDC3
:1031100020F001007067FEF7C7FE0546706F80075C
:103120007FF558AFFEF7C0FE401B02284FF00300AA
:10313000F4D925E721F001003060FEF7B5FE054621
:10314000306840077FF525AFFEF7AEFE401B022832
:103150004FF00300F4D913E7A168306F002900F0A5
:103160008B80052900F08080012940F09D8040F08F
:1031700001009FE020F480503060FEF795FE054688
:10318000306880047FF529AFFEF78EFE401B0228D1
:103190004FF00300F4D9F3E640F48020306030684B
:1031A00040F480301CE000BF20F480303060306894
:1031B00020F480203060FEF777FE054630688003FB
:1031C0007FF579AEFEF770FE401B64284FF00300D8
:1031D000F4D9D5E620F480303060306820F48020C7
:1031E0003060FEF761FE0546306880033FF563AE50
:1031F000FEF75AFE401B6428F6D9032001B0F0BD4B
:1032000020F080003060FEF74FFE05463068C005B4
:103210007FF5DDAEFEF748FE401B02284FF00300AD
:10322000F4D9ADE6306820F080703060FEF73CFEE7
:10323000022D05460CD100BF306880014CD5FEF749
:1032400033FE401B02284FF00300F5D998E600BF7B
:10325000306880017FF5FBAEFEF726FE401B02289A
:103260004FF00300F4D98BE640F004003067306F74
:1032700040F001001EE000BF20F001003067306F19
:1032800020F004003067FEF70FFE054641F2883754
:10329000306F80077FF5A5AEFEF706FE401BB842F3
:1032A0004FF00300F4D96BE620F001003067306F77
:1032B00020F004003067FEF7F7FD054641F288373D
:1032C000306F80073FF58DAEFEF7EEFD401BB84234
:1032D0004FF00300F4D953E604F12807B06A40F236
:1032E000F33188438ECF0843591E40EA02104FF451
:1032F0007E426FF35F21B06202EB47204FF4FE0283
:1033000080B2E36B0844A16B02EB01414FF0FE4237
:1033100001F4FE0102EB0362084402F0FE4108449E
:103320003063F06A4FF6F87120F00100F062706BC4
:10333000A26C884340EAC2007063F06A216C20F0FE
:103340000C000843F062F06A616C20F00200084350
:10335000F062F06A40F48030F062F06A40F40030CD
:10336000F062F06A40F48020F062F06A40F0010000
:10337000F062306840F080703060FEF795FD0446E2
:10338000306880013FF563AEFEF78EFD001B02281A
:103390004FF00300F4D9F3E5F06A20F00100F06289
:1033A000FEF782FD0546FEF77FFDA842FBD0706B5D
:1033B0004FF6F871A26C884340EAC2007063F06A6D
:1033C00040F00100F062002001B0F0BD00000000FC
:1033D000704700000000000070B501680B694E697D
:1033E0008A6890F8815034050AD513F0080407D094
:1033F0008A6942F400628A61BDE8704000F0A8BAB0
:103400001E4006F06403042B08D1416F0446884730
:10341000216F2046BDE87040084700BF06F0450315
:10342000012B09D1016F0446884706F0220120468E
:10343000022905D070BD00BF06F02603022B03D180
:10344000416FBDE870400847330711D416F4587F28
:10345000F0D0710660D4B1056BD4F10577D4B10614
:1034600000F18380D0F88410002940F08E80E1E7DD
:103470000268936943F008039361936943F0100372
:103480009361936943F400639361136923F0080324
:103490001361926812F4404F19D0044600F074FE94
:1034A000012184F88110D4F8841039B32046BDE896
:1034B0007040FFF78DBF00BF0368426E1B6B42F880
:1034C000043B4266B0F86A20013AA0F86A20B0F8DE
:1034D0006A20002AE1D0C268102AEDD2082A05D35A
:1034E0000B8E426E22F8023BEBE700BF026892F8B7
:1034F0003020436E1A70426E0132E2E7032D00F075
:103500008D80042D00F08480052D7FF493AF20463C
:10351000BDE8704000F028BC0168D0F8843043F06A
:103520000403C0F884308B6943F040038B61B1051C
:1035300093D50168D0F8843043F00103C0F884309B
:103540008B6943F400738B61F1057FF588AF0168E7
:10355000D0F8843043F00803C0F884308B6943F41A
:1035600080738B61B1067FF57DAF0168D0F8843040
:1035700043F08003C0F884308B6943F020038B61F3
:10358000D0F8841000293FF455AF016802F440429E
:1035900040F26B36B2F5404F0B6823F001030B602D
:1035A0000B6923EA06020A612AD18A6844F2592487
:1035B00022F440428A60C16FC0F6000469B105463A
:1035C00008460C65FDF7C8FA0146284629B1D0F82F
:1035D000841041F04001C0F88410816F00293FF44D
:1035E00029AF0C6504460846FDF7B6FA002808BF67
:1035F00070BDD4F8840040F04000C4F8840070BD71
:10360000012180F88110BDE87040FFF7E1BE00BFE6
:103610002046BDE8704000F097B900BF2046BDE8E5
:10362000704000F09DBB000000284DD02DE9F04F08
:1036300081B043F600040168C4F2000443F2000EB6
:1036400043F6004CA142C4F2010EC4F2000C4FF04C
:103650000002826203D0614518BF714542D1C26B3E
:103660000125C368A14203F1080305EB52124FEA9A
:10367000D30303FB02F218BF714527D1102A34D8B7
:1036800090F8811031B9002180F88010044600F0D4
:10369000ABF82046022180F88110D0E90019D0F85B
:1036A00018800D68B8F1806F25F001050D608D68F8
:1036B00005F4F81E26D1B9F1000F1BD0B9F5800F23
:1036C00020D1856B25BB19E001207047614518BFEB
:1036D000082A0AD80CF574439942CFD06145CDD061
:1036E000CEE700BFC2680F2AB9D9012001B0BDE8FA
:1036F000F08F00BF856BB5F1805F06D10D6845F492
:1037000080550D605FEA492502D44FF0010C0FE0AF
:10371000C468072C0AD30D6825F4807C056D45EA42
:103720000C050D604FF0000C07E000BF4FF0000CDF
:103730000C6824F480740C60C468C769836A47EA23
:103740000E07C26B3B4387681A43B9F1000FD0E9FB
:1037500004BA42EA04028A60426B856B436A42EA19
:103760000302036A42EA050242EA0B0242EA0A0243
:10377000D0E9126442EA0302836D42EA040242EA9B
:10378000070242EA060242EA030242EA080242EA69
:103790000902CA600ED00A6DBCF1000F22F00102CE
:1037A0000A6515D1CA68436D22F000421A43CA6007
:1037B0000EE000BF8A68012363F3CC228A608A6826
:1037C000022363F34A228A600A6D22F001020A652D
:1037D0000021C0F88410012180F88110002001B080
:1037E000BDE8F08F000000002DE9F04FB5B00446B1
:1037F00002A80830B02100253095CDE93355CDE938
:103800003155FCF786FD43F600012068C4F2000143
:10381000884203D035B0BDE8F08F00BF4FF4805030
:10382000029002A80395FEF73FFC08B1FDF78CF962
:1038300044F2E04040F20045C5F60200C5F602053C
:1038400030AE40F210088168C4F2020841F48041B1
:10385000816081684FF0020901F480410191019972
:10386000016841F0040101600168002701F00401D2
:1038700001910199016841F002010160006831463F
:1038800000F00200019001980620309005F580605C
:10389000CDF8C4904FF0030A32974FF0050BCDF8E6
:1038A000CCA0CDF8D0B0FEF723FA4FF4005031464B
:1038B000CDE9300932A880E8800C2846FEF718FAD6
:1038C00040F298052720C2F200454FF48066C5E912
:1038D00001074FF44030C5F80080C5E908072846C5
:1038E000EF60C5E90467C5E90677FDF79DFE08B1FD
:1038F000FDF72AF9E56708F11800AC6340F21015EE
:10390000C2F200452860282068604020C5E902070F
:103910004FF40030C5E908072846C5E90467C5E942
:103920000677FDF781FE08B1FDF70EF92420052189
:103930000022A567AC63FEF74FFB2420FEF738FB9F
:1039400035B0BDE8F08F00007047000000000000B7
:1039500070470000000000002DE9F047044690F891
:103960008000012802D10220BDE8F0879A46154662
:103970000F46D4F80090012084F88000FEF794FAF6
:1039800094F8811001290BD127B1002D18BFBAF18D
:10399000000F0BD1002084F880000120BDE8F087E3
:1039A000002084F880000220BDE8F08780460520D2
:1039B00084F881000021C4F884104FF6FF73656617
:1039C000A4F86AA0A4F868A0E765A4F862A0D4E906
:1039D0000002A4F860A0B2F5800F21676167C1689A
:1039E00021F4C021C160416821EA030151444160D2
:1039F000016841F00101016003D1016841F40071E7
:103A00000160E068089D102838D3681C00F0BE8073
:103A100048F20807564606E0FEF746FAA0EB080013
:103A2000A84280F0A1805AEA060000F06D8120686B
:103A3000BAF1000F416918BF11F002010BD0E16D1E
:103A400051F8042B0262E165B4F862100139A4F860
:103A50006210B4F862A04169394218BF002EDBD071
:103A6000006B616E41F8040B6166B4F86A000138BE
:103A7000A4F86A00B4F86A60CEE700BF072837D917
:103A8000681C00F0C180564606E000BFFEF70CFA45
:103A9000A0EB0800A84267D25AEA060000F0348181
:103AA0002068BAF1000F416918BF11F002010CD073
:103AB000E16D31F8022BA9F82020E165B4F862101D
:103AC0000139A4F86210B4F862A04069C00718BFB9
:103AD000002EDBD0B9F83000616E21F8020B616670
:103AE000B4F86A000138A4F86A00B4F86A60CDE757
:103AF000681C00F0C980574606E000BFFEF7D4F905
:103B0000A0EB0800A8422FD25AEA070000F0FC8080
:103B10002068BAF1000F416918BF11F002010ED000
:103B2000E16D097880F82010E06D0130E0652068D3
:103B3000B4F862100139A4F86210B4F862A04169C7
:103B4000C90718BF002FD9D090F83000616E0870F7
:103B5000606E01306066B4F86A000138A4F86A004B
:103B6000B4F86A70CAE700BF204600F00DFB0020E1
:103B700084F88000D4F8840040F48070C4F8840095
:103B8000012084F881000320BDE8F087012048F27D
:103B90000807012256460FE0FEF786F946EA0A01B9
:103BA00032465046002E18BF0122BAF1000F18BF4E
:103BB0000120002900F0A8802168D2074A6918BFB7
:103BC00012F002020BD0E26D52F8043B0B62E26588
:103BD000B4F86220013AA4F86220B4F862604A693D
:103BE0003A4018BF012210400128D5D1086B616E00
:103BF00041F8040B6166B4F86A000138A4F86A0061
:103C0000B4F86AA0C8E700BF0120012256460EE0C2
:103C1000FEF74AF946EA0A0132465046002E18BF1E
:103C20000122BAF1000F18BF012000296CD02168D1
:103C3000D2074A6918BF12F0020205D1496908404B
:103C4000C007E5D011E000BFE26D32F8023BA9F8F1
:103C50002030E265B4F86220013AA4F86220B4F89A
:103C6000626049690840C007D2D0B9F83000616E7F
:103C700021F8020B6166B4F86A000138A4F86A0002
:103C8000B4F86AA0C4E700BF0120012257460DE046
:103C9000FEF70AF947EA0A013A465046002F18BFD4
:103CA0000122BAF1000F18BF012069B32168D207C1
:103CB0004A6918BF12F0020204D14A691040C007D5
:103CC000E6D012E0E26D127881F82020E16D01313A
:103CD000E1652168B4F86220013AA4F86220B4F8E2
:103CE00062704A691040C007D2D091F83000616E0E
:103CF0000870606E01306066B4F86A000138A4F89C
:103D00006A00B4F86AA0C3E7681C13D02068406951
:103D1000000713D4FEF7C8F8A0EB0800A842F5D3BB
:103D2000D4F8840040F02000C4F8840006E000BF0E
:103D3000FEF7BAF8206840690007F9D5204600F080
:103D400023FA002084F88000012084F88100D4F850
:103D50008400002818BF0120BDE8F08700000000A3
:103D600070470000000000007047000000000000E5
:103D7000411E0020B0EB116F02D00120704700BF40
:103D80004EF21002F023CEF2000251604EF62351A3
:103D9000CEF200010B7007219060116070470000A7
:103DA000FEE700000000000080B582B044F2D84079
:103DB0000022C5F60200016841F0010101600068BF
:103DC000012100F00100019001980B20FEF704F999
:103DD0000B20FEF7EDF80C2002210022FEF7FCF884
:103DE0000C2002B0BDE88040FEF7E2B80000000001
:103DF000F0B587B044F2E0400026C5F60200069612
:103E0000CDE90466CDE90266016840F6000441F0A0
:103E1000800101600168C5F6020401F08001019192
:103E20000199016841F0040101600168012201F07B
:103E3000040101910199016841F0100101600168DC
:103E4000092501F0100101910199016841F0020179
:103E500001600168012701F00201019101990168E7
:103E600041F0010101600068092100F001000190AA
:103E700001982046FEF710F8CDE9025702AD032065
:103E80000590204629460496FDF732FF4FF4A050D6
:103E900002904FF488102946CDE9030604F500602E
:103EA000FDF726FF07B0F0BD10B540F2881443F6C9
:103EB0000000C2F20044C4F20000072120604FF469
:103EC000800060600020A060E1604FF0007121611F
:103ED0004FF0807161614FF08061A1614FF08041CE
:103EE000C4E90710C4E90900E06204F13800616325
:103EF0002421FCF70EFA2046FFF796FB002808BFA6
:103F000010BDBDE81040FCF71FBE0000000000001F
:103F1000FEE7000000000000FEE7000000000000D7
:103F20007047000000000000F0B581B044F22C475B
:103F3000C5F6020757F8042C02F00302032A03D146
:103F4000012001B0F0BD00BF054657F82C0C0C460F
:103F500020F0806047F82C0CFDF7A6FF064600BF56
:103F600057F82C0C000105D5FDF79EFF801B022899
:103F7000F6D964E057F8040CEE6895E80E0020F4DA
:103F80007C30012C40EA0130A2F101016FF35F2186
:103F90004FF47E4202EB432247F8040C92B24FF0FA
:103FA000FE4302EB01004FF4FE012A6901EB0641DA
:103FB00001F4FE0103EB0262084402F0FE410844F2
:103FC000F8603868696920F0C00040EA0100386094
:103FD0003868A96920F0200040EA0100386038689C
:103FE0004FF6F87120F0100038603869EA6920EA6D
:103FF00001004FF4001140EAC2003861386808BF80
:104000004FF4801140F01000002C386008BF4FF4CE
:10401000002138680843386057F82C0C40F0806065
:1040200047F82C0CFDF740FF044600BF57F82C0C56
:10403000000107D4FDF738FF001B0328F6D3032047
:1040400001B0F0BD002001B0F0BD00000000000094
:10405000F0B581B044F22C47C5F6020757F8042C9E
:1040600002F00302032A03D1012001B0F0BD00BF1A
:10407000054657F82C0C0C4620F0805047F82C0CC5
:10408000FDF712FF064600BF57F82C0C800005D53F
:10409000FDF70AFF801B0228F6D964E057F8040CEC
:1040A000EE6895E80E0020F07C70012C40EA01508B
:1040B000A2F101016FF35F214FF47E4202EB432234
:1040C00047F8040C92B24FF0FE4302EB01004FF4AC
:1040D000FE012A6901EB064101F4FE0103EB0262D5
:1040E000084402F0FE41084478613868696920F4A8
:1040F000406040EA010038603868A96920F4007027
:1041000040EA0100386038684FF6F87120F480709A
:104110003860B869EA6920EA01004FF0807140EA2E
:10412000C200B861386808BF4FF4000140F48070E5
:10413000002C386008BF4FF48001386808433860AD
:1041400057F82C0C40F0805047F82C0CFDF7ACFED3
:10415000044600BF57F82C0C800007D4FDF7A4FEDE
:10416000001B0328F6D3032001B0F0BD002001B0EE
:10417000F0BD00000000000040F28810C2F20040D4
:10418000FFF72AB900000000016840F26F32D1F851
:1041900014C08B6943F008038B618B6943F01003F3
:1041A0008B610B6823F001030B600B6923EA0202A9
:1041B0000A618A6822F440428A6090F88120042AC9
:1041C00018BF1CF0200209D0D0F8842042F08002F1
:1041D000C0F884208A6942F020028A6190F8812028
:1041E000032A18BF1CF040020CD15FEA8C5216D48F
:1041F0005FEACC5220D40021A0F86210A0F86A1027
:10420000704700BFD0F8842042F00402C0F8842038
:104210008A6942F040028A615FEA8C52E8D5D0F8A0
:10422000842042F00102C0F884208A6942F40072BE
:104230008A615FEACC52DED5D0F8842042F00802D1
:10424000C0F884208A6942F480728A610021A0F853
:104250006210A0F86A107047806B0021A0F86A1005
:10426000A0F86210012180F88110FFF7B1B80000BA
:104270007047000000000000FDF71EBE00000000B7
:10428000B0B59CB044F6180409A84C21C5F6020448
:10429000FCF73FF802200025CDE90755CDE905558B
:1042A000CDE90355CDE90155FDF7D6FE009520680F
:1042B00020F440402060206800F4404000900098C6
:1042C0002068800409D4206880045CBF20685FEA0D
:1042D000804002D420688004F2D501200990282271
:1042E0004FF48031CDE915200C20199009A80A91CE
:1042F00002211491CDE91211CDE917110024CDE965
:104300001A44FEF7CDFD28B1EFF3108072B600BF5E
:10431000FEE700BF3F20019003204FF48061CDE90C
:104320000204082004904020CDE90500CDE90710E3
:1043300001A80321FEF7F8FB20B1EFF3108072B65D
:10434000FEE700BF1CB0B0BD4EF6885042F2000C34
:10435000CEF20000C5F2002C026842F47002026046
:10436000DCF8000000F00F00062806D8DCF800009A
:10437000072262F30300CCF8000044F200404EF63E
:104380007F51C5F60200CEF6F621026842F0010226
:10439000026000220261036819400160DCF800102D
:1043A000090706D5DCF80010072363F30301CCF8F6
:1043B000001040F200218261C261C0F2022102625B
:1043C00081620021C0F2FF11C16240F28021C0F27F
:1043D0000111016342638163C26301644264016845
:1043E00021F480210160026644F20000C5F2002041
:1043F00043F2D20101607047FEE7000000000000B8
:10440000B0B5FBF7B1FF8020FCF7DAFA5520FCF7D6
:10441000D7FA5520FCF7D4FAFBF79EFF9620FBF75E
:10442000F3FFFBF7A1FF8020FCF7CAFA5520FCF749
:10443000C7FA5520FCF7C4FAFBF78EFF9620FBF76E
:10444000E3FFFBF791FF7E20FCF7BAFAB620FCF7FA
:10445000B7FAFBF781FF5020FBF7A6FFFBF784FFBD
:104460008020FCF7ADFA5520FCF7AAFA5520FCF79E
:10447000A7FAFBF771FF9620FBF7C6FFFBF774FF67
:104480008020FCF79DFA5520FCF79AFA5520FCF79E
:1044900097FA0446FBF760FF9620FBF7B5FF1E2C4A
:1044A00046D1FBF761FF7D20FCF78AFA0420FCF778
:1044B00087FAFBF751FF9620FBF7A6FFFBF754FFA7
:1044C000FD20FCF77DFA5520FCF77AFA5520FCF721
:1044D00077FA0446FBF740FF9620FBF795FF44F67A
:1044E000E435042CC0F6000540F0B180FBF73CFF3A
:1044F0007C20FCF765FA0020FCF762FAFBF72CFF42
:104500009620FBF781FFFBF72FFFFC20FCF758FA02
:104510005520FCF755FA5520FCF752FA0446FBF7F4
:104520001BFF9620FBF770FF24B10335A878B0BDC0
:10453000FF20B0BDFBF718FF4020FCF741FAAB208D
:10454000FCF73EFAFBF708FF9620FBF75DFFFBF751
:104550000BFFC020FCF734FA5520FCF731FA552048
:10456000FCF72EFA0446FBF7F7FE9620FBF74CFF0C
:10457000AB2C21D1FBF7F8FE4120FCF721FA0020FB
:10458000FCF71EFAFBF7E8FE9620FBF73DFFFBF772
:10459000EBFEC120FCF714FA5520FCF711FA552068
:1045A000FCF70EFA0446FBF7D7FE9620FBF72CFF2C
:1045B00034B10935A878B0BD0635A878B0BD00BFC4
:1045C000FBF7D2FE5320FCF7FBF90820FCF7F8F9C3
:1045D000FBF7C2FE9620FBF717FFFBF7C5FED320C3
:1045E000FCF7EEF95520FCF7EBF95520FCF7E8F95C
:1045F0000446FBF7B1FE9620FBF706FF082C21D1FD
:10460000FBF7B2FE5820FCF7DBF90420FCF7D8F9E1
:10461000FBF7A2FE9620FBF7F7FEFBF7A5FED820DE
:10462000FCF7CEF95520FCF7CBF95520FCF7C8F97B
:104630000446FBF791FE9620FBF7E6FE042C05D11D
:104640000020B0BD0C35A878B0BD00BF0F35A878EC
:10465000B0BD000000000000B0B5FBF799FE80205F
:10466000FCF7AEF95520FCF7ABF9FBF789FE962075
:10467000FBF7CAFEFBF78CFE8020FCF7A1F9552062
:10468000FCF79EF9FBF77CFE9620FBF7BDFEFBF7DF
:104690007FFE1420FCF794F9B620FCF791F9FBF7A4
:1046A0006FFE5020FBF780FEFBF772FE8020FCF7C8
:1046B00087F95520FCF784F9FBF762FE9620FBF79B
:1046C000A3FEFBF765FE8020FCF77AF95520FCF786
:1046D00077F90446FBF754FE9620FBF795FE0F2C66
:1046E00022D1FBF755FE0F20FCF76AF90020FCF7FA
:1046F00067F9FBF745FE9620FBF786FEFBF748FEC1
:104700008F20FCF75DF95520FCF75AF90446FBF7BA
:1047100037FE9620FBF778FE44F6F635C0F6000526
:1047200024B1A878B0BD00BFFF20B0BDFBF730FEBC
:104730001020FCF745F98220FCF742F9FBF720FE38
:104740009620FBF761FEFBF723FE9020FCF738F97B
:104750005520FCF735F90446FBF712FE9620FBF7CF
:1047600053FE822C1ED1FBF713FE1120FCF728F913
:104770000020FCF725F9FBF703FE9620FBF744FE2B
:10478000FBF706FE9120FCF71BF95520FCF718F902
:104790000446FBF7F5FD9620FBF736FE34B10635EF
:1047A000A878B0BD0335A878B0BD00BFFBF7F0FD19
:1047B0001520FCF705F98020FCF702F9FBF7E0FD76
:1047C0009620FBF721FEFBF7E3FD9520FCF7F8F8B8
:1047D0005520FCF7F5F80446FBF7D2FD9620FBF7D1
:1047E00013FE802C1ED1FBF7D3FD1620FCF7E8F852
:1047F0000020FCF7E5F8FBF7C3FD9620FBF704FE6D
:10480000FBF7C6FD9620FCF7DBF85520FCF7D8F83F
:104810000446FBF7B5FD9620FBF7F6FD34B10C35E9
:10482000A878B0BD0935A878B0BD00BFFBF7B0FDD2
:104830001820FCF7C5F80120FCF7C2F8FBF7A0FD33
:104840009620FBF7E1FDFBF7A3FD9820FCF7B8F8F5
:104850005520FCF7B5F80446FBF792FD9620FBF7D0
:10486000D3FD012C02D10020B0BD00BF0F35A878C8
:10487000B0BD000000000000FDF72EFBFFF700FDBB
:10488000FFF7B6FAFFF790FAFFF70EFBFBF78CFE87
:104890000028FBD1FBF7E0FD4FF4FA60FDF714FAB6
:1048A00040F22004C2F20044251D00BF28462146E4
:1048B000FBF786FE0A20FDF707FAF7E7410008023A
:1048C00018BF04200A0E18BF40F001004FF07F42CD
:1048D00032EA010108BF40F00200012808BF0520AC
:1048E0007047000070B54FF068422DED048BF0EE7C
:1048F000408A18EE900AB0EE608A18EE101A02EBA9
:104900004003B3F1654F3CBF02EB4102B2F1654F8A
:104910007DD200BFC0F3C753C1F3C7529A1A1B2AF6
:1049200009DD10F0004F14BF9FED830A9FED830A4D
:10493000BDEC048B70BD12F11A0F36DA11F0004F86
:1049400009D010F0004F0CBF9FED7D0A9FED7D0A4E
:10495000BDEC048B70BD88EE889A19EE100AFFF743
:10496000ADFF042808BF00F017F918EE900AFFF712
:10497000A5FF054618EE100AFFF7A0FF044619EE42
:10498000100AFFF79BFF042D18BF052D08D1042C3A
:1049900018BF052C04D1002804BF022000F014F930
:1049A000B0EE490ABDEC048B70BD4200B2EB410F82
:1049B0003AD910F0004F19BFDFED630A9FED630A8B
:1049C000DFED630A9FED630AB0EE481A0A46B1EEC6
:1049D000688A80F00041F0EE418A10460A1A5200BF
:1049E000B2F1807F34D2484010F0004FDFED5A1A08
:1049F0009FED5A2A1DBFBEEE001A70EEE10A30EE9E
:104A0000420AB6EE001A08BF70EEA10A00E040E0CC
:104A100008BF30EE020AB0EE682A01EE482A08EE1E
:104A2000818AC2EE081A15E011F0004F04BF9FED15
:104A30004C0AF0EE400AD1D010F0004F19BFDFED64
:104A4000490A9FED490ADFED490A9FED490AC5E78A
:104A5000C8EE881A21EEA11A9FED462ADFED462AFC
:104A600041EE022A9FED452A01EE222ADFED442A7B
:104A700041EE022A9FED432ABDEC048B01EE222A6F
:104A800021EE811A01EE020A30EE210A30EE200AF0
:104A900070BD4FF07F42B2EB400F28BFB2EB410F29
:104AA00009D2F0EE480AB0EE680ABDEC048BBDE80E
:104AB000704000F06DB840EA01035B0008BF41F0B0
:104AC000FF410BD0B2EB400F08BFB2EB410F08D152
:104AD00020F0804008EE900A21F0804108EE101A84
:104AE00018E7B2EB400F12BF5FEA410340F0FF400E
:104AF00001F000413FF40EAFB2EB410F12BF5FEA8D
:104B0000400200F0004041F0FF413FF403AF4A0093
:104B100092EA40033FF5FEAE002AACBF9FED1A0AB1
:104B20009FED1A0A68EE808A28EE008A18EE900A35
:104B300018EE101AEEE60000DB0FC9BFDB0FC93F0D
:104B4000DB0F4940DB0F49C00000C9BF22AAFDB9F5
:104B50000000C93F22AAFD390060ED3EC30ACE37EE
:104B600000000000000049C022AA7DBA00004940B0
:104B700022AA7D3A2DAD65BD8FB8D53D0FB511BECA
:104B800061C84C3EA8AAAABE0000804F0000802F3A
:104B900030EE200A704700009FED020A20EE000A66
:104BA000704700000000001002E008C8121F08C192
:104BB000002AFAD170477047002001E001C1121F9E
:104BC000002AFBD1704700000149086070470000CF
:104BD000000000240000000001020304010203049D
:104BE000060708097D04017C000240AB0341000573
:104BF0005308065804070F000810820911000A150F
:104C0000800B16000C18010D284C00080000002431
:104C100020000000A84B0008484C00082000002499
:104C2000F8090000B84B0008000000000100000077
:104C3000100000000090D0030090D003E7416B3AD1
:084C400058A08B3A00000000AF
:04000005080002CD20
:00000001FF
